{
  "_format": "hh-sol-artifact-1",
  "contractName": "TicTacToe",
  "sourceName": "contracts/TicTacToe.sol",
  "abi": [
    {
      "inputs": [
        {
          "internalType": "address",
          "name": "model_",
          "type": "address"
        },
        {
          "internalType": "uint256",
          "name": "gameCost_",
          "type": "uint256"
        }
      ],
      "stateMutability": "nonpayable",
      "type": "constructor"
    },
    {
      "anonymous": false,
      "inputs": [
        {
          "indexed": false,
          "internalType": "uint256",
          "name": "gameId",
          "type": "uint256"
        },
        {
          "indexed": false,
          "internalType": "address",
          "name": "creator",
          "type": "address"
        }
      ],
      "name": "GameCreated",
      "type": "event"
    },
    {
      "anonymous": false,
      "inputs": [
        {
          "indexed": false,
          "internalType": "uint256",
          "name": "gameId",
          "type": "uint256"
        },
        {
          "indexed": false,
          "internalType": "address",
          "name": "joiner",
          "type": "address"
        }
      ],
      "name": "GameJoined",
      "type": "event"
    },
    {
      "anonymous": false,
      "inputs": [
        {
          "indexed": false,
          "internalType": "uint256",
          "name": "gameId",
          "type": "uint256"
        },
        {
          "indexed": false,
          "internalType": "enum TicTacToe.GameStatus",
          "name": "gameStatus",
          "type": "uint8"
        }
      ],
      "name": "GameOver",
      "type": "event"
    },
    {
      "anonymous": false,
      "inputs": [
        {
          "indexed": false,
          "internalType": "uint256",
          "name": "gameId",
          "type": "uint256"
        },
        {
          "indexed": false,
          "internalType": "address",
          "name": "mover",
          "type": "address"
        },
        {
          "indexed": false,
          "internalType": "uint256",
          "name": "xLoc",
          "type": "uint256"
        },
        {
          "indexed": false,
          "internalType": "uint256",
          "name": "yLoc",
          "type": "uint256"
        },
        {
          "indexed": false,
          "internalType": "string",
          "name": "symbol",
          "type": "string"
        }
      ],
      "name": "Move",
      "type": "event"
    },
    {
      "inputs": [
        {
          "internalType": "bool",
          "name": "autoplay",
          "type": "bool"
        }
      ],
      "name": "createGame",
      "outputs": [
        {
          "internalType": "uint256",
          "name": "",
          "type": "uint256"
        }
      ],
      "stateMutability": "payable",
      "type": "function"
    },
    {
      "inputs": [
        {
          "internalType": "uint256",
          "name": "",
          "type": "uint256"
        }
      ],
      "name": "games",
      "outputs": [
        {
          "internalType": "uint256",
          "name": "id",
          "type": "uint256"
        },
        {
          "internalType": "address",
          "name": "playerOne",
          "type": "address"
        },
        {
          "internalType": "address",
          "name": "playerTwo",
          "type": "address"
        },
        {
          "internalType": "address",
          "name": "playerToMove",
          "type": "address"
        },
        {
          "internalType": "address",
          "name": "winner",
          "type": "address"
        },
        {
          "internalType": "enum TicTacToe.GameStatus",
          "name": "status",
          "type": "uint8"
        }
      ],
      "stateMutability": "view",
      "type": "function"
    },
    {
      "inputs": [
        {
          "internalType": "uint256",
          "name": "gameId",
          "type": "uint256"
        }
      ],
      "name": "getGameBoard",
      "outputs": [
        {
          "internalType": "uint256[3][3]",
          "name": "",
          "type": "uint256[3][3]"
        }
      ],
      "stateMutability": "view",
      "type": "function"
    },
    {
      "inputs": [
        {
          "internalType": "uint256",
          "name": "gameId",
          "type": "uint256"
        },
        {
          "internalType": "bool",
          "name": "autoplay",
          "type": "bool"
        }
      ],
      "name": "joinGame",
      "outputs": [],
      "stateMutability": "payable",
      "type": "function"
    },
    {
      "inputs": [],
      "name": "latestGameId",
      "outputs": [
        {
          "internalType": "uint256",
          "name": "",
          "type": "uint256"
        }
      ],
      "stateMutability": "view",
      "type": "function"
    },
    {
      "inputs": [],
      "name": "model",
      "outputs": [
        {
          "internalType": "address",
          "name": "",
          "type": "address"
        }
      ],
      "stateMutability": "view",
      "type": "function"
    },
    {
      "inputs": [
        {
          "internalType": "uint256",
          "name": "gameId",
          "type": "uint256"
        },
        {
          "internalType": "uint256",
          "name": "xLoc",
          "type": "uint256"
        },
        {
          "internalType": "uint256",
          "name": "yLoc",
          "type": "uint256"
        }
      ],
      "name": "move",
      "outputs": [
        {
          "internalType": "enum TicTacToe.GameStatus",
          "name": "",
          "type": "uint8"
        }
      ],
      "stateMutability": "nonpayable",
      "type": "function"
    },
    {
      "inputs": [],
      "name": "playerOneSymbol",
      "outputs": [
        {
          "internalType": "string",
          "name": "",
          "type": "string"
        }
      ],
      "stateMutability": "view",
      "type": "function"
    },
    {
      "inputs": [],
      "name": "playerTwoSymbol",
      "outputs": [
        {
          "internalType": "string",
          "name": "",
          "type": "string"
        }
      ],
      "stateMutability": "view",
      "type": "function"
    },
    {
      "inputs": [
        {
          "internalType": "uint256",
          "name": "gameId",
          "type": "uint256"
        }
      ],
      "name": "withdraw",
      "outputs": [],
      "stateMutability": "nonpayable",
      "type": "function"
    }
  ],
  "bytecode": "0x60806040523480156200001157600080fd5b50604051620039c2380380620039c2833981810160405281019062000037919062000241565b336000806101000a81548173ffffffffffffffffffffffffffffffffffffffff021916908373ffffffffffffffffffffffffffffffffffffffff16021790555081600160006101000a81548173ffffffffffffffffffffffffffffffffffffffff021916908373ffffffffffffffffffffffffffffffffffffffff160217905550806002819055506040518060400160405280600181526020017f5800000000000000000000000000000000000000000000000000000000000000815250600490805190602001906200010c92919062000163565b506040518060400160405280600181526020017f4f00000000000000000000000000000000000000000000000000000000000000815250600590805190602001906200015a92919062000163565b50505062000359565b8280546200017190620002c0565b90600052602060002090601f016020900481019282620001955760008555620001e1565b82601f10620001b057805160ff1916838001178555620001e1565b82800160010185558215620001e1579182015b82811115620001e0578251825591602001919060010190620001c3565b5b509050620001f09190620001f4565b5090565b5b808211156200020f576000816000905550600101620001f5565b5090565b600081519050620002248162000325565b92915050565b6000815190506200023b816200033f565b92915050565b600080604083850312156200025557600080fd5b6000620002658582860162000213565b925050602062000278858286016200022a565b9150509250929050565b60006200028f8262000296565b9050919050565b600073ffffffffffffffffffffffffffffffffffffffff82169050919050565b6000819050919050565b60006002820490506001821680620002d957607f821691505b60208210811415620002f057620002ef620002f6565b5b50919050565b7f4e487b7100000000000000000000000000000000000000000000000000000000600052602260045260246000fd5b620003308162000282565b81146200033c57600080fd5b50565b6200034a81620002b6565b81146200035657600080fd5b50565b61365980620003696000396000f3fe6080604052600436106100915760003560e01c806379df837a1161005957806379df837a1461019457806394517b90146101bf578063a35203c4146101db578063b58fc78b1461020b578063fa7c9bcf1461023657610091565b80630ad9d05214610096578063117a5b90146100c15780631a2361e7146101035780632e1a7d4d14610140578063663fde9414610169575b600080fd5b3480156100a257600080fd5b506100ab610273565b6040516100b89190612e2a565b60405180910390f35b3480156100cd57600080fd5b506100e860048036038101906100e391906129ef565b610299565b6040516100fa96959493929190613022565b60405180910390f35b34801561010f57600080fd5b5061012a600480360381019061012591906129ef565b610362565b6040516101379190612e45565b60405180910390f35b34801561014c57600080fd5b50610167600480360381019061016291906129ef565b610442565b005b34801561017557600080fd5b5061017e6105ce565b60405161018b9190612e7c565b60405180910390f35b3480156101a057600080fd5b506101a961065c565b6040516101b69190612e7c565b60405180910390f35b6101d960048036038101906101d49190612a18565b6106ea565b005b6101f560048036038101906101f091906129c6565b610b4e565b6040516102029190612fde565b60405180910390f35b34801561021757600080fd5b50610220610cd0565b60405161022d9190612fde565b60405180910390f35b34801561024257600080fd5b5061025d60048036038101906102589190612a54565b610cd6565b60405161026a9190612e61565b60405180910390f35b600160009054906101000a900473ffffffffffffffffffffffffffffffffffffffff1681565b60066020528060005260406000206000915090508060000154908060010160009054906101000a900473ffffffffffffffffffffffffffffffffffffffff16908060020160009054906101000a900473ffffffffffffffffffffffffffffffffffffffff16908060030160009054906101000a900473ffffffffffffffffffffffffffffffffffffffff16908060040160009054906101000a900473ffffffffffffffffffffffffffffffffffffffff169080600e0160009054906101000a900460ff16905086565b61036a61290f565b816003548111156103b0576040517f08c379a00000000000000000000000000000000000000000000000000000000081526004016103a790612f7e565b60405180910390fd5b60066000848152602001908152602001600020600501600380602002604051908101604052809291906000905b8282101561043657838260030201600380602002604051908101604052809291908260038015610422576020028201915b81548152602001906001019080831161040e575b5050505050815260200190600101906103dd565b50505050915050919050565b60006006600083815260200190815260200160002090503373ffffffffffffffffffffffffffffffffffffffff168160040160009054906101000a900473ffffffffffffffffffffffffffffffffffffffff1673ffffffffffffffffffffffffffffffffffffffff16146104eb576040517f08c379a00000000000000000000000000000000000000000000000000000000081526004016104e290612f9e565b60405180910390fd5b60008160040160009054906101000a900473ffffffffffffffffffffffffffffffffffffffff1673ffffffffffffffffffffffffffffffffffffffff16600254600261053791906131ee565b60405161054390612e15565b60006040518083038185875af1925050503d8060008114610580576040519150601f19603f3d011682016040523d82523d6000602084013e610585565b606091505b50509050806105c9576040517f08c379a00000000000000000000000000000000000000000000000000000000081526004016105c090612efe565b60405180910390fd5b505050565b600580546105db90613314565b80601f016020809104026020016040519081016040528092919081815260200182805461060790613314565b80156106545780601f1061062957610100808354040283529160200191610654565b820191906000526020600020905b81548152906001019060200180831161063757829003601f168201915b505050505081565b6004805461066990613314565b80601f016020809104026020016040519081016040528092919081815260200182805461069590613314565b80156106e25780601f106106b7576101008083540402835291602001916106e2565b820191906000526020600020905b8154815290600101906020018083116106c557829003601f168201915b505050505081565b81600354811115610730576040517f08c379a000000000000000000000000000000000000000000000000000000000815260040161072790612f7e565b60405180910390fd5b6002543414610774576040517f08c379a000000000000000000000000000000000000000000000000000000000815260040161076b90612f1e565b60405180910390fd5b6000600660008581526020019081526020016000209050600073ffffffffffffffffffffffffffffffffffffffff168160020160009054906101000a900473ffffffffffffffffffffffffffffffffffffffff1673ffffffffffffffffffffffffffffffffffffffff161461081e576040517f08c379a000000000000000000000000000000000000000000000000000000000815260040161081590612fbe565b60405180910390fd5b8215610a11573073ffffffffffffffffffffffffffffffffffffffff163373ffffffffffffffffffffffffffffffffffffffff1614610892576040517f08c379a000000000000000000000000000000000000000000000000000000000815260040161088990612ebe565b60405180910390fd5b600160009054906101000a900473ffffffffffffffffffffffffffffffffffffffff168160020160006101000a81548173ffffffffffffffffffffffffffffffffffffffff021916908373ffffffffffffffffffffffffffffffffffffffff1602179055508060010160009054906101000a900473ffffffffffffffffffffffffffffffffffffffff168160030160006101000a81548173ffffffffffffffffffffffffffffffffffffffff021916908373ffffffffffffffffffffffffffffffffffffffff160217905550600181600e0160006101000a81548160ff021916908360048111156109ac577f4e487b7100000000000000000000000000000000000000000000000000000000600052602160045260246000fd5b02179055507f45c4f9cbafe186141862608c493f28b823fde4c2142bedc3f5169961a73fdd2284600160009054906101000a900473ffffffffffffffffffffffffffffffffffffffff16604051610a04929190612ff9565b60405180910390a1610b48565b338160020160006101000a81548173ffffffffffffffffffffffffffffffffffffffff021916908373ffffffffffffffffffffffffffffffffffffffff1602179055508060010160009054906101000a900473ffffffffffffffffffffffffffffffffffffffff168160030160006101000a81548173ffffffffffffffffffffffffffffffffffffffff021916908373ffffffffffffffffffffffffffffffffffffffff160217905550600181600e0160006101000a81548160ff02191690836004811115610b09577f4e487b7100000000000000000000000000000000000000000000000000000000600052602160045260246000fd5b02179055507f45c4f9cbafe186141862608c493f28b823fde4c2142bedc3f5169961a73fdd228433604051610b3f929190612ff9565b60405180910390a15b50505050565b60006002543414610b94576040517f08c379a0000000000000000000000000000000000000000000000000000000008152600401610b8b90612f1e565b60405180910390fd5b60036000815480929190610ba790613346565b9190505550600060066000600354815260200190815260200160002090506003548160000181905550338160010160006101000a81548173ffffffffffffffffffffffffffffffffffffffff021916908373ffffffffffffffffffffffffffffffffffffffff1602179055507fc3e0f84839dc888c892a013d10c8f9d6dc05a21a879d0ce468ca558013e9121c60035433604051610c46929190612ff9565b60405180910390a18215610cc5573073ffffffffffffffffffffffffffffffffffffffff166394517b9060035460016040518363ffffffff1660e01b8152600401610c929291906130dd565b600060405180830381600087803b158015610cac57600080fd5b505af1158015610cc0573d6000803e3d6000fd5b505050505b600354915050919050565b60035481565b600083600354811115610d1e576040517f08c379a0000000000000000000000000000000000000000000000000000000008152600401610d1590612f7e565b60405180910390fd5b600060066000878152602001908152602001600020905060016004811115610d6f577f4e487b7100000000000000000000000000000000000000000000000000000000600052602160045260246000fd5b81600e0160009054906101000a900460ff166004811115610db9577f4e487b7100000000000000000000000000000000000000000000000000000000600052602160045260246000fd5b14610df9576040517f08c379a0000000000000000000000000000000000000000000000000000000008152600401610df090612f5e565b60405180910390fd5b600160009054906101000a900473ffffffffffffffffffffffffffffffffffffffff1673ffffffffffffffffffffffffffffffffffffffff168160030160009054906101000a900473ffffffffffffffffffffffffffffffffffffffff1673ffffffffffffffffffffffffffffffffffffffff161415610f8b576000600160009054906101000a900473ffffffffffffffffffffffffffffffffffffffff1690503373ffffffffffffffffffffffffffffffffffffffff168173ffffffffffffffffffffffffffffffffffffffff16637dc0d1d06040518163ffffffff1660e01b815260040160206040518083038186803b158015610ef757600080fd5b505afa158015610f0b573d6000803e3d6000fd5b505050506040513d601f19601f82011682018060405250810190610f2f919061299d565b73ffffffffffffffffffffffffffffffffffffffff1614610f85576040517f08c379a0000000000000000000000000000000000000000000000000000000008152600401610f7c90612ede565b60405180910390fd5b5061101e565b3373ffffffffffffffffffffffffffffffffffffffff168160030160009054906101000a900473ffffffffffffffffffffffffffffffffffffffff1673ffffffffffffffffffffffffffffffffffffffff161461101d576040517f08c379a000000000000000000000000000000000000000000000000000000000815260040161101490612ede565b60405180910390fd5b5b60028511158015611030575060028411155b61106f576040517f08c379a000000000000000000000000000000000000000000000000000000000815260040161106690612e9e565b60405180910390fd5b60008160050186600381106110ad577f4e487b7100000000000000000000000000000000000000000000000000000000600052603260045260246000fd5b6003020185600381106110e9577f4e487b7100000000000000000000000000000000000000000000000000000000600052603260045260246000fd5b01541461112b576040517f08c379a000000000000000000000000000000000000000000000000000000000815260040161112290612f3e565b60405180910390fd5b8060010160009054906101000a900473ffffffffffffffffffffffffffffffffffffffff1673ffffffffffffffffffffffffffffffffffffffff163373ffffffffffffffffffffffffffffffffffffffff1614156112ae5760018160050186600381106111c1577f4e487b7100000000000000000000000000000000000000000000000000000000600052603260045260246000fd5b6003020185600381106111fd577f4e487b7100000000000000000000000000000000000000000000000000000000600052603260045260246000fd5b01819055507fca88fa0b30c770c5b1dd5a0c1a6f3b51f1ea2ca4553c86c6c813da61b9574b2886338787600460405161123a959493929190613083565b60405180910390a18060020160009054906101000a900473ffffffffffffffffffffffffffffffffffffffff168160030160006101000a81548173ffffffffffffffffffffffffffffffffffffffff021916908373ffffffffffffffffffffffffffffffffffffffff1602179055506113d5565b60028160050186600381106112ec577f4e487b7100000000000000000000000000000000000000000000000000000000600052603260045260246000fd5b600302018560038110611328577f4e487b7100000000000000000000000000000000000000000000000000000000600052603260045260246000fd5b01819055507fca88fa0b30c770c5b1dd5a0c1a6f3b51f1ea2ca4553c86c6c813da61b9574b28863387876005604051611365959493929190613083565b60405180910390a18060010160009054906101000a900473ffffffffffffffffffffffffffffffffffffffff168160030160006101000a81548173ffffffffffffffffffffffffffffffffffffffff021916908373ffffffffffffffffffffffffffffffffffffffff1602179055505b60006113e0826115f9565b90508082600e0160006101000a81548160ff0219169083600481111561142f577f4e487b7100000000000000000000000000000000000000000000000000000000600052602160045260246000fd5b02179055506001600481111561146e577f4e487b7100000000000000000000000000000000000000000000000000000000600052602160045260246000fd5b82600e0160009054906101000a900460ff1660048111156114b8577f4e487b7100000000000000000000000000000000000000000000000000000000600052602160045260246000fd5b1480156115365750600160009054906101000a900473ffffffffffffffffffffffffffffffffffffffff1673ffffffffffffffffffffffffffffffffffffffff168260020160009054906101000a900473ffffffffffffffffffffffffffffffffffffffff1673ffffffffffffffffffffffffffffffffffffffff16145b156115db576000600160009054906101000a900473ffffffffffffffffffffffffffffffffffffffff1690508073ffffffffffffffffffffffffffffffffffffffff1662248952846000015463fa7c9bcf60e01b6040518363ffffffff1660e01b81526004016115a7929190613106565b600060405180830381600087803b1580156115c157600080fd5b505af11580156115d5573d6000803e3d6000fd5b50505050505b81600e0160009054906101000a900460ff1693505050509392505050565b600080600090505b6003811015611a8a576000836005018260038110611648577f4e487b7100000000000000000000000000000000000000000000000000000000600052603260045260246000fd5b60030201600060038110611685577f4e487b7100000000000000000000000000000000000000000000000000000000600052603260045260246000fd5b01541415801561178857508260050181600381106116cc577f4e487b7100000000000000000000000000000000000000000000000000000000600052603260045260246000fd5b60030201600160038110611709577f4e487b7100000000000000000000000000000000000000000000000000000000600052603260045260246000fd5b0154836005018260038110611747577f4e487b7100000000000000000000000000000000000000000000000000000000600052603260045260246000fd5b60030201600060038110611784577f4e487b7100000000000000000000000000000000000000000000000000000000600052603260045260246000fd5b0154145b801561188757508260050181600381106117cb577f4e487b7100000000000000000000000000000000000000000000000000000000600052603260045260246000fd5b60030201600260038110611808577f4e487b7100000000000000000000000000000000000000000000000000000000600052603260045260246000fd5b0154836005018260038110611846577f4e487b7100000000000000000000000000000000000000000000000000000000600052603260045260246000fd5b60030201600160038110611883577f4e487b7100000000000000000000000000000000000000000000000000000000600052603260045260246000fd5b0154145b15611a775760018360050182600381106118ca577f4e487b7100000000000000000000000000000000000000000000000000000000600052603260045260246000fd5b60030201600060038110611907577f4e487b7100000000000000000000000000000000000000000000000000000000600052603260045260246000fd5b015414156119c3576000600390508360010160009054906101000a900473ffffffffffffffffffffffffffffffffffffffff168460040160006101000a81548173ffffffffffffffffffffffffffffffffffffffff021916908373ffffffffffffffffffffffffffffffffffffffff1602179055507f132b564c6f96092065580fd28989d181dfbbfe4aa2fb7fb1eda8af68ba3073e08460000154826040516119b192919061312f565b60405180910390a1809250505061290a565b6000600490508360020160009054906101000a900473ffffffffffffffffffffffffffffffffffffffff168460040160006101000a81548173ffffffffffffffffffffffffffffffffffffffff021916908373ffffffffffffffffffffffffffffffffffffffff1602179055507f132b564c6f96092065580fd28989d181dfbbfe4aa2fb7fb1eda8af68ba3073e0846000015482604051611a6592919061312f565b60405180910390a1809250505061290a565b8080611a8290613346565b915050611601565b5060005b6003811015611f1757600083600501600060038110611ad6577f4e487b7100000000000000000000000000000000000000000000000000000000600052603260045260246000fd5b600302018260038110611b12577f4e487b7100000000000000000000000000000000000000000000000000000000600052603260045260246000fd5b015414158015611c15575082600501600160038110611b5a577f4e487b7100000000000000000000000000000000000000000000000000000000600052603260045260246000fd5b600302018160038110611b96577f4e487b7100000000000000000000000000000000000000000000000000000000600052603260045260246000fd5b015483600501600060038110611bd5577f4e487b7100000000000000000000000000000000000000000000000000000000600052603260045260246000fd5b600302018260038110611c11577f4e487b7100000000000000000000000000000000000000000000000000000000600052603260045260246000fd5b0154145b8015611d14575082600501600260038110611c59577f4e487b7100000000000000000000000000000000000000000000000000000000600052603260045260246000fd5b600302018160038110611c95577f4e487b7100000000000000000000000000000000000000000000000000000000600052603260045260246000fd5b015483600501600160038110611cd4577f4e487b7100000000000000000000000000000000000000000000000000000000600052603260045260246000fd5b600302018260038110611d10577f4e487b7100000000000000000000000000000000000000000000000000000000600052603260045260246000fd5b0154145b15611f0457600183600501600060038110611d58577f4e487b7100000000000000000000000000000000000000000000000000000000600052603260045260246000fd5b600302018260038110611d94577f4e487b7100000000000000000000000000000000000000000000000000000000600052603260045260246000fd5b01541415611e50576000600390508360010160009054906101000a900473ffffffffffffffffffffffffffffffffffffffff168460040160006101000a81548173ffffffffffffffffffffffffffffffffffffffff021916908373ffffffffffffffffffffffffffffffffffffffff1602179055507f132b564c6f96092065580fd28989d181dfbbfe4aa2fb7fb1eda8af68ba3073e0846000015482604051611e3e92919061312f565b60405180910390a1809250505061290a565b6000600490508360020160009054906101000a900473ffffffffffffffffffffffffffffffffffffffff168460040160006101000a81548173ffffffffffffffffffffffffffffffffffffffff021916908373ffffffffffffffffffffffffffffffffffffffff1602179055507f132b564c6f96092065580fd28989d181dfbbfe4aa2fb7fb1eda8af68ba3073e0846000015482604051611ef292919061312f565b60405180910390a1809250505061290a565b8080611f0f90613346565b915050611a8e565b50600082600501600060038110611f57577f4e487b7100000000000000000000000000000000000000000000000000000000600052603260045260246000fd5b60030201600060038110611f94577f4e487b7100000000000000000000000000000000000000000000000000000000600052603260045260246000fd5b015414158015612099575081600501600160038110611fdc577f4e487b7100000000000000000000000000000000000000000000000000000000600052603260045260246000fd5b60030201600160038110612019577f4e487b7100000000000000000000000000000000000000000000000000000000600052603260045260246000fd5b015482600501600060038110612058577f4e487b7100000000000000000000000000000000000000000000000000000000600052603260045260246000fd5b60030201600060038110612095577f4e487b7100000000000000000000000000000000000000000000000000000000600052603260045260246000fd5b0154145b801561219a5750816005016002600381106120dd577f4e487b7100000000000000000000000000000000000000000000000000000000600052603260045260246000fd5b6003020160026003811061211a577f4e487b7100000000000000000000000000000000000000000000000000000000600052603260045260246000fd5b015482600501600160038110612159577f4e487b7100000000000000000000000000000000000000000000000000000000600052603260045260246000fd5b60030201600160038110612196577f4e487b7100000000000000000000000000000000000000000000000000000000600052603260045260246000fd5b0154145b15612389576001826005016000600381106121de577f4e487b7100000000000000000000000000000000000000000000000000000000600052603260045260246000fd5b6003020160006003811061221b577f4e487b7100000000000000000000000000000000000000000000000000000000600052603260045260246000fd5b015414156122d6576000600390508260010160009054906101000a900473ffffffffffffffffffffffffffffffffffffffff168360040160006101000a81548173ffffffffffffffffffffffffffffffffffffffff021916908373ffffffffffffffffffffffffffffffffffffffff1602179055507f132b564c6f96092065580fd28989d181dfbbfe4aa2fb7fb1eda8af68ba3073e08360000154826040516122c592919061312f565b60405180910390a18091505061290a565b6000600490508260020160009054906101000a900473ffffffffffffffffffffffffffffffffffffffff168360040160006101000a81548173ffffffffffffffffffffffffffffffffffffffff021916908373ffffffffffffffffffffffffffffffffffffffff1602179055507f132b564c6f96092065580fd28989d181dfbbfe4aa2fb7fb1eda8af68ba3073e083600001548260405161237892919061312f565b60405180910390a18091505061290a565b6000826005016000600381106123c8577f4e487b7100000000000000000000000000000000000000000000000000000000600052603260045260246000fd5b60030201600260038110612405577f4e487b7100000000000000000000000000000000000000000000000000000000600052603260045260246000fd5b01541415801561250a57508160050160016003811061244d577f4e487b7100000000000000000000000000000000000000000000000000000000600052603260045260246000fd5b6003020160016003811061248a577f4e487b7100000000000000000000000000000000000000000000000000000000600052603260045260246000fd5b0154826005016000600381106124c9577f4e487b7100000000000000000000000000000000000000000000000000000000600052603260045260246000fd5b60030201600260038110612506577f4e487b7100000000000000000000000000000000000000000000000000000000600052603260045260246000fd5b0154145b801561260b57508160050160026003811061254e577f4e487b7100000000000000000000000000000000000000000000000000000000600052603260045260246000fd5b6003020160006003811061258b577f4e487b7100000000000000000000000000000000000000000000000000000000600052603260045260246000fd5b0154826005016001600381106125ca577f4e487b7100000000000000000000000000000000000000000000000000000000600052603260045260246000fd5b60030201600160038110612607577f4e487b7100000000000000000000000000000000000000000000000000000000600052603260045260246000fd5b0154145b156127fa5760018260050160006003811061264f577f4e487b7100000000000000000000000000000000000000000000000000000000600052603260045260246000fd5b6003020160026003811061268c577f4e487b7100000000000000000000000000000000000000000000000000000000600052603260045260246000fd5b01541415612747576000600390508260010160009054906101000a900473ffffffffffffffffffffffffffffffffffffffff168360040160006101000a81548173ffffffffffffffffffffffffffffffffffffffff021916908373ffffffffffffffffffffffffffffffffffffffff1602179055507f132b564c6f96092065580fd28989d181dfbbfe4aa2fb7fb1eda8af68ba3073e083600001548260405161273692919061312f565b60405180910390a18091505061290a565b6000600490508260020160009054906101000a900473ffffffffffffffffffffffffffffffffffffffff168360040160006101000a81548173ffffffffffffffffffffffffffffffffffffffff021916908373ffffffffffffffffffffffffffffffffffffffff1602179055507f132b564c6f96092065580fd28989d181dfbbfe4aa2fb7fb1eda8af68ba3073e08360000154826040516127e992919061312f565b60405180910390a18091505061290a565b60005b60038110156128c65760005b60038110156128b2576000846005018360038110612850577f4e487b7100000000000000000000000000000000000000000000000000000000600052603260045260246000fd5b60030201826003811061288c577f4e487b7100000000000000000000000000000000000000000000000000000000600052603260045260246000fd5b0154141561289f5760019250505061290a565b80806128aa90613346565b915050612809565b5080806128be90613346565b9150506127fd565b507f132b564c6f96092065580fd28989d181dfbbfe4aa2fb7fb1eda8af68ba3073e0826000015460026040516128fd92919061312f565b60405180910390a1600290505b919050565b60405180606001604052806003905b61292661293c565b81526020019060019003908161291e5790505090565b6040518060600160405280600390602082028036833780820191505090505090565b60008151905061296d816135de565b92915050565b600081359050612982816135f5565b92915050565b6000813590506129978161360c565b92915050565b6000602082840312156129af57600080fd5b60006129bd8482850161295e565b91505092915050565b6000602082840312156129d857600080fd5b60006129e684828501612973565b91505092915050565b600060208284031215612a0157600080fd5b6000612a0f84828501612988565b91505092915050565b60008060408385031215612a2b57600080fd5b6000612a3985828601612988565b9250506020612a4a85828601612973565b9150509250929050565b600080600060608486031215612a6957600080fd5b6000612a7786828701612988565b9350506020612a8886828701612988565b9250506040612a9986828701612988565b9150509250925092565b6000612aaf8383612b39565b60608301905092915050565b6000612ac78383612df7565b60208301905092915050565b612adc81613248565b82525050565b612aeb81613181565b612af581846131bc565b9250612b0082613158565b8060005b83811015612b31578151612b188782612aa3565b9650612b23836131a2565b925050600181019050612b04565b505050505050565b612b428161318c565b612b4c81846131c7565b9250612b5782613162565b8060005b83811015612b88578151612b6f8782612abb565b9650612b7a836131af565b925050600181019050612b5b565b505050505050565b612b998161325a565b82525050565b612ba881613266565b82525050565b612bb7816132cf565b82525050565b6000612bc882613197565b612bd281856131dd565b9350612be28185602086016132e1565b612beb8161341c565b840191505092915050565b60008154612c0381613314565b612c0d81866131dd565b94506001821660008114612c285760018114612c3a57612c6d565b60ff1983168652602086019350612c6d565b612c438561316c565b60005b83811015612c6557815481890152600182019150602081019050612c46565b808801955050505b50505092915050565b6000612c836012836131dd565b9150612c8e8261342d565b602082019050919050565b6000612ca66016836131dd565b9150612cb182613456565b602082019050919050565b6000612cc9600d836131dd565b9150612cd48261347f565b602082019050919050565b6000612cec600e836131dd565b9150612cf7826134a8565b602082019050919050565b6000612d0f600f836131dd565b9150612d1a826134d1565b602082019050919050565b6000612d326012836131dd565b9150612d3d826134fa565b602082019050919050565b6000612d556014836131dd565b9150612d6082613523565b602082019050919050565b6000612d786000836131d2565b9150612d838261354c565b600082019050919050565b6000612d9b6017836131dd565b9150612da68261354f565b602082019050919050565b6000612dbe6016836131dd565b9150612dc982613578565b602082019050919050565b6000612de16014836131dd565b9150612dec826135a1565b602082019050919050565b612e00816132c5565b82525050565b612e0f816132c5565b82525050565b6000612e2082612d6b565b9150819050919050565b6000602082019050612e3f6000830184612ad3565b92915050565b600061012082019050612e5b6000830184612ae2565b92915050565b6000602082019050612e766000830184612bae565b92915050565b60006020820190508181036000830152612e968184612bbd565b905092915050565b60006020820190508181036000830152612eb781612c76565b9050919050565b60006020820190508181036000830152612ed781612c99565b9050919050565b60006020820190508181036000830152612ef781612cbc565b9050919050565b60006020820190508181036000830152612f1781612cdf565b9050919050565b60006020820190508181036000830152612f3781612d02565b9050919050565b60006020820190508181036000830152612f5781612d25565b9050919050565b60006020820190508181036000830152612f7781612d48565b9050919050565b60006020820190508181036000830152612f9781612d8e565b9050919050565b60006020820190508181036000830152612fb781612db1565b9050919050565b60006020820190508181036000830152612fd781612dd4565b9050919050565b6000602082019050612ff36000830184612e06565b92915050565b600060408201905061300e6000830185612e06565b61301b6020830184612ad3565b9392505050565b600060c0820190506130376000830189612e06565b6130446020830188612ad3565b6130516040830187612ad3565b61305e6060830186612ad3565b61306b6080830185612ad3565b61307860a0830184612bae565b979650505050505050565b600060a0820190506130986000830188612e06565b6130a56020830187612ad3565b6130b26040830186612e06565b6130bf6060830185612e06565b81810360808301526130d18184612bf6565b90509695505050505050565b60006040820190506130f26000830185612e06565b6130ff6020830184612b90565b9392505050565b600060408201905061311b6000830185612e06565b6131286020830184612b9f565b9392505050565b60006040820190506131446000830185612e06565b6131516020830184612bae565b9392505050565b6000819050919050565b6000819050919050565b60008190508160005260206000209050919050565b600060039050919050565b600060039050919050565b600081519050919050565b6000602082019050919050565b6000602082019050919050565b600081905092915050565b600081905092915050565b600081905092915050565b600082825260208201905092915050565b60006131f9826132c5565b9150613204836132c5565b9250817fffffffffffffffffffffffffffffffffffffffffffffffffffffffffffffffff048311821515161561323d5761323c61338f565b5b828202905092915050565b6000613253826132a5565b9050919050565b60008115159050919050565b60007fffffffff0000000000000000000000000000000000000000000000000000000082169050919050565b60008190506132a0826135ca565b919050565b600073ffffffffffffffffffffffffffffffffffffffff82169050919050565b6000819050919050565b60006132da82613292565b9050919050565b60005b838110156132ff5780820151818401526020810190506132e4565b8381111561330e576000848401525b50505050565b6000600282049050600182168061332c57607f821691505b602082108114156133405761333f6133ed565b5b50919050565b6000613351826132c5565b91507fffffffffffffffffffffffffffffffffffffffffffffffffffffffffffffffff8214156133845761338361338f565b5b600182019050919050565b7f4e487b7100000000000000000000000000000000000000000000000000000000600052601160045260246000fd5b7f4e487b7100000000000000000000000000000000000000000000000000000000600052602160045260246000fd5b7f4e487b7100000000000000000000000000000000000000000000000000000000600052602260045260246000fd5b6000601f19601f8301169050919050565b7f4f7574206f6620626f756e6473206d6f76650000000000000000000000000000600082015250565b7f43616e6e6f742063686f6f7365206175746f706c617900000000000000000000600082015250565b7f4e6f7420796f7572207475726e00000000000000000000000000000000000000600082015250565b7f5061796d656e74206661696c6564000000000000000000000000000000000000600082015250565b7f52656d69742067616d6520636f73740000000000000000000000000000000000600082015250565b7f53706f7420616c72656164792074616b656e0000000000000000000000000000600082015250565b7f47616d65206e6f7420696e2070726f6772657373000000000000000000000000600082015250565b50565b7f47616d6520646f6573206e6f7420657869737420796574000000000000000000600082015250565b7f4e6f7420656c696769626c6520666f72207072697a6500000000000000000000600082015250565b7f47616d6520616c72656164792073746172746564000000000000000000000000600082015250565b600581106135db576135da6133be565b5b50565b6135e781613248565b81146135f257600080fd5b50565b6135fe8161325a565b811461360957600080fd5b50565b613615816132c5565b811461362057600080fd5b5056fea2646970667358221220be691352f9297c91b1e5cef6b82a1fe7033d79ae8626c4aba921fdf875f21a3d64736f6c63430008040033",
  "linkReferences": {},
  "deployedLinkReferences": {}
}