{
  "_format": "hh-sol-artifact-1",
  "contractName": "TicTacToe",
  "sourceName": "contracts/TicTacToe.sol",
  "abi": [
    {
      "inputs": [
        {
          "internalType": "address",
          "name": "model_",
          "type": "address"
        },
        {
          "internalType": "uint256",
          "name": "gameCost_",
          "type": "uint256"
        }
      ],
      "stateMutability": "nonpayable",
      "type": "constructor"
    },
    {
      "anonymous": false,
      "inputs": [
        {
          "indexed": false,
          "internalType": "uint256",
          "name": "gameId",
          "type": "uint256"
        },
        {
          "indexed": false,
          "internalType": "address",
          "name": "creator",
          "type": "address"
        }
      ],
      "name": "GameCreated",
      "type": "event"
    },
    {
      "anonymous": false,
      "inputs": [
        {
          "indexed": false,
          "internalType": "uint256",
          "name": "gameId",
          "type": "uint256"
        },
        {
          "indexed": false,
          "internalType": "address",
          "name": "joiner",
          "type": "address"
        }
      ],
      "name": "GameJoined",
      "type": "event"
    },
    {
      "anonymous": false,
      "inputs": [
        {
          "indexed": false,
          "internalType": "uint256",
          "name": "gameId",
          "type": "uint256"
        },
        {
          "indexed": false,
          "internalType": "enum TicTacToe.GameStatus",
          "name": "gameStatus",
          "type": "uint8"
        }
      ],
      "name": "GameOver",
      "type": "event"
    },
    {
      "anonymous": false,
      "inputs": [
        {
          "indexed": false,
          "internalType": "uint256",
          "name": "gameId",
          "type": "uint256"
        },
        {
          "indexed": false,
          "internalType": "address",
          "name": "mover",
          "type": "address"
        },
        {
          "indexed": false,
          "internalType": "uint256",
          "name": "xLoc",
          "type": "uint256"
        },
        {
          "indexed": false,
          "internalType": "uint256",
          "name": "yLoc",
          "type": "uint256"
        },
        {
          "indexed": false,
          "internalType": "string",
          "name": "symbol",
          "type": "string"
        }
      ],
      "name": "Move",
      "type": "event"
    },
    {
      "inputs": [
        {
          "internalType": "bool",
          "name": "autoplay",
          "type": "bool"
        }
      ],
      "name": "createGame",
      "outputs": [
        {
          "internalType": "uint256",
          "name": "",
          "type": "uint256"
        }
      ],
      "stateMutability": "payable",
      "type": "function"
    },
    {
      "inputs": [
        {
          "internalType": "uint256",
          "name": "",
          "type": "uint256"
        }
      ],
      "name": "games",
      "outputs": [
        {
          "internalType": "uint256",
          "name": "id",
          "type": "uint256"
        },
        {
          "internalType": "address",
          "name": "playerOne",
          "type": "address"
        },
        {
          "internalType": "address",
          "name": "playerTwo",
          "type": "address"
        },
        {
          "internalType": "address",
          "name": "playerToMove",
          "type": "address"
        },
        {
          "internalType": "address",
          "name": "winner",
          "type": "address"
        },
        {
          "internalType": "enum TicTacToe.GameStatus",
          "name": "status",
          "type": "uint8"
        }
      ],
      "stateMutability": "view",
      "type": "function"
    },
    {
      "inputs": [
        {
          "internalType": "uint256",
          "name": "gameId",
          "type": "uint256"
        },
        {
          "internalType": "bool",
          "name": "autoplay",
          "type": "bool"
        }
      ],
      "name": "joinGame",
      "outputs": [],
      "stateMutability": "payable",
      "type": "function"
    },
    {
      "inputs": [],
      "name": "model",
      "outputs": [
        {
          "internalType": "address",
          "name": "",
          "type": "address"
        }
      ],
      "stateMutability": "view",
      "type": "function"
    },
    {
      "inputs": [
        {
          "internalType": "uint256",
          "name": "gameId",
          "type": "uint256"
        },
        {
          "internalType": "uint256",
          "name": "xLoc",
          "type": "uint256"
        },
        {
          "internalType": "uint256",
          "name": "yLoc",
          "type": "uint256"
        }
      ],
      "name": "move",
      "outputs": [
        {
          "internalType": "enum TicTacToe.GameStatus",
          "name": "",
          "type": "uint8"
        }
      ],
      "stateMutability": "nonpayable",
      "type": "function"
    },
    {
      "inputs": [],
      "name": "playerOneSymbol",
      "outputs": [
        {
          "internalType": "string",
          "name": "",
          "type": "string"
        }
      ],
      "stateMutability": "view",
      "type": "function"
    },
    {
      "inputs": [],
      "name": "playerTwoSymbol",
      "outputs": [
        {
          "internalType": "string",
          "name": "",
          "type": "string"
        }
      ],
      "stateMutability": "view",
      "type": "function"
    },
    {
      "inputs": [
        {
          "internalType": "uint256",
          "name": "gameId",
          "type": "uint256"
        }
      ],
      "name": "withdraw",
      "outputs": [],
      "stateMutability": "nonpayable",
      "type": "function"
    }
  ],
  "bytecode": "0x60806040523480156200001157600080fd5b50604051620033ea380380620033ea833981810160405281019062000037919062000241565b336000806101000a81548173ffffffffffffffffffffffffffffffffffffffff021916908373ffffffffffffffffffffffffffffffffffffffff16021790555081600160006101000a81548173ffffffffffffffffffffffffffffffffffffffff021916908373ffffffffffffffffffffffffffffffffffffffff160217905550806002819055506040518060400160405280600181526020017f5800000000000000000000000000000000000000000000000000000000000000815250600490805190602001906200010c92919062000163565b506040518060400160405280600181526020017f4f00000000000000000000000000000000000000000000000000000000000000815250600590805190602001906200015a92919062000163565b50505062000359565b8280546200017190620002c0565b90600052602060002090601f016020900481019282620001955760008555620001e1565b82601f10620001b057805160ff1916838001178555620001e1565b82800160010185558215620001e1579182015b82811115620001e0578251825591602001919060010190620001c3565b5b509050620001f09190620001f4565b5090565b5b808211156200020f576000816000905550600101620001f5565b5090565b600081519050620002248162000325565b92915050565b6000815190506200023b816200033f565b92915050565b600080604083850312156200025557600080fd5b6000620002658582860162000213565b925050602062000278858286016200022a565b9150509250929050565b60006200028f8262000296565b9050919050565b600073ffffffffffffffffffffffffffffffffffffffff82169050919050565b6000819050919050565b60006002820490506001821680620002d957607f821691505b60208210811415620002f057620002ef620002f6565b5b50919050565b7f4e487b7100000000000000000000000000000000000000000000000000000000600052602260045260246000fd5b620003308162000282565b81146200033c57600080fd5b50565b6200034a81620002b6565b81146200035657600080fd5b50565b61308180620003696000396000f3fe60806040526004361061007b5760003560e01c806379df837a1161004e57806379df837a1461014157806394517b901461016c578063a35203c414610188578063fa7c9bcf146101b85761007b565b80630ad9d05214610080578063117a5b90146100ab5780632e1a7d4d146100ed578063663fde9414610116575b600080fd5b34801561008c57600080fd5b506100956101f5565b6040516100a29190612928565b60405180910390f35b3480156100b757600080fd5b506100d260048036038101906100cd91906125fd565b61021b565b6040516100e496959493929190612ae4565b60405180910390f35b3480156100f957600080fd5b50610114600480360381019061010f91906125fd565b6102e4565b005b34801561012257600080fd5b5061012b610470565b604051610138919061295e565b60405180910390f35b34801561014d57600080fd5b506101566104fe565b604051610163919061295e565b60405180910390f35b61018660048036038101906101819190612626565b61058c565b005b6101a2600480360381019061019d91906125d4565b610982565b6040516101af9190612aa0565b60405180910390f35b3480156101c457600080fd5b506101df60048036038101906101da9190612662565b610b04565b6040516101ec9190612943565b60405180910390f35b600160009054906101000a900473ffffffffffffffffffffffffffffffffffffffff1681565b60066020528060005260406000206000915090508060000154908060010160009054906101000a900473ffffffffffffffffffffffffffffffffffffffff16908060020160009054906101000a900473ffffffffffffffffffffffffffffffffffffffff16908060030160009054906101000a900473ffffffffffffffffffffffffffffffffffffffff16908060040160009054906101000a900473ffffffffffffffffffffffffffffffffffffffff169080600e0160009054906101000a900460ff16905086565b60006006600083815260200190815260200160002090503373ffffffffffffffffffffffffffffffffffffffff168160040160009054906101000a900473ffffffffffffffffffffffffffffffffffffffff1673ffffffffffffffffffffffffffffffffffffffff161461038d576040517f08c379a000000000000000000000000000000000000000000000000000000000815260040161038490612a60565b60405180910390fd5b60008160040160009054906101000a900473ffffffffffffffffffffffffffffffffffffffff1673ffffffffffffffffffffffffffffffffffffffff1660025460026103d99190612c56565b6040516103e590612913565b60006040518083038185875af1925050503d8060008114610422576040519150601f19603f3d011682016040523d82523d6000602084013e610427565b606091505b505090508061046b576040517f08c379a0000000000000000000000000000000000000000000000000000000008152600401610462906129c0565b60405180910390fd5b505050565b6005805461047d90612d7c565b80601f01602080910402602001604051908101604052809291908181526020018280546104a990612d7c565b80156104f65780601f106104cb576101008083540402835291602001916104f6565b820191906000526020600020905b8154815290600101906020018083116104d957829003601f168201915b505050505081565b6004805461050b90612d7c565b80601f016020809104026020016040519081016040528092919081815260200182805461053790612d7c565b80156105845780601f1061055957610100808354040283529160200191610584565b820191906000526020600020905b81548152906001019060200180831161056757829003601f168201915b505050505081565b816003548111156105d2576040517f08c379a00000000000000000000000000000000000000000000000000000000081526004016105c990612a40565b60405180910390fd5b6002543414610616576040517f08c379a000000000000000000000000000000000000000000000000000000000815260040161060d906129e0565b60405180910390fd5b6000600660008581526020019081526020016000209050600073ffffffffffffffffffffffffffffffffffffffff168160020160009054906101000a900473ffffffffffffffffffffffffffffffffffffffff1673ffffffffffffffffffffffffffffffffffffffff16146106c0576040517f08c379a00000000000000000000000000000000000000000000000000000000081526004016106b790612a80565b60405180910390fd5b821561084557600160009054906101000a900473ffffffffffffffffffffffffffffffffffffffff168160020160006101000a81548173ffffffffffffffffffffffffffffffffffffffff021916908373ffffffffffffffffffffffffffffffffffffffff1602179055508060010160009054906101000a900473ffffffffffffffffffffffffffffffffffffffff168160030160006101000a81548173ffffffffffffffffffffffffffffffffffffffff021916908373ffffffffffffffffffffffffffffffffffffffff160217905550600181600e0160006101000a81548160ff021916908360048111156107e0577f4e487b7100000000000000000000000000000000000000000000000000000000600052602160045260246000fd5b02179055507f45c4f9cbafe186141862608c493f28b823fde4c2142bedc3f5169961a73fdd2284600160009054906101000a900473ffffffffffffffffffffffffffffffffffffffff16604051610838929190612abb565b60405180910390a161097c565b338160020160006101000a81548173ffffffffffffffffffffffffffffffffffffffff021916908373ffffffffffffffffffffffffffffffffffffffff1602179055508060010160009054906101000a900473ffffffffffffffffffffffffffffffffffffffff168160030160006101000a81548173ffffffffffffffffffffffffffffffffffffffff021916908373ffffffffffffffffffffffffffffffffffffffff160217905550600181600e0160006101000a81548160ff0219169083600481111561093d577f4e487b7100000000000000000000000000000000000000000000000000000000600052602160045260246000fd5b02179055507f45c4f9cbafe186141862608c493f28b823fde4c2142bedc3f5169961a73fdd228433604051610973929190612abb565b60405180910390a15b50505050565b600060025434146109c8576040517f08c379a00000000000000000000000000000000000000000000000000000000081526004016109bf906129e0565b60405180910390fd5b600360008154809291906109db90612dae565b9190505550600060066000600354815260200190815260200160002090506003548160000181905550338160010160006101000a81548173ffffffffffffffffffffffffffffffffffffffff021916908373ffffffffffffffffffffffffffffffffffffffff1602179055507fc3e0f84839dc888c892a013d10c8f9d6dc05a21a879d0ce468ca558013e9121c60035433604051610a7a929190612abb565b60405180910390a18215610af9573073ffffffffffffffffffffffffffffffffffffffff166394517b9060035460016040518363ffffffff1660e01b8152600401610ac6929190612b9f565b600060405180830381600087803b158015610ae057600080fd5b505af1158015610af4573d6000803e3d6000fd5b505050505b600354915050919050565b600083600354811115610b4c576040517f08c379a0000000000000000000000000000000000000000000000000000000008152600401610b4390612a40565b60405180910390fd5b600060066000878152602001908152602001600020905060016004811115610b9d577f4e487b7100000000000000000000000000000000000000000000000000000000600052602160045260246000fd5b81600e0160009054906101000a900460ff166004811115610be7577f4e487b7100000000000000000000000000000000000000000000000000000000600052602160045260246000fd5b14610c27576040517f08c379a0000000000000000000000000000000000000000000000000000000008152600401610c1e90612a20565b60405180910390fd5b3373ffffffffffffffffffffffffffffffffffffffff168160030160009054906101000a900473ffffffffffffffffffffffffffffffffffffffff1673ffffffffffffffffffffffffffffffffffffffff1614610cb9576040517f08c379a0000000000000000000000000000000000000000000000000000000008152600401610cb0906129a0565b60405180910390fd5b60028511158015610ccb575060028411155b610d0a576040517f08c379a0000000000000000000000000000000000000000000000000000000008152600401610d0190612980565b60405180910390fd5b6000816005018660038110610d48577f4e487b7100000000000000000000000000000000000000000000000000000000600052603260045260246000fd5b600302018560038110610d84577f4e487b7100000000000000000000000000000000000000000000000000000000600052603260045260246000fd5b015414610dc6576040517f08c379a0000000000000000000000000000000000000000000000000000000008152600401610dbd90612a00565b60405180910390fd5b8060010160009054906101000a900473ffffffffffffffffffffffffffffffffffffffff1673ffffffffffffffffffffffffffffffffffffffff163373ffffffffffffffffffffffffffffffffffffffff161415610f49576001816005018660038110610e5c577f4e487b7100000000000000000000000000000000000000000000000000000000600052603260045260246000fd5b600302018560038110610e98577f4e487b7100000000000000000000000000000000000000000000000000000000600052603260045260246000fd5b01819055507fca88fa0b30c770c5b1dd5a0c1a6f3b51f1ea2ca4553c86c6c813da61b9574b28863387876004604051610ed5959493929190612b45565b60405180910390a18060020160009054906101000a900473ffffffffffffffffffffffffffffffffffffffff168160030160006101000a81548173ffffffffffffffffffffffffffffffffffffffff021916908373ffffffffffffffffffffffffffffffffffffffff160217905550611070565b6002816005018660038110610f87577f4e487b7100000000000000000000000000000000000000000000000000000000600052603260045260246000fd5b600302018560038110610fc3577f4e487b7100000000000000000000000000000000000000000000000000000000600052603260045260246000fd5b01819055507fca88fa0b30c770c5b1dd5a0c1a6f3b51f1ea2ca4553c86c6c813da61b9574b28863387876005604051611000959493929190612b45565b60405180910390a18060010160009054906101000a900473ffffffffffffffffffffffffffffffffffffffff168160030160006101000a81548173ffffffffffffffffffffffffffffffffffffffff021916908373ffffffffffffffffffffffffffffffffffffffff1602179055505b600061107b82611294565b90508082600e0160006101000a81548160ff021916908360048111156110ca577f4e487b7100000000000000000000000000000000000000000000000000000000600052602160045260246000fd5b021790555060016004811115611109577f4e487b7100000000000000000000000000000000000000000000000000000000600052602160045260246000fd5b82600e0160009054906101000a900460ff166004811115611153577f4e487b7100000000000000000000000000000000000000000000000000000000600052602160045260246000fd5b1480156111d15750600160009054906101000a900473ffffffffffffffffffffffffffffffffffffffff1673ffffffffffffffffffffffffffffffffffffffff168260020160009054906101000a900473ffffffffffffffffffffffffffffffffffffffff1673ffffffffffffffffffffffffffffffffffffffff16145b15611276576000600160009054906101000a900473ffffffffffffffffffffffffffffffffffffffff1690508073ffffffffffffffffffffffffffffffffffffffff1662248952846000015463fa7c9bcf60e01b6040518363ffffffff1660e01b8152600401611242929190612bc8565b600060405180830381600087803b15801561125c57600080fd5b505af1158015611270573d6000803e3d6000fd5b50505050505b81600e0160009054906101000a900460ff1693505050509392505050565b600080600090505b60038110156117255760008360050182600381106112e3577f4e487b7100000000000000000000000000000000000000000000000000000000600052603260045260246000fd5b60030201600060038110611320577f4e487b7100000000000000000000000000000000000000000000000000000000600052603260045260246000fd5b0154141580156114235750826005018160038110611367577f4e487b7100000000000000000000000000000000000000000000000000000000600052603260045260246000fd5b600302016001600381106113a4577f4e487b7100000000000000000000000000000000000000000000000000000000600052603260045260246000fd5b01548360050182600381106113e2577f4e487b7100000000000000000000000000000000000000000000000000000000600052603260045260246000fd5b6003020160006003811061141f577f4e487b7100000000000000000000000000000000000000000000000000000000600052603260045260246000fd5b0154145b80156115225750826005018160038110611466577f4e487b7100000000000000000000000000000000000000000000000000000000600052603260045260246000fd5b600302016002600381106114a3577f4e487b7100000000000000000000000000000000000000000000000000000000600052603260045260246000fd5b01548360050182600381106114e1577f4e487b7100000000000000000000000000000000000000000000000000000000600052603260045260246000fd5b6003020160016003811061151e577f4e487b7100000000000000000000000000000000000000000000000000000000600052603260045260246000fd5b0154145b15611712576001836005018260038110611565577f4e487b7100000000000000000000000000000000000000000000000000000000600052603260045260246000fd5b600302016000600381106115a2577f4e487b7100000000000000000000000000000000000000000000000000000000600052603260045260246000fd5b0154141561165e576000600390508360010160009054906101000a900473ffffffffffffffffffffffffffffffffffffffff168460040160006101000a81548173ffffffffffffffffffffffffffffffffffffffff021916908373ffffffffffffffffffffffffffffffffffffffff1602179055507f132b564c6f96092065580fd28989d181dfbbfe4aa2fb7fb1eda8af68ba3073e084600001548260405161164c929190612bf1565b60405180910390a180925050506125a5565b6000600490508360020160009054906101000a900473ffffffffffffffffffffffffffffffffffffffff168460040160006101000a81548173ffffffffffffffffffffffffffffffffffffffff021916908373ffffffffffffffffffffffffffffffffffffffff1602179055507f132b564c6f96092065580fd28989d181dfbbfe4aa2fb7fb1eda8af68ba3073e0846000015482604051611700929190612bf1565b60405180910390a180925050506125a5565b808061171d90612dae565b91505061129c565b5060005b6003811015611bb257600083600501600060038110611771577f4e487b7100000000000000000000000000000000000000000000000000000000600052603260045260246000fd5b6003020182600381106117ad577f4e487b7100000000000000000000000000000000000000000000000000000000600052603260045260246000fd5b0154141580156118b05750826005016001600381106117f5577f4e487b7100000000000000000000000000000000000000000000000000000000600052603260045260246000fd5b600302018160038110611831577f4e487b7100000000000000000000000000000000000000000000000000000000600052603260045260246000fd5b015483600501600060038110611870577f4e487b7100000000000000000000000000000000000000000000000000000000600052603260045260246000fd5b6003020182600381106118ac577f4e487b7100000000000000000000000000000000000000000000000000000000600052603260045260246000fd5b0154145b80156119af5750826005016002600381106118f4577f4e487b7100000000000000000000000000000000000000000000000000000000600052603260045260246000fd5b600302018160038110611930577f4e487b7100000000000000000000000000000000000000000000000000000000600052603260045260246000fd5b01548360050160016003811061196f577f4e487b7100000000000000000000000000000000000000000000000000000000600052603260045260246000fd5b6003020182600381106119ab577f4e487b7100000000000000000000000000000000000000000000000000000000600052603260045260246000fd5b0154145b15611b9f576001836005016000600381106119f3577f4e487b7100000000000000000000000000000000000000000000000000000000600052603260045260246000fd5b600302018260038110611a2f577f4e487b7100000000000000000000000000000000000000000000000000000000600052603260045260246000fd5b01541415611aeb576000600390508360010160009054906101000a900473ffffffffffffffffffffffffffffffffffffffff168460040160006101000a81548173ffffffffffffffffffffffffffffffffffffffff021916908373ffffffffffffffffffffffffffffffffffffffff1602179055507f132b564c6f96092065580fd28989d181dfbbfe4aa2fb7fb1eda8af68ba3073e0846000015482604051611ad9929190612bf1565b60405180910390a180925050506125a5565b6000600490508360020160009054906101000a900473ffffffffffffffffffffffffffffffffffffffff168460040160006101000a81548173ffffffffffffffffffffffffffffffffffffffff021916908373ffffffffffffffffffffffffffffffffffffffff1602179055507f132b564c6f96092065580fd28989d181dfbbfe4aa2fb7fb1eda8af68ba3073e0846000015482604051611b8d929190612bf1565b60405180910390a180925050506125a5565b8080611baa90612dae565b915050611729565b50600082600501600060038110611bf2577f4e487b7100000000000000000000000000000000000000000000000000000000600052603260045260246000fd5b60030201600060038110611c2f577f4e487b7100000000000000000000000000000000000000000000000000000000600052603260045260246000fd5b015414158015611d34575081600501600160038110611c77577f4e487b7100000000000000000000000000000000000000000000000000000000600052603260045260246000fd5b60030201600160038110611cb4577f4e487b7100000000000000000000000000000000000000000000000000000000600052603260045260246000fd5b015482600501600060038110611cf3577f4e487b7100000000000000000000000000000000000000000000000000000000600052603260045260246000fd5b60030201600060038110611d30577f4e487b7100000000000000000000000000000000000000000000000000000000600052603260045260246000fd5b0154145b8015611e35575081600501600260038110611d78577f4e487b7100000000000000000000000000000000000000000000000000000000600052603260045260246000fd5b60030201600260038110611db5577f4e487b7100000000000000000000000000000000000000000000000000000000600052603260045260246000fd5b015482600501600160038110611df4577f4e487b7100000000000000000000000000000000000000000000000000000000600052603260045260246000fd5b60030201600160038110611e31577f4e487b7100000000000000000000000000000000000000000000000000000000600052603260045260246000fd5b0154145b1561202457600182600501600060038110611e79577f4e487b7100000000000000000000000000000000000000000000000000000000600052603260045260246000fd5b60030201600060038110611eb6577f4e487b7100000000000000000000000000000000000000000000000000000000600052603260045260246000fd5b01541415611f71576000600390508260010160009054906101000a900473ffffffffffffffffffffffffffffffffffffffff168360040160006101000a81548173ffffffffffffffffffffffffffffffffffffffff021916908373ffffffffffffffffffffffffffffffffffffffff1602179055507f132b564c6f96092065580fd28989d181dfbbfe4aa2fb7fb1eda8af68ba3073e0836000015482604051611f60929190612bf1565b60405180910390a1809150506125a5565b6000600490508260020160009054906101000a900473ffffffffffffffffffffffffffffffffffffffff168360040160006101000a81548173ffffffffffffffffffffffffffffffffffffffff021916908373ffffffffffffffffffffffffffffffffffffffff1602179055507f132b564c6f96092065580fd28989d181dfbbfe4aa2fb7fb1eda8af68ba3073e0836000015482604051612013929190612bf1565b60405180910390a1809150506125a5565b600082600501600060038110612063577f4e487b7100000000000000000000000000000000000000000000000000000000600052603260045260246000fd5b600302016002600381106120a0577f4e487b7100000000000000000000000000000000000000000000000000000000600052603260045260246000fd5b0154141580156121a55750816005016001600381106120e8577f4e487b7100000000000000000000000000000000000000000000000000000000600052603260045260246000fd5b60030201600160038110612125577f4e487b7100000000000000000000000000000000000000000000000000000000600052603260045260246000fd5b015482600501600060038110612164577f4e487b7100000000000000000000000000000000000000000000000000000000600052603260045260246000fd5b600302016002600381106121a1577f4e487b7100000000000000000000000000000000000000000000000000000000600052603260045260246000fd5b0154145b80156122a65750816005016002600381106121e9577f4e487b7100000000000000000000000000000000000000000000000000000000600052603260045260246000fd5b60030201600060038110612226577f4e487b7100000000000000000000000000000000000000000000000000000000600052603260045260246000fd5b015482600501600160038110612265577f4e487b7100000000000000000000000000000000000000000000000000000000600052603260045260246000fd5b600302016001600381106122a2577f4e487b7100000000000000000000000000000000000000000000000000000000600052603260045260246000fd5b0154145b15612495576001826005016000600381106122ea577f4e487b7100000000000000000000000000000000000000000000000000000000600052603260045260246000fd5b60030201600260038110612327577f4e487b7100000000000000000000000000000000000000000000000000000000600052603260045260246000fd5b015414156123e2576000600390508260010160009054906101000a900473ffffffffffffffffffffffffffffffffffffffff168360040160006101000a81548173ffffffffffffffffffffffffffffffffffffffff021916908373ffffffffffffffffffffffffffffffffffffffff1602179055507f132b564c6f96092065580fd28989d181dfbbfe4aa2fb7fb1eda8af68ba3073e08360000154826040516123d1929190612bf1565b60405180910390a1809150506125a5565b6000600490508260020160009054906101000a900473ffffffffffffffffffffffffffffffffffffffff168360040160006101000a81548173ffffffffffffffffffffffffffffffffffffffff021916908373ffffffffffffffffffffffffffffffffffffffff1602179055507f132b564c6f96092065580fd28989d181dfbbfe4aa2fb7fb1eda8af68ba3073e0836000015482604051612484929190612bf1565b60405180910390a1809150506125a5565b60005b60038110156125615760005b600381101561254d5760008460050183600381106124eb577f4e487b7100000000000000000000000000000000000000000000000000000000600052603260045260246000fd5b600302018260038110612527577f4e487b7100000000000000000000000000000000000000000000000000000000600052603260045260246000fd5b0154141561253a576001925050506125a5565b808061254590612dae565b9150506124a4565b50808061255990612dae565b915050612498565b507f132b564c6f96092065580fd28989d181dfbbfe4aa2fb7fb1eda8af68ba3073e082600001546002604051612598929190612bf1565b60405180910390a1600290505b919050565b6000813590506125b98161301d565b92915050565b6000813590506125ce81613034565b92915050565b6000602082840312156125e657600080fd5b60006125f4848285016125aa565b91505092915050565b60006020828403121561260f57600080fd5b600061261d848285016125bf565b91505092915050565b6000806040838503121561263957600080fd5b6000612647858286016125bf565b9250506020612658858286016125aa565b9150509250929050565b60008060006060848603121561267757600080fd5b6000612685868287016125bf565b9350506020612696868287016125bf565b92505060406126a7868287016125bf565b9150509250925092565b6126ba81612cb0565b82525050565b6126c981612cc2565b82525050565b6126d881612cce565b82525050565b6126e781612d37565b82525050565b60006126f882612c2f565b6127028185612c45565b9350612712818560208601612d49565b61271b81612e84565b840191505092915050565b6000815461273381612d7c565b61273d8186612c45565b94506001821660008114612758576001811461276a5761279d565b60ff198316865260208601935061279d565b61277385612c1a565b60005b8381101561279557815481890152600182019150602081019050612776565b808801955050505b50505092915050565b60006127b3601283612c45565b91506127be82612e95565b602082019050919050565b60006127d6600d83612c45565b91506127e182612ebe565b602082019050919050565b60006127f9600e83612c45565b915061280482612ee7565b602082019050919050565b600061281c600f83612c45565b915061282782612f10565b602082019050919050565b600061283f601283612c45565b915061284a82612f39565b602082019050919050565b6000612862601483612c45565b915061286d82612f62565b602082019050919050565b6000612885600083612c3a565b915061289082612f8b565b600082019050919050565b60006128a8601783612c45565b91506128b382612f8e565b602082019050919050565b60006128cb601683612c45565b91506128d682612fb7565b602082019050919050565b60006128ee601483612c45565b91506128f982612fe0565b602082019050919050565b61290d81612d2d565b82525050565b600061291e82612878565b9150819050919050565b600060208201905061293d60008301846126b1565b92915050565b600060208201905061295860008301846126de565b92915050565b6000602082019050818103600083015261297881846126ed565b905092915050565b60006020820190508181036000830152612999816127a6565b9050919050565b600060208201905081810360008301526129b9816127c9565b9050919050565b600060208201905081810360008301526129d9816127ec565b9050919050565b600060208201905081810360008301526129f98161280f565b9050919050565b60006020820190508181036000830152612a1981612832565b9050919050565b60006020820190508181036000830152612a3981612855565b9050919050565b60006020820190508181036000830152612a598161289b565b9050919050565b60006020820190508181036000830152612a79816128be565b9050919050565b60006020820190508181036000830152612a99816128e1565b9050919050565b6000602082019050612ab56000830184612904565b92915050565b6000604082019050612ad06000830185612904565b612add60208301846126b1565b9392505050565b600060c082019050612af96000830189612904565b612b0660208301886126b1565b612b1360408301876126b1565b612b2060608301866126b1565b612b2d60808301856126b1565b612b3a60a08301846126de565b979650505050505050565b600060a082019050612b5a6000830188612904565b612b6760208301876126b1565b612b746040830186612904565b612b816060830185612904565b8181036080830152612b938184612726565b90509695505050505050565b6000604082019050612bb46000830185612904565b612bc160208301846126c0565b9392505050565b6000604082019050612bdd6000830185612904565b612bea60208301846126cf565b9392505050565b6000604082019050612c066000830185612904565b612c1360208301846126de565b9392505050565b60008190508160005260206000209050919050565b600081519050919050565b600081905092915050565b600082825260208201905092915050565b6000612c6182612d2d565b9150612c6c83612d2d565b9250817fffffffffffffffffffffffffffffffffffffffffffffffffffffffffffffffff0483118215151615612ca557612ca4612df7565b5b828202905092915050565b6000612cbb82612d0d565b9050919050565b60008115159050919050565b60007fffffffff0000000000000000000000000000000000000000000000000000000082169050919050565b6000819050612d0882613009565b919050565b600073ffffffffffffffffffffffffffffffffffffffff82169050919050565b6000819050919050565b6000612d4282612cfa565b9050919050565b60005b83811015612d67578082015181840152602081019050612d4c565b83811115612d76576000848401525b50505050565b60006002820490506001821680612d9457607f821691505b60208210811415612da857612da7612e55565b5b50919050565b6000612db982612d2d565b91507fffffffffffffffffffffffffffffffffffffffffffffffffffffffffffffffff821415612dec57612deb612df7565b5b600182019050919050565b7f4e487b7100000000000000000000000000000000000000000000000000000000600052601160045260246000fd5b7f4e487b7100000000000000000000000000000000000000000000000000000000600052602160045260246000fd5b7f4e487b7100000000000000000000000000000000000000000000000000000000600052602260045260246000fd5b6000601f19601f8301169050919050565b7f4f7574206f6620626f756e6473206d6f76650000000000000000000000000000600082015250565b7f4e6f7420796f7572207475726e00000000000000000000000000000000000000600082015250565b7f5061796d656e74206661696c6564000000000000000000000000000000000000600082015250565b7f52656d69742067616d6520636f73740000000000000000000000000000000000600082015250565b7f53706f7420616c72656164792074616b656e0000000000000000000000000000600082015250565b7f47616d65206e6f7420696e2070726f6772657373000000000000000000000000600082015250565b50565b7f47616d6520646f6573206e6f7420657869737420796574000000000000000000600082015250565b7f4e6f7420656c696769626c6520666f72207072697a6500000000000000000000600082015250565b7f47616d6520616c72656164792073746172746564000000000000000000000000600082015250565b6005811061301a57613019612e26565b5b50565b61302681612cc2565b811461303157600080fd5b50565b61303d81612d2d565b811461304857600080fd5b5056fea2646970667358221220b3c61c1410c014034ee2e533427b982318963150ffebfc6ecb7b93b4792e1c2464736f6c63430008040033",
  "linkReferences": {},
  "deployedLinkReferences": {}
}