{
  "_format": "hh-sol-artifact-1",
  "contractName": "TicTacToe",
  "sourceName": "contracts/TicTacToe.sol",
  "abi": [
    {
      "inputs": [
        {
          "internalType": "address",
          "name": "model_",
          "type": "address"
        },
        {
          "internalType": "uint256",
          "name": "gameCost_",
          "type": "uint256"
        }
      ],
      "stateMutability": "nonpayable",
      "type": "constructor"
    },
    {
      "anonymous": false,
      "inputs": [
        {
          "indexed": false,
          "internalType": "uint256",
          "name": "gameId",
          "type": "uint256"
        },
        {
          "indexed": false,
          "internalType": "address",
          "name": "creator",
          "type": "address"
        }
      ],
      "name": "GameCreated",
      "type": "event"
    },
    {
      "anonymous": false,
      "inputs": [
        {
          "indexed": false,
          "internalType": "uint256",
          "name": "gameId",
          "type": "uint256"
        },
        {
          "indexed": false,
          "internalType": "address",
          "name": "joiner",
          "type": "address"
        }
      ],
      "name": "GameJoined",
      "type": "event"
    },
    {
      "anonymous": false,
      "inputs": [
        {
          "indexed": false,
          "internalType": "uint256",
          "name": "gameId",
          "type": "uint256"
        },
        {
          "indexed": false,
          "internalType": "enum TicTacToe.GameStatus",
          "name": "gameStatus",
          "type": "uint8"
        }
      ],
      "name": "GameOver",
      "type": "event"
    },
    {
      "anonymous": false,
      "inputs": [
        {
          "indexed": false,
          "internalType": "uint256",
          "name": "gameId",
          "type": "uint256"
        },
        {
          "indexed": false,
          "internalType": "address",
          "name": "mover",
          "type": "address"
        },
        {
          "indexed": false,
          "internalType": "uint256",
          "name": "xLoc",
          "type": "uint256"
        },
        {
          "indexed": false,
          "internalType": "uint256",
          "name": "yLoc",
          "type": "uint256"
        },
        {
          "indexed": false,
          "internalType": "string",
          "name": "symbol",
          "type": "string"
        }
      ],
      "name": "Move",
      "type": "event"
    },
    {
      "inputs": [
        {
          "internalType": "bool",
          "name": "autoplay",
          "type": "bool"
        }
      ],
      "name": "createGame",
      "outputs": [
        {
          "internalType": "uint256",
          "name": "",
          "type": "uint256"
        }
      ],
      "stateMutability": "payable",
      "type": "function"
    },
    {
      "inputs": [
        {
          "internalType": "uint256",
          "name": "",
          "type": "uint256"
        }
      ],
      "name": "games",
      "outputs": [
        {
          "internalType": "uint256",
          "name": "id",
          "type": "uint256"
        },
        {
          "internalType": "uint256",
          "name": "playerToMove",
          "type": "uint256"
        },
        {
          "internalType": "address",
          "name": "playerOne",
          "type": "address"
        },
        {
          "internalType": "address",
          "name": "playerTwo",
          "type": "address"
        },
        {
          "internalType": "address",
          "name": "winner",
          "type": "address"
        },
        {
          "internalType": "enum TicTacToe.GameStatus",
          "name": "status",
          "type": "uint8"
        }
      ],
      "stateMutability": "view",
      "type": "function"
    },
    {
      "inputs": [
        {
          "internalType": "uint256",
          "name": "gameId",
          "type": "uint256"
        }
      ],
      "name": "getGameBoard",
      "outputs": [
        {
          "internalType": "uint256[3][3]",
          "name": "",
          "type": "uint256[3][3]"
        }
      ],
      "stateMutability": "view",
      "type": "function"
    },
    {
      "inputs": [
        {
          "internalType": "uint256",
          "name": "gameId",
          "type": "uint256"
        },
        {
          "internalType": "bool",
          "name": "autoplay",
          "type": "bool"
        }
      ],
      "name": "joinGame",
      "outputs": [],
      "stateMutability": "payable",
      "type": "function"
    },
    {
      "inputs": [],
      "name": "latestGameId",
      "outputs": [
        {
          "internalType": "uint256",
          "name": "",
          "type": "uint256"
        }
      ],
      "stateMutability": "view",
      "type": "function"
    },
    {
      "inputs": [],
      "name": "model",
      "outputs": [
        {
          "internalType": "address",
          "name": "",
          "type": "address"
        }
      ],
      "stateMutability": "view",
      "type": "function"
    },
    {
      "inputs": [
        {
          "internalType": "uint256",
          "name": "gameId",
          "type": "uint256"
        },
        {
          "internalType": "bytes",
          "name": "location",
          "type": "bytes"
        }
      ],
      "name": "move",
      "outputs": [
        {
          "internalType": "enum TicTacToe.GameStatus",
          "name": "",
          "type": "uint8"
        }
      ],
      "stateMutability": "nonpayable",
      "type": "function"
    },
    {
      "inputs": [],
      "name": "playerOneSymbol",
      "outputs": [
        {
          "internalType": "string",
          "name": "",
          "type": "string"
        }
      ],
      "stateMutability": "view",
      "type": "function"
    },
    {
      "inputs": [],
      "name": "playerTwoSymbol",
      "outputs": [
        {
          "internalType": "string",
          "name": "",
          "type": "string"
        }
      ],
      "stateMutability": "view",
      "type": "function"
    },
    {
      "inputs": [
        {
          "internalType": "uint256",
          "name": "gameId",
          "type": "uint256"
        }
      ],
      "name": "withdraw",
      "outputs": [],
      "stateMutability": "nonpayable",
      "type": "function"
    }
  ],
  "bytecode": "0x60806040523480156200001157600080fd5b5060405162003a2738038062003a27833981810160405281019062000037919062000241565b336000806101000a81548173ffffffffffffffffffffffffffffffffffffffff021916908373ffffffffffffffffffffffffffffffffffffffff16021790555081600160006101000a81548173ffffffffffffffffffffffffffffffffffffffff021916908373ffffffffffffffffffffffffffffffffffffffff160217905550806002819055506040518060400160405280600181526020017f5800000000000000000000000000000000000000000000000000000000000000815250600490805190602001906200010c92919062000163565b506040518060400160405280600181526020017f4f00000000000000000000000000000000000000000000000000000000000000815250600590805190602001906200015a92919062000163565b50505062000359565b8280546200017190620002c0565b90600052602060002090601f016020900481019282620001955760008555620001e1565b82601f10620001b057805160ff1916838001178555620001e1565b82800160010185558215620001e1579182015b82811115620001e0578251825591602001919060010190620001c3565b5b509050620001f09190620001f4565b5090565b5b808211156200020f576000816000905550600101620001f5565b5090565b600081519050620002248162000325565b92915050565b6000815190506200023b816200033f565b92915050565b600080604083850312156200025557600080fd5b6000620002658582860162000213565b925050602062000278858286016200022a565b9150509250929050565b60006200028f8262000296565b9050919050565b600073ffffffffffffffffffffffffffffffffffffffff82169050919050565b6000819050919050565b60006002820490506001821680620002d957607f821691505b60208210811415620002f057620002ef620002f6565b5b50919050565b7f4e487b7100000000000000000000000000000000000000000000000000000000600052602260045260246000fd5b620003308162000282565b81146200033c57600080fd5b50565b6200034a81620002b6565b81146200035657600080fd5b50565b6136be80620003696000396000f3fe6080604052600436106100915760003560e01c8063663fde9411610059578063663fde94146101a657806379df837a146101d157806394517b90146101fc578063a35203c414610218578063b58fc78b1461024857610091565b80630ad9d05214610096578063117a5b90146100c15780631a2361e7146101035780632e1a7d4d14610140578063624454d314610169575b600080fd5b3480156100a257600080fd5b506100ab610273565b6040516100b89190612dca565b60405180910390f35b3480156100cd57600080fd5b506100e860048036038101906100e3919061294e565b610299565b6040516100fa96959493929190613097565b60405180910390f35b34801561010f57600080fd5b5061012a6004803603810190610125919061294e565b610342565b6040516101379190612de5565b60405180910390f35b34801561014c57600080fd5b506101676004803603810190610162919061294e565b610422565b005b34801561017557600080fd5b50610190600480360381019061018b91906129b3565b6105ae565b60405161019d9190612e01565b60405180910390f35b3480156101b257600080fd5b506101bb610e8d565b6040516101c89190612e1c565b60405180910390f35b3480156101dd57600080fd5b506101e6610f1b565b6040516101f39190612e1c565b60405180910390f35b61021660048036038101906102119190612977565b610fa9565b005b610232600480360381019061022d9190612925565b611353565b60405161023f9190612f7e565b60405180910390f35b34801561025457600080fd5b5061025d6114d5565b60405161026a9190612f7e565b60405180910390f35b600160009054906101000a900473ffffffffffffffffffffffffffffffffffffffff1681565b60066020528060005260406000206000915090508060000154908060010154908060020160009054906101000a900473ffffffffffffffffffffffffffffffffffffffff16908060030160009054906101000a900473ffffffffffffffffffffffffffffffffffffffff16908060040160009054906101000a900473ffffffffffffffffffffffffffffffffffffffff169080600e0160009054906101000a900460ff16905086565b61034a6127f1565b81600354811115610390576040517f08c379a000000000000000000000000000000000000000000000000000000000815260040161038790612f1e565b60405180910390fd5b60066000848152602001908152602001600020600501600380602002604051908101604052809291906000905b8282101561041657838260030201600380602002604051908101604052809291908260038015610402576020028201915b8154815260200190600101908083116103ee575b5050505050815260200190600101906103bd565b50505050915050919050565b60006006600083815260200190815260200160002090503373ffffffffffffffffffffffffffffffffffffffff168160040160009054906101000a900473ffffffffffffffffffffffffffffffffffffffff1673ffffffffffffffffffffffffffffffffffffffff16146104cb576040517f08c379a00000000000000000000000000000000000000000000000000000000081526004016104c290612f3e565b60405180910390fd5b60008160040160009054906101000a900473ffffffffffffffffffffffffffffffffffffffff1673ffffffffffffffffffffffffffffffffffffffff16600254600261051791906131e4565b60405161052390612db5565b60006040518083038185875af1925050503d8060008114610560576040519150601f19603f3d011682016040523d82523d6000602084013e610565565b606091505b50509050806105a9576040517f08c379a00000000000000000000000000000000000000000000000000000000081526004016105a090612e9e565b60405180910390fd5b505050565b6000826003548111156105f6576040517f08c379a00000000000000000000000000000000000000000000000000000000081526004016105ed90612f1e565b60405180910390fd5b600060066000868152602001908152602001600020905060016004811115610647577f4e487b7100000000000000000000000000000000000000000000000000000000600052602160045260246000fd5b81600e0160009054906101000a900460ff166004811115610691577f4e487b7100000000000000000000000000000000000000000000000000000000600052602160045260246000fd5b146106d1576040517f08c379a00000000000000000000000000000000000000000000000000000000081526004016106c890612efe565b60405180910390fd5b600181600101541415610775573373ffffffffffffffffffffffffffffffffffffffff168160020160009054906101000a900473ffffffffffffffffffffffffffffffffffffffff1673ffffffffffffffffffffffffffffffffffffffff1614610770576040517f08c379a000000000000000000000000000000000000000000000000000000000815260040161076790612e7e565b60405180910390fd5b61099b565b600160009054906101000a900473ffffffffffffffffffffffffffffffffffffffff1673ffffffffffffffffffffffffffffffffffffffff168160030160009054906101000a900473ffffffffffffffffffffffffffffffffffffffff1673ffffffffffffffffffffffffffffffffffffffff161415610907576000600160009054906101000a900473ffffffffffffffffffffffffffffffffffffffff1690503373ffffffffffffffffffffffffffffffffffffffff168173ffffffffffffffffffffffffffffffffffffffff16637dc0d1d06040518163ffffffff1660e01b815260040160206040518083038186803b15801561087357600080fd5b505afa158015610887573d6000803e3d6000fd5b505050506040513d601f19601f820116820180604052508101906108ab91906128fc565b73ffffffffffffffffffffffffffffffffffffffff1614610901576040517f08c379a00000000000000000000000000000000000000000000000000000000081526004016108f890612e7e565b60405180910390fd5b5061099a565b3373ffffffffffffffffffffffffffffffffffffffff168160030160009054906101000a900473ffffffffffffffffffffffffffffffffffffffff1673ffffffffffffffffffffffffffffffffffffffff1614610999576040517f08c379a000000000000000000000000000000000000000000000000000000000815260040161099090612e7e565b60405180910390fd5b5b5b600080858060200190518101906109b29190612a07565b91509150600282111580156109c8575060028111155b610a07576040517f08c379a00000000000000000000000000000000000000000000000000000000081526004016109fe90612e3e565b60405180910390fd5b6000836005018360038110610a45577f4e487b7100000000000000000000000000000000000000000000000000000000600052603260045260246000fd5b600302018260038110610a81577f4e487b7100000000000000000000000000000000000000000000000000000000600052603260045260246000fd5b015414610ac3576040517f08c379a0000000000000000000000000000000000000000000000000000000008152600401610aba90612ede565b60405180910390fd5b600183600101541415610b9e576001836005018360038110610b0e577f4e487b7100000000000000000000000000000000000000000000000000000000600052603260045260246000fd5b600302018260038110610b4a577f4e487b7100000000000000000000000000000000000000000000000000000000600052603260045260246000fd5b01819055507fca88fa0b30c770c5b1dd5a0c1a6f3b51f1ea2ca4553c86c6c813da61b9574b28873384846004604051610b87959493929190612fc2565b60405180910390a160028360010181905550610c68565b6002836005018360038110610bdc577f4e487b7100000000000000000000000000000000000000000000000000000000600052603260045260246000fd5b600302018260038110610c18577f4e487b7100000000000000000000000000000000000000000000000000000000600052603260045260246000fd5b01819055507fca88fa0b30c770c5b1dd5a0c1a6f3b51f1ea2ca4553c86c6c813da61b9574b28873384846005604051610c55959493929190612fc2565b60405180910390a1600183600101819055505b6000610c73846114db565b90508084600e0160006101000a81548160ff02191690836004811115610cc2577f4e487b7100000000000000000000000000000000000000000000000000000000600052602160045260246000fd5b021790555060016004811115610d01577f4e487b7100000000000000000000000000000000000000000000000000000000600052602160045260246000fd5b84600e0160009054906101000a900460ff166004811115610d4b577f4e487b7100000000000000000000000000000000000000000000000000000000600052602160045260246000fd5b148015610dc95750600160009054906101000a900473ffffffffffffffffffffffffffffffffffffffff1673ffffffffffffffffffffffffffffffffffffffff168460030160009054906101000a900473ffffffffffffffffffffffffffffffffffffffff1673ffffffffffffffffffffffffffffffffffffffff16145b15610e6e576000600160009054906101000a900473ffffffffffffffffffffffffffffffffffffffff1690508073ffffffffffffffffffffffffffffffffffffffff1662248952866000015463624454d360e01b6040518363ffffffff1660e01b8152600401610e3a929190613045565b600060405180830381600087803b158015610e5457600080fd5b505af1158015610e68573d6000803e3d6000fd5b50505050505b83600e0160009054906101000a900460ff169550505050505092915050565b60058054610e9a90613319565b80601f0160208091040260200160405190810160405280929190818152602001828054610ec690613319565b8015610f135780601f10610ee857610100808354040283529160200191610f13565b820191906000526020600020905b815481529060010190602001808311610ef657829003601f168201915b505050505081565b60048054610f2890613319565b80601f0160208091040260200160405190810160405280929190818152602001828054610f5490613319565b8015610fa15780601f10610f7657610100808354040283529160200191610fa1565b820191906000526020600020905b815481529060010190602001808311610f8457829003601f168201915b505050505081565b81600354811115610fef576040517f08c379a0000000000000000000000000000000000000000000000000000000008152600401610fe690612f1e565b60405180910390fd5b6002543414611033576040517f08c379a000000000000000000000000000000000000000000000000000000000815260040161102a90612ebe565b60405180910390fd5b6000600660008581526020019081526020016000209050600073ffffffffffffffffffffffffffffffffffffffff168160030160009054906101000a900473ffffffffffffffffffffffffffffffffffffffff1673ffffffffffffffffffffffffffffffffffffffff16146110dd576040517f08c379a00000000000000000000000000000000000000000000000000000000081526004016110d490612f5e565b60405180910390fd5b8215611273573073ffffffffffffffffffffffffffffffffffffffff163373ffffffffffffffffffffffffffffffffffffffff1614611151576040517f08c379a000000000000000000000000000000000000000000000000000000000815260040161114890612e5e565b60405180910390fd5b600160009054906101000a900473ffffffffffffffffffffffffffffffffffffffff168160030160006101000a81548173ffffffffffffffffffffffffffffffffffffffff021916908373ffffffffffffffffffffffffffffffffffffffff16021790555060018160010181905550600181600e0160006101000a81548160ff0219169083600481111561120e577f4e487b7100000000000000000000000000000000000000000000000000000000600052602160045260246000fd5b02179055507f45c4f9cbafe186141862608c493f28b823fde4c2142bedc3f5169961a73fdd2284600160009054906101000a900473ffffffffffffffffffffffffffffffffffffffff16604051611266929190612f99565b60405180910390a161134d565b338160030160006101000a81548173ffffffffffffffffffffffffffffffffffffffff021916908373ffffffffffffffffffffffffffffffffffffffff16021790555060018160010181905550600181600e0160006101000a81548160ff0219169083600481111561130e577f4e487b7100000000000000000000000000000000000000000000000000000000600052602160045260246000fd5b02179055507f45c4f9cbafe186141862608c493f28b823fde4c2142bedc3f5169961a73fdd228433604051611344929190612f99565b60405180910390a15b50505050565b60006002543414611399576040517f08c379a000000000000000000000000000000000000000000000000000000000815260040161139090612ebe565b60405180910390fd5b600360008154809291906113ac9061337c565b9190505550600060066000600354815260200190815260200160002090506003548160000181905550338160020160006101000a81548173ffffffffffffffffffffffffffffffffffffffff021916908373ffffffffffffffffffffffffffffffffffffffff1602179055507fc3e0f84839dc888c892a013d10c8f9d6dc05a21a879d0ce468ca558013e9121c6003543360405161144b929190612f99565b60405180910390a182156114ca573073ffffffffffffffffffffffffffffffffffffffff166394517b9060035460016040518363ffffffff1660e01b815260040161149792919061301c565b600060405180830381600087803b1580156114b157600080fd5b505af11580156114c5573d6000803e3d6000fd5b505050505b600354915050919050565b60035481565b600080600090505b600381101561196c57600083600501826003811061152a577f4e487b7100000000000000000000000000000000000000000000000000000000600052603260045260246000fd5b60030201600060038110611567577f4e487b7100000000000000000000000000000000000000000000000000000000600052603260045260246000fd5b01541415801561166a57508260050181600381106115ae577f4e487b7100000000000000000000000000000000000000000000000000000000600052603260045260246000fd5b600302016001600381106115eb577f4e487b7100000000000000000000000000000000000000000000000000000000600052603260045260246000fd5b0154836005018260038110611629577f4e487b7100000000000000000000000000000000000000000000000000000000600052603260045260246000fd5b60030201600060038110611666577f4e487b7100000000000000000000000000000000000000000000000000000000600052603260045260246000fd5b0154145b801561176957508260050181600381106116ad577f4e487b7100000000000000000000000000000000000000000000000000000000600052603260045260246000fd5b600302016002600381106116ea577f4e487b7100000000000000000000000000000000000000000000000000000000600052603260045260246000fd5b0154836005018260038110611728577f4e487b7100000000000000000000000000000000000000000000000000000000600052603260045260246000fd5b60030201600160038110611765577f4e487b7100000000000000000000000000000000000000000000000000000000600052603260045260246000fd5b0154145b156119595760018360050182600381106117ac577f4e487b7100000000000000000000000000000000000000000000000000000000600052603260045260246000fd5b600302016000600381106117e9577f4e487b7100000000000000000000000000000000000000000000000000000000600052603260045260246000fd5b015414156118a5576000600390508360020160009054906101000a900473ffffffffffffffffffffffffffffffffffffffff168460040160006101000a81548173ffffffffffffffffffffffffffffffffffffffff021916908373ffffffffffffffffffffffffffffffffffffffff1602179055507f132b564c6f96092065580fd28989d181dfbbfe4aa2fb7fb1eda8af68ba3073e084600001548260405161189392919061306e565b60405180910390a180925050506127ec565b6000600490508360030160009054906101000a900473ffffffffffffffffffffffffffffffffffffffff168460040160006101000a81548173ffffffffffffffffffffffffffffffffffffffff021916908373ffffffffffffffffffffffffffffffffffffffff1602179055507f132b564c6f96092065580fd28989d181dfbbfe4aa2fb7fb1eda8af68ba3073e084600001548260405161194792919061306e565b60405180910390a180925050506127ec565b80806119649061337c565b9150506114e3565b5060005b6003811015611df9576000836005016000600381106119b8577f4e487b7100000000000000000000000000000000000000000000000000000000600052603260045260246000fd5b6003020182600381106119f4577f4e487b7100000000000000000000000000000000000000000000000000000000600052603260045260246000fd5b015414158015611af7575082600501600160038110611a3c577f4e487b7100000000000000000000000000000000000000000000000000000000600052603260045260246000fd5b600302018160038110611a78577f4e487b7100000000000000000000000000000000000000000000000000000000600052603260045260246000fd5b015483600501600060038110611ab7577f4e487b7100000000000000000000000000000000000000000000000000000000600052603260045260246000fd5b600302018260038110611af3577f4e487b7100000000000000000000000000000000000000000000000000000000600052603260045260246000fd5b0154145b8015611bf6575082600501600260038110611b3b577f4e487b7100000000000000000000000000000000000000000000000000000000600052603260045260246000fd5b600302018160038110611b77577f4e487b7100000000000000000000000000000000000000000000000000000000600052603260045260246000fd5b015483600501600160038110611bb6577f4e487b7100000000000000000000000000000000000000000000000000000000600052603260045260246000fd5b600302018260038110611bf2577f4e487b7100000000000000000000000000000000000000000000000000000000600052603260045260246000fd5b0154145b15611de657600183600501600060038110611c3a577f4e487b7100000000000000000000000000000000000000000000000000000000600052603260045260246000fd5b600302018260038110611c76577f4e487b7100000000000000000000000000000000000000000000000000000000600052603260045260246000fd5b01541415611d32576000600390508360020160009054906101000a900473ffffffffffffffffffffffffffffffffffffffff168460040160006101000a81548173ffffffffffffffffffffffffffffffffffffffff021916908373ffffffffffffffffffffffffffffffffffffffff1602179055507f132b564c6f96092065580fd28989d181dfbbfe4aa2fb7fb1eda8af68ba3073e0846000015482604051611d2092919061306e565b60405180910390a180925050506127ec565b6000600490508360030160009054906101000a900473ffffffffffffffffffffffffffffffffffffffff168460040160006101000a81548173ffffffffffffffffffffffffffffffffffffffff021916908373ffffffffffffffffffffffffffffffffffffffff1602179055507f132b564c6f96092065580fd28989d181dfbbfe4aa2fb7fb1eda8af68ba3073e0846000015482604051611dd492919061306e565b60405180910390a180925050506127ec565b8080611df19061337c565b915050611970565b50600082600501600060038110611e39577f4e487b7100000000000000000000000000000000000000000000000000000000600052603260045260246000fd5b60030201600060038110611e76577f4e487b7100000000000000000000000000000000000000000000000000000000600052603260045260246000fd5b015414158015611f7b575081600501600160038110611ebe577f4e487b7100000000000000000000000000000000000000000000000000000000600052603260045260246000fd5b60030201600160038110611efb577f4e487b7100000000000000000000000000000000000000000000000000000000600052603260045260246000fd5b015482600501600060038110611f3a577f4e487b7100000000000000000000000000000000000000000000000000000000600052603260045260246000fd5b60030201600060038110611f77577f4e487b7100000000000000000000000000000000000000000000000000000000600052603260045260246000fd5b0154145b801561207c575081600501600260038110611fbf577f4e487b7100000000000000000000000000000000000000000000000000000000600052603260045260246000fd5b60030201600260038110611ffc577f4e487b7100000000000000000000000000000000000000000000000000000000600052603260045260246000fd5b01548260050160016003811061203b577f4e487b7100000000000000000000000000000000000000000000000000000000600052603260045260246000fd5b60030201600160038110612078577f4e487b7100000000000000000000000000000000000000000000000000000000600052603260045260246000fd5b0154145b1561226b576001826005016000600381106120c0577f4e487b7100000000000000000000000000000000000000000000000000000000600052603260045260246000fd5b600302016000600381106120fd577f4e487b7100000000000000000000000000000000000000000000000000000000600052603260045260246000fd5b015414156121b8576000600390508260020160009054906101000a900473ffffffffffffffffffffffffffffffffffffffff168360040160006101000a81548173ffffffffffffffffffffffffffffffffffffffff021916908373ffffffffffffffffffffffffffffffffffffffff1602179055507f132b564c6f96092065580fd28989d181dfbbfe4aa2fb7fb1eda8af68ba3073e08360000154826040516121a792919061306e565b60405180910390a1809150506127ec565b6000600490508260030160009054906101000a900473ffffffffffffffffffffffffffffffffffffffff168360040160006101000a81548173ffffffffffffffffffffffffffffffffffffffff021916908373ffffffffffffffffffffffffffffffffffffffff1602179055507f132b564c6f96092065580fd28989d181dfbbfe4aa2fb7fb1eda8af68ba3073e083600001548260405161225a92919061306e565b60405180910390a1809150506127ec565b6000826005016000600381106122aa577f4e487b7100000000000000000000000000000000000000000000000000000000600052603260045260246000fd5b600302016002600381106122e7577f4e487b7100000000000000000000000000000000000000000000000000000000600052603260045260246000fd5b0154141580156123ec57508160050160016003811061232f577f4e487b7100000000000000000000000000000000000000000000000000000000600052603260045260246000fd5b6003020160016003811061236c577f4e487b7100000000000000000000000000000000000000000000000000000000600052603260045260246000fd5b0154826005016000600381106123ab577f4e487b7100000000000000000000000000000000000000000000000000000000600052603260045260246000fd5b600302016002600381106123e8577f4e487b7100000000000000000000000000000000000000000000000000000000600052603260045260246000fd5b0154145b80156124ed575081600501600260038110612430577f4e487b7100000000000000000000000000000000000000000000000000000000600052603260045260246000fd5b6003020160006003811061246d577f4e487b7100000000000000000000000000000000000000000000000000000000600052603260045260246000fd5b0154826005016001600381106124ac577f4e487b7100000000000000000000000000000000000000000000000000000000600052603260045260246000fd5b600302016001600381106124e9577f4e487b7100000000000000000000000000000000000000000000000000000000600052603260045260246000fd5b0154145b156126dc57600182600501600060038110612531577f4e487b7100000000000000000000000000000000000000000000000000000000600052603260045260246000fd5b6003020160026003811061256e577f4e487b7100000000000000000000000000000000000000000000000000000000600052603260045260246000fd5b01541415612629576000600390508260020160009054906101000a900473ffffffffffffffffffffffffffffffffffffffff168360040160006101000a81548173ffffffffffffffffffffffffffffffffffffffff021916908373ffffffffffffffffffffffffffffffffffffffff1602179055507f132b564c6f96092065580fd28989d181dfbbfe4aa2fb7fb1eda8af68ba3073e083600001548260405161261892919061306e565b60405180910390a1809150506127ec565b6000600490508260030160009054906101000a900473ffffffffffffffffffffffffffffffffffffffff168360040160006101000a81548173ffffffffffffffffffffffffffffffffffffffff021916908373ffffffffffffffffffffffffffffffffffffffff1602179055507f132b564c6f96092065580fd28989d181dfbbfe4aa2fb7fb1eda8af68ba3073e08360000154826040516126cb92919061306e565b60405180910390a1809150506127ec565b60005b60038110156127a85760005b6003811015612794576000846005018360038110612732577f4e487b7100000000000000000000000000000000000000000000000000000000600052603260045260246000fd5b60030201826003811061276e577f4e487b7100000000000000000000000000000000000000000000000000000000600052603260045260246000fd5b01541415612781576001925050506127ec565b808061278c9061337c565b9150506126eb565b5080806127a09061337c565b9150506126df565b507f132b564c6f96092065580fd28989d181dfbbfe4aa2fb7fb1eda8af68ba3073e0826000015460026040516127df92919061306e565b60405180910390a1600290505b919050565b60405180606001604052806003905b61280861281e565b8152602001906001900390816128005790505090565b6040518060600160405280600390602082028036833780820191505090505090565b600061285361284e8461311d565b6130f8565b90508281526020810184848401111561286b57600080fd5b6128768482856132d7565b509392505050565b60008151905061288d81613643565b92915050565b6000813590506128a28161365a565b92915050565b600082601f8301126128b957600080fd5b81356128c9848260208601612840565b91505092915050565b6000813590506128e181613671565b92915050565b6000815190506128f681613671565b92915050565b60006020828403121561290e57600080fd5b600061291c8482850161287e565b91505092915050565b60006020828403121561293757600080fd5b600061294584828501612893565b91505092915050565b60006020828403121561296057600080fd5b600061296e848285016128d2565b91505092915050565b6000806040838503121561298a57600080fd5b6000612998858286016128d2565b92505060206129a985828601612893565b9150509250929050565b600080604083850312156129c657600080fd5b60006129d4858286016128d2565b925050602083013567ffffffffffffffff8111156129f157600080fd5b6129fd858286016128a8565b9150509250929050565b60008060408385031215612a1a57600080fd5b6000612a28858286016128e7565b9250506020612a39858286016128e7565b9150509250929050565b6000612a4f8383612ad9565b60608301905092915050565b6000612a678383612d97565b60208301905092915050565b612a7c8161323e565b82525050565b612a8b81613177565b612a9581846131b2565b9250612aa08261314e565b8060005b83811015612ad1578151612ab88782612a43565b9650612ac383613198565b925050600181019050612aa4565b505050505050565b612ae281613182565b612aec81846131bd565b9250612af782613158565b8060005b83811015612b28578151612b0f8782612a5b565b9650612b1a836131a5565b925050600181019050612afb565b505050505050565b612b3981613250565b82525050565b612b488161325c565b82525050565b612b57816132c5565b82525050565b6000612b688261318d565b612b7281856131d3565b9350612b828185602086016132e6565b612b8b81613481565b840191505092915050565b60008154612ba381613319565b612bad81866131d3565b94506001821660008114612bc85760018114612bda57612c0d565b60ff1983168652602086019350612c0d565b612be385613162565b60005b83811015612c0557815481890152600182019150602081019050612be6565b808801955050505b50505092915050565b6000612c236012836131d3565b9150612c2e82613492565b602082019050919050565b6000612c466016836131d3565b9150612c51826134bb565b602082019050919050565b6000612c69600d836131d3565b9150612c74826134e4565b602082019050919050565b6000612c8c600e836131d3565b9150612c978261350d565b602082019050919050565b6000612caf600f836131d3565b9150612cba82613536565b602082019050919050565b6000612cd26012836131d3565b9150612cdd8261355f565b602082019050919050565b6000612cf56014836131d3565b9150612d0082613588565b602082019050919050565b6000612d186000836131c8565b9150612d23826135b1565b600082019050919050565b6000612d3b6017836131d3565b9150612d46826135b4565b602082019050919050565b6000612d5e6016836131d3565b9150612d69826135dd565b602082019050919050565b6000612d816014836131d3565b9150612d8c82613606565b602082019050919050565b612da0816132bb565b82525050565b612daf816132bb565b82525050565b6000612dc082612d0b565b9150819050919050565b6000602082019050612ddf6000830184612a73565b92915050565b600061012082019050612dfb6000830184612a82565b92915050565b6000602082019050612e166000830184612b4e565b92915050565b60006020820190508181036000830152612e368184612b5d565b905092915050565b60006020820190508181036000830152612e5781612c16565b9050919050565b60006020820190508181036000830152612e7781612c39565b9050919050565b60006020820190508181036000830152612e9781612c5c565b9050919050565b60006020820190508181036000830152612eb781612c7f565b9050919050565b60006020820190508181036000830152612ed781612ca2565b9050919050565b60006020820190508181036000830152612ef781612cc5565b9050919050565b60006020820190508181036000830152612f1781612ce8565b9050919050565b60006020820190508181036000830152612f3781612d2e565b9050919050565b60006020820190508181036000830152612f5781612d51565b9050919050565b60006020820190508181036000830152612f7781612d74565b9050919050565b6000602082019050612f936000830184612da6565b92915050565b6000604082019050612fae6000830185612da6565b612fbb6020830184612a73565b9392505050565b600060a082019050612fd76000830188612da6565b612fe46020830187612a73565b612ff16040830186612da6565b612ffe6060830185612da6565b81810360808301526130108184612b96565b90509695505050505050565b60006040820190506130316000830185612da6565b61303e6020830184612b30565b9392505050565b600060408201905061305a6000830185612da6565b6130676020830184612b3f565b9392505050565b60006040820190506130836000830185612da6565b6130906020830184612b4e565b9392505050565b600060c0820190506130ac6000830189612da6565b6130b96020830188612da6565b6130c66040830187612a73565b6130d36060830186612a73565b6130e06080830185612a73565b6130ed60a0830184612b4e565b979650505050505050565b6000613102613113565b905061310e828261334b565b919050565b6000604051905090565b600067ffffffffffffffff82111561313857613137613452565b5b61314182613481565b9050602081019050919050565b6000819050919050565b6000819050919050565b60008190508160005260206000209050919050565b600060039050919050565b600060039050919050565b600081519050919050565b6000602082019050919050565b6000602082019050919050565b600081905092915050565b600081905092915050565b600081905092915050565b600082825260208201905092915050565b60006131ef826132bb565b91506131fa836132bb565b9250817fffffffffffffffffffffffffffffffffffffffffffffffffffffffffffffffff0483118215151615613233576132326133c5565b5b828202905092915050565b60006132498261329b565b9050919050565b60008115159050919050565b60007fffffffff0000000000000000000000000000000000000000000000000000000082169050919050565b60008190506132968261362f565b919050565b600073ffffffffffffffffffffffffffffffffffffffff82169050919050565b6000819050919050565b60006132d082613288565b9050919050565b82818337600083830152505050565b60005b838110156133045780820151818401526020810190506132e9565b83811115613313576000848401525b50505050565b6000600282049050600182168061333157607f821691505b6020821081141561334557613344613423565b5b50919050565b61335482613481565b810181811067ffffffffffffffff8211171561337357613372613452565b5b80604052505050565b6000613387826132bb565b91507fffffffffffffffffffffffffffffffffffffffffffffffffffffffffffffffff8214156133ba576133b96133c5565b5b600182019050919050565b7f4e487b7100000000000000000000000000000000000000000000000000000000600052601160045260246000fd5b7f4e487b7100000000000000000000000000000000000000000000000000000000600052602160045260246000fd5b7f4e487b7100000000000000000000000000000000000000000000000000000000600052602260045260246000fd5b7f4e487b7100000000000000000000000000000000000000000000000000000000600052604160045260246000fd5b6000601f19601f8301169050919050565b7f4f7574206f6620626f756e6473206d6f76650000000000000000000000000000600082015250565b7f43616e6e6f742063686f6f7365206175746f706c617900000000000000000000600082015250565b7f4e6f7420796f7572207475726e00000000000000000000000000000000000000600082015250565b7f5061796d656e74206661696c6564000000000000000000000000000000000000600082015250565b7f52656d69742067616d6520636f73740000000000000000000000000000000000600082015250565b7f53706f7420616c72656164792074616b656e0000000000000000000000000000600082015250565b7f47616d65206e6f7420696e2070726f6772657373000000000000000000000000600082015250565b50565b7f47616d6520646f6573206e6f7420657869737420796574000000000000000000600082015250565b7f4e6f7420656c696769626c6520666f72207072697a6500000000000000000000600082015250565b7f47616d6520616c72656164792073746172746564000000000000000000000000600082015250565b600581106136405761363f6133f4565b5b50565b61364c8161323e565b811461365757600080fd5b50565b61366381613250565b811461366e57600080fd5b50565b61367a816132bb565b811461368557600080fd5b5056fea264697066735822122039059e97cba4a47ab24a7d76e2b626931d2592e0d6ae6dcf093bfef8e911416564736f6c63430008040033",
  "linkReferences": {},
  "deployedLinkReferences": {}
}