{
  "_format": "hh-sol-artifact-1",
  "contractName": "ChainAIV2",
  "sourceName": "contracts/ChainAIV2.sol",
  "abi": [
    {
      "inputs": [
        {
          "internalType": "uint256",
          "name": "inferencePrice_",
          "type": "uint256"
        }
      ],
      "stateMutability": "nonpayable",
      "type": "constructor"
    },
    {
      "anonymous": false,
      "inputs": [
        {
          "indexed": false,
          "internalType": "uint256",
          "name": "jobId",
          "type": "uint256"
        },
        {
          "indexed": false,
          "internalType": "enum DataTypes.ModelCategory",
          "name": "modelCategory",
          "type": "uint8"
        },
        {
          "indexed": false,
          "internalType": "bytes",
          "name": "seed",
          "type": "bytes"
        },
        {
          "indexed": false,
          "internalType": "string",
          "name": "modelConfigLocation",
          "type": "string"
        },
        {
          "indexed": false,
          "internalType": "enum DataTypes.InputDataLocationType",
          "name": "inputDataLocationType",
          "type": "uint8"
        },
        {
          "indexed": false,
          "internalType": "string",
          "name": "input",
          "type": "string"
        },
        {
          "indexed": false,
          "internalType": "enum DataTypes.OutputDataLocationType",
          "name": "outputDataLocationType",
          "type": "uint8"
        },
        {
          "indexed": false,
          "internalType": "enum DataTypes.OutputDataFormat",
          "name": "outputDataFormat",
          "type": "uint8"
        },
        {
          "indexed": false,
          "internalType": "uint256",
          "name": "createdTimestamp",
          "type": "uint256"
        }
      ],
      "name": "JobCreated",
      "type": "event"
    },
    {
      "anonymous": false,
      "inputs": [
        {
          "indexed": false,
          "internalType": "uint256",
          "name": "jobId",
          "type": "uint256"
        }
      ],
      "name": "JobFailed",
      "type": "event"
    },
    {
      "anonymous": false,
      "inputs": [
        {
          "indexed": false,
          "internalType": "uint256",
          "name": "jobId",
          "type": "uint256"
        }
      ],
      "name": "JobSucceeded",
      "type": "event"
    },
    {
      "anonymous": false,
      "inputs": [
        {
          "indexed": false,
          "internalType": "address",
          "name": "model",
          "type": "address"
        }
      ],
      "name": "ModelAdded",
      "type": "event"
    },
    {
      "inputs": [
        {
          "internalType": "address",
          "name": "model",
          "type": "address"
        }
      ],
      "name": "addModel",
      "outputs": [],
      "stateMutability": "nonpayable",
      "type": "function"
    },
    {
      "inputs": [
        {
          "internalType": "address",
          "name": "sequencer",
          "type": "address"
        }
      ],
      "name": "addSequencer",
      "outputs": [],
      "stateMutability": "nonpayable",
      "type": "function"
    },
    {
      "inputs": [],
      "name": "inferencePrice",
      "outputs": [
        {
          "internalType": "uint256",
          "name": "",
          "type": "uint256"
        }
      ],
      "stateMutability": "view",
      "type": "function"
    },
    {
      "inputs": [
        {
          "internalType": "uint256",
          "name": "",
          "type": "uint256"
        }
      ],
      "name": "jobs",
      "outputs": [
        {
          "components": [
            {
              "internalType": "enum ChainAIV2.JobStatus",
              "name": "status",
              "type": "uint8"
            },
            {
              "internalType": "uint256",
              "name": "id",
              "type": "uint256"
            },
            {
              "internalType": "uint256",
              "name": "createdTimestamp",
              "type": "uint256"
            },
            {
              "internalType": "uint256",
              "name": "callbackId",
              "type": "uint256"
            },
            {
              "internalType": "address",
              "name": "callbackAddress",
              "type": "address"
            }
          ],
          "internalType": "struct ChainAIV2.JobParams",
          "name": "jobParams",
          "type": "tuple"
        },
        {
          "internalType": "enum DataTypes.InputDataLocationType",
          "name": "inputDataLocationType",
          "type": "uint8"
        },
        {
          "internalType": "enum DataTypes.OutputDataLocationType",
          "name": "outputDataLocationType",
          "type": "uint8"
        },
        {
          "internalType": "enum DataTypes.OutputDataFormat",
          "name": "outputDataFormat",
          "type": "uint8"
        },
        {
          "internalType": "uint256",
          "name": "modelVersion",
          "type": "uint256"
        },
        {
          "internalType": "address",
          "name": "model",
          "type": "address"
        },
        {
          "internalType": "bytes",
          "name": "seed",
          "type": "bytes"
        },
        {
          "internalType": "string",
          "name": "input",
          "type": "string"
        },
        {
          "internalType": "string",
          "name": "output",
          "type": "string"
        }
      ],
      "stateMutability": "view",
      "type": "function"
    },
    {
      "inputs": [],
      "name": "latestJobId",
      "outputs": [
        {
          "internalType": "uint256",
          "name": "",
          "type": "uint256"
        }
      ],
      "stateMutability": "view",
      "type": "function"
    },
    {
      "inputs": [
        {
          "internalType": "address",
          "name": "",
          "type": "address"
        }
      ],
      "name": "models",
      "outputs": [
        {
          "internalType": "bool",
          "name": "",
          "type": "bool"
        }
      ],
      "stateMutability": "view",
      "type": "function"
    },
    {
      "inputs": [
        {
          "internalType": "address",
          "name": "model",
          "type": "address"
        }
      ],
      "name": "removeModel",
      "outputs": [],
      "stateMutability": "nonpayable",
      "type": "function"
    },
    {
      "inputs": [
        {
          "internalType": "address",
          "name": "sequencer",
          "type": "address"
        }
      ],
      "name": "removeSequencer",
      "outputs": [],
      "stateMutability": "nonpayable",
      "type": "function"
    },
    {
      "inputs": [
        {
          "internalType": "address",
          "name": "",
          "type": "address"
        }
      ],
      "name": "sequencers",
      "outputs": [
        {
          "internalType": "bool",
          "name": "",
          "type": "bool"
        }
      ],
      "stateMutability": "view",
      "type": "function"
    },
    {
      "inputs": [
        {
          "internalType": "bytes",
          "name": "seed",
          "type": "bytes"
        },
        {
          "internalType": "uint256",
          "name": "callbackId",
          "type": "uint256"
        },
        {
          "internalType": "address",
          "name": "callbackAddress",
          "type": "address"
        },
        {
          "internalType": "enum DataTypes.InputDataLocationType",
          "name": "inputDataLocationType",
          "type": "uint8"
        },
        {
          "internalType": "string",
          "name": "input",
          "type": "string"
        },
        {
          "internalType": "enum DataTypes.OutputDataLocationType",
          "name": "outputDataLocationType",
          "type": "uint8"
        },
        {
          "internalType": "enum DataTypes.OutputDataFormat",
          "name": "outputDataFormat",
          "type": "uint8"
        }
      ],
      "name": "startJob",
      "outputs": [],
      "stateMutability": "payable",
      "type": "function"
    },
    {
      "inputs": [
        {
          "internalType": "uint256",
          "name": "newPrice",
          "type": "uint256"
        }
      ],
      "name": "updateInferencePrice",
      "outputs": [],
      "stateMutability": "nonpayable",
      "type": "function"
    },
    {
      "inputs": [
        {
          "internalType": "uint256",
          "name": "jobId",
          "type": "uint256"
        },
        {
          "internalType": "enum ChainAIV2.JobStatus",
          "name": "jobStatus",
          "type": "uint8"
        },
        {
          "internalType": "string",
          "name": "resultsLocation",
          "type": "string"
        }
      ],
      "name": "updateJobStatus",
      "outputs": [],
      "stateMutability": "nonpayable",
      "type": "function"
    },
    {
      "inputs": [],
      "name": "withdraw",
      "outputs": [],
      "stateMutability": "nonpayable",
      "type": "function"
    }
  ],
  "bytecode": "0x60806040523480156200001157600080fd5b506040516200271c3803806200271c83398181016040528101906200003791906200009d565b8060008190555033600260006101000a81548173ffffffffffffffffffffffffffffffffffffffff021916908373ffffffffffffffffffffffffffffffffffffffff16021790555050620000ed565b6000815190506200009781620000d3565b92915050565b600060208284031215620000b057600080fd5b6000620000c08482850162000086565b91505092915050565b6000819050919050565b620000de81620000c9565b8114620000ea57600080fd5b50565b61261f80620000fd6000396000f3fe6080604052600436106100c25760003560e01c80634f36a1841161007f5780638a336231116100595780638a3362311461026c5780639334aefd14610295578063ca99493f146102c0578063eb177b8e146102dc576100c2565b80634f36a184146101db57806354917f83146102065780636989ca7c14610243576100c2565b80630dd07f79146100c7578063180aedf3146100f05780631c7a07ee146101355780633371fbf514610172578063380b806e1461019b5780633ccfd60b146101c4575b600080fd5b3480156100d357600080fd5b506100ee60048036038101906100e99190611b12565b610305565b005b3480156100fc57600080fd5b5061011760048036038101906101129190611b12565b61039f565b60405161012c99989796959493929190611ef8565b60405180910390f35b34801561014157600080fd5b5061015c600480360381019061015791906119b1565b6106d1565b6040516101699190611e3d565b60405180910390f35b34801561017e57600080fd5b50610199600480360381019061019491906119b1565b6106f1565b005b3480156101a757600080fd5b506101c260048036038101906101bd91906119b1565b6107dc565b005b3480156101d057600080fd5b506101d96108fe565b005b3480156101e757600080fd5b506101f0610aef565b6040516101fd9190611f9e565b60405180910390f35b34801561021257600080fd5b5061022d600480360381019061022891906119b1565b610af8565b60405161023a9190611e3d565b60405180910390f35b34801561024f57600080fd5b5061026a600480360381019061026591906119b1565b610b18565b005b34801561027857600080fd5b50610293600480360381019061028e91906119b1565b610c03565b005b3480156102a157600080fd5b506102aa610cee565b6040516102b79190611f9e565b60405180910390f35b6102da60048036038101906102d591906119da565b610cf4565b005b3480156102e857600080fd5b5061030360048036038101906102fe9190611b64565b61138b565b005b600260009054906101000a900473ffffffffffffffffffffffffffffffffffffffff1673ffffffffffffffffffffffffffffffffffffffff163373ffffffffffffffffffffffffffffffffffffffff1614610395576040517f08c379a000000000000000000000000000000000000000000000000000000000815260040161038c90611eb8565b60405180910390fd5b8060008190555050565b6005602052806000526040600020600091509050806000016040518060a00160405290816000820160009054906101000a900460ff16600281111561040d577f4e487b7100000000000000000000000000000000000000000000000000000000600052602160045260246000fd5b6002811115610445577f4e487b7100000000000000000000000000000000000000000000000000000000600052602160045260246000fd5b81526020016001820154815260200160028201548152602001600382015481526020016004820160009054906101000a900473ffffffffffffffffffffffffffffffffffffffff1673ffffffffffffffffffffffffffffffffffffffff1673ffffffffffffffffffffffffffffffffffffffff1681525050908060050160009054906101000a900460ff16908060050160019054906101000a900460ff16908060050160029054906101000a900460ff16908060060154908060070160009054906101000a900473ffffffffffffffffffffffffffffffffffffffff169080600801805461053290612298565b80601f016020809104026020016040519081016040528092919081815260200182805461055e90612298565b80156105ab5780601f10610580576101008083540402835291602001916105ab565b820191906000526020600020905b81548152906001019060200180831161058e57829003601f168201915b5050505050908060090180546105c090612298565b80601f01602080910402602001604051908101604052809291908181526020018280546105ec90612298565b80156106395780601f1061060e57610100808354040283529160200191610639565b820191906000526020600020905b81548152906001019060200180831161061c57829003601f168201915b50505050509080600a01805461064e90612298565b80601f016020809104026020016040519081016040528092919081815260200182805461067a90612298565b80156106c75780601f1061069c576101008083540402835291602001916106c7565b820191906000526020600020905b8154815290600101906020018083116106aa57829003601f168201915b5050505050905089565b60046020528060005260406000206000915054906101000a900460ff1681565b600260009054906101000a900473ffffffffffffffffffffffffffffffffffffffff1673ffffffffffffffffffffffffffffffffffffffff163373ffffffffffffffffffffffffffffffffffffffff1614610781576040517f08c379a000000000000000000000000000000000000000000000000000000000815260040161077890611eb8565b60405180910390fd5b6000600360008373ffffffffffffffffffffffffffffffffffffffff1673ffffffffffffffffffffffffffffffffffffffff16815260200190815260200160002060006101000a81548160ff02191690831515021790555050565b600260009054906101000a900473ffffffffffffffffffffffffffffffffffffffff1673ffffffffffffffffffffffffffffffffffffffff163373ffffffffffffffffffffffffffffffffffffffff161461086c576040517f08c379a000000000000000000000000000000000000000000000000000000000815260040161086390611eb8565b60405180910390fd5b6001600360008373ffffffffffffffffffffffffffffffffffffffff1673ffffffffffffffffffffffffffffffffffffffff16815260200190815260200160002060006101000a81548160ff0219169083151502179055507fbdaf0f76928c54dcb974064491e48a5bb176f8da215819e58200e91ab6bade40816040516108f39190611e22565b60405180910390a150565b600260009054906101000a900473ffffffffffffffffffffffffffffffffffffffff1673ffffffffffffffffffffffffffffffffffffffff163373ffffffffffffffffffffffffffffffffffffffff161461098e576040517f08c379a000000000000000000000000000000000000000000000000000000000815260040161098590611eb8565b60405180910390fd5b600260009054906101000a900473ffffffffffffffffffffffffffffffffffffffff1673ffffffffffffffffffffffffffffffffffffffff163373ffffffffffffffffffffffffffffffffffffffff1614610a1e576040517f08c379a0000000000000000000000000000000000000000000000000000000008152600401610a1590611e78565b60405180910390fd5b6000600260009054906101000a900473ffffffffffffffffffffffffffffffffffffffff1673ffffffffffffffffffffffffffffffffffffffff1647604051610a6690611e0d565b60006040518083038185875af1925050503d8060008114610aa3576040519150601f19603f3d011682016040523d82523d6000602084013e610aa8565b606091505b5050905080610aec576040517f08c379a0000000000000000000000000000000000000000000000000000000008152600401610ae390611ed8565b60405180910390fd5b50565b60008054905090565b60036020528060005260406000206000915054906101000a900460ff1681565b600260009054906101000a900473ffffffffffffffffffffffffffffffffffffffff1673ffffffffffffffffffffffffffffffffffffffff163373ffffffffffffffffffffffffffffffffffffffff1614610ba8576040517f08c379a0000000000000000000000000000000000000000000000000000000008152600401610b9f90611eb8565b60405180910390fd5b6000600460008373ffffffffffffffffffffffffffffffffffffffff1673ffffffffffffffffffffffffffffffffffffffff16815260200190815260200160002060006101000a81548160ff02191690831515021790555050565b600260009054906101000a900473ffffffffffffffffffffffffffffffffffffffff1673ffffffffffffffffffffffffffffffffffffffff163373ffffffffffffffffffffffffffffffffffffffff1614610c93576040517f08c379a0000000000000000000000000000000000000000000000000000000008152600401610c8a90611eb8565b60405180910390fd5b6001600460008373ffffffffffffffffffffffffffffffffffffffff1673ffffffffffffffffffffffffffffffffffffffff16815260200190815260200160002060006101000a81548160ff02191690831515021790555050565b60015481565b600360003373ffffffffffffffffffffffffffffffffffffffff1673ffffffffffffffffffffffffffffffffffffffff16815260200190815260200160002060009054906101000a900460ff16610d80576040517f08c379a0000000000000000000000000000000000000000000000000000000008152600401610d7790611e98565b60405180910390fd5b60016000815480929190610d93906122fb565b91905055506000429050600033905060006040518060a0016040528060006002811115610de9577f4e487b7100000000000000000000000000000000000000000000000000000000600052602160045260246000fd5b815260200160015481526020018481526020018a81526020018973ffffffffffffffffffffffffffffffffffffffff1681525090506000604051806101200160405280838152602001896002811115610e6b577f4e487b7100000000000000000000000000000000000000000000000000000000600052602160045260246000fd5b8152602001876002811115610ea9577f4e487b7100000000000000000000000000000000000000000000000000000000600052602160045260246000fd5b8152602001866001811115610ee7577f4e487b7100000000000000000000000000000000000000000000000000000000600052602160045260246000fd5b81526020018473ffffffffffffffffffffffffffffffffffffffff1663029b015f6040518163ffffffff1660e01b815260040160206040518083038186803b158015610f3257600080fd5b505afa158015610f46573d6000803e3d6000fd5b505050506040513d601f19601f82011682018060405250810190610f6a9190611b3b565b81526020013373ffffffffffffffffffffffffffffffffffffffff1681526020018c81526020018881526020016040518060200160405280600081525081525090508060056000600154815260200190815260200160002060008201518160000160008201518160000160006101000a81548160ff0219169083600281111561101c577f4e487b7100000000000000000000000000000000000000000000000000000000600052602160045260246000fd5b021790555060208201518160010155604082015181600201556060820151816003015560808201518160040160006101000a81548173ffffffffffffffffffffffffffffffffffffffff021916908373ffffffffffffffffffffffffffffffffffffffff160217905550505060208201518160050160006101000a81548160ff021916908360028111156110d9577f4e487b7100000000000000000000000000000000000000000000000000000000600052602160045260246000fd5b021790555060408201518160050160016101000a81548160ff0219169083600281111561112f577f4e487b7100000000000000000000000000000000000000000000000000000000600052602160045260246000fd5b021790555060608201518160050160026101000a81548160ff02191690836001811115611185577f4e487b7100000000000000000000000000000000000000000000000000000000600052602160045260246000fd5b02179055506080820151816006015560a08201518160070160006101000a81548173ffffffffffffffffffffffffffffffffffffffff021916908373ffffffffffffffffffffffffffffffffffffffff16021790555060c08201518160080190805190602001906111f79291906116a8565b5060e082015181600901908051906020019061121492919061172e565b5061010082015181600a01908051906020019061123292919061172e565b509050507f1529f354cf8b170521e59ba0012587aaa9f0f8f237034a968395248656545c796001548473ffffffffffffffffffffffffffffffffffffffff166383e27aea6040518163ffffffff1660e01b815260040160206040518083038186803b1580156112a057600080fd5b505afa1580156112b4573d6000803e3d6000fd5b505050506040513d601f19601f820116820180604052508101906112d89190611aa8565b8d8673ffffffffffffffffffffffffffffffffffffffff16637408836f6040518163ffffffff1660e01b815260040160006040518083038186803b15801561131f57600080fd5b505afa158015611333573d6000803e3d6000fd5b505050506040513d6000823e3d601f19601f8201168201806040525081019061135c9190611ad1565b8c8c8c8c8c60405161137699989796959493929190611fb9565b60405180910390a15050505050505050505050565b600460003373ffffffffffffffffffffffffffffffffffffffff1673ffffffffffffffffffffffffffffffffffffffff16815260200190815260200160002060009054906101000a900460ff16611417576040517f08c379a000000000000000000000000000000000000000000000000000000000815260040161140e90611e58565b60405180910390fd5b6000806005600086815260200190815260200160002090508060000191508281600a01908051906020019061144d92919061172e565b50838260000160006101000a81548160ff0219169083600281111561149b577f4e487b7100000000000000000000000000000000000000000000000000000000600052602160045260246000fd5b0217905550600160028111156114da577f4e487b7100000000000000000000000000000000000000000000000000000000600052602160045260246000fd5b846002811115611513577f4e487b7100000000000000000000000000000000000000000000000000000000600052602160045260246000fd5b1415611555577fb75cf56c3b87307029f0059a671fedc39db6212ba4ef07f39d4f053185dc9006856040516115489190611f9e565b60405180910390a16116a1565b60028081111561158e577f4e487b7100000000000000000000000000000000000000000000000000000000600052602160045260246000fd5b8460028111156115c7577f4e487b7100000000000000000000000000000000000000000000000000000000600052602160045260246000fd5b14156116a05760008260040160009054906101000a900473ffffffffffffffffffffffffffffffffffffffff1690508073ffffffffffffffffffffffffffffffffffffffff1663400021078460030154866040518363ffffffff1660e01b815260040161163592919061205b565b600060405180830381600087803b15801561164f57600080fd5b505af1158015611663573d6000803e3d6000fd5b505050507fc5ff1ec8ea45d0671a3ea8676bd4bcb43a0b3550d0e6b392e4e1c42bcd220827866040516116969190611f9e565b60405180910390a1505b5b5050505050565b8280546116b490612298565b90600052602060002090601f0160209004810192826116d6576000855561171d565b82601f106116ef57805160ff191683800117855561171d565b8280016001018555821561171d579182015b8281111561171c578251825591602001919060010190611701565b5b50905061172a91906117b4565b5090565b82805461173a90612298565b90600052602060002090601f01602090048101928261175c57600085556117a3565b82601f1061177557805160ff19168380011785556117a3565b828001600101855582156117a3579182015b828111156117a2578251825591602001919060010190611787565b5b5090506117b091906117b4565b5090565b5b808211156117cd5760008160009055506001016117b5565b5090565b60006117e46117df846120b0565b61208b565b9050828152602081018484840111156117fc57600080fd5b611807848285612256565b509392505050565b600061182261181d846120e1565b61208b565b90508281526020810184848401111561183a57600080fd5b611845848285612256565b509392505050565b600061186061185b846120e1565b61208b565b90508281526020810184848401111561187857600080fd5b611883848285612265565b509392505050565b60008135905061189a8161256b565b92915050565b600082601f8301126118b157600080fd5b81356118c18482602086016117d1565b91505092915050565b6000813590506118d981612582565b92915050565b6000813590506118ee81612592565b92915050565b600081519050611903816125a2565b92915050565b600081359050611918816125b2565b92915050565b60008135905061192d816125c2565b92915050565b600082601f83011261194457600080fd5b813561195484826020860161180f565b91505092915050565b600082601f83011261196e57600080fd5b815161197e84826020860161184d565b91505092915050565b600081359050611996816125d2565b92915050565b6000815190506119ab816125d2565b92915050565b6000602082840312156119c357600080fd5b60006119d18482850161188b565b91505092915050565b600080600080600080600060e0888a0312156119f557600080fd5b600088013567ffffffffffffffff811115611a0f57600080fd5b611a1b8a828b016118a0565b9750506020611a2c8a828b01611987565b9650506040611a3d8a828b0161188b565b9550506060611a4e8a828b016118ca565b945050608088013567ffffffffffffffff811115611a6b57600080fd5b611a778a828b01611933565b93505060a0611a888a828b0161191e565b92505060c0611a998a828b01611909565b91505092959891949750929550565b600060208284031215611aba57600080fd5b6000611ac8848285016118f4565b91505092915050565b600060208284031215611ae357600080fd5b600082015167ffffffffffffffff811115611afd57600080fd5b611b098482850161195d565b91505092915050565b600060208284031215611b2457600080fd5b6000611b3284828501611987565b91505092915050565b600060208284031215611b4d57600080fd5b6000611b5b8482850161199c565b91505092915050565b600080600060608486031215611b7957600080fd5b6000611b8786828701611987565b9350506020611b98868287016118df565b925050604084013567ffffffffffffffff811115611bb557600080fd5b611bc186828701611933565b9150509250925092565b611bd481612155565b82525050565b611be381612155565b82525050565b611bf281612167565b82525050565b6000611c0382612112565b611c0d8185612128565b9350611c1d818560208601612265565b611c2681612400565b840191505092915050565b611c3a816121fc565b82525050565b611c498161220e565b82525050565b611c5881612220565b82525050565b611c6781612232565b82525050565b611c7681612244565b82525050565b6000611c878261211d565b611c918185612144565b9350611ca1818560208601612265565b611caa81612400565b840191505092915050565b6000611cc2601883612144565b9150611ccd82612411565b602082019050919050565b6000611ce5600a83612144565b9150611cf08261243a565b602082019050919050565b6000611d08602383612144565b9150611d1382612463565b604082019050919050565b6000611d2b601283612144565b9150611d36826124b2565b602082019050919050565b6000611d4e600083612139565b9150611d59826124db565b600082019050919050565b6000611d71601883612144565b9150611d7c826124de565b602082019050919050565b60a082016000820151611d9d6000850182611c40565b506020820151611db06020850182611def565b506040820151611dc36040850182611def565b506060820151611dd66060850182611def565b506080820151611de96080850182611bcb565b50505050565b611df8816121f2565b82525050565b611e07816121f2565b82525050565b6000611e1882611d41565b9150819050919050565b6000602082019050611e376000830184611bda565b92915050565b6000602082019050611e526000830184611be9565b92915050565b60006020820190508181036000830152611e7181611cb5565b9050919050565b60006020820190508181036000830152611e9181611cd8565b9050919050565b60006020820190508181036000830152611eb181611cfb565b9050919050565b60006020820190508181036000830152611ed181611d1e565b9050919050565b60006020820190508181036000830152611ef181611d64565b9050919050565b60006101a082019050611f0e600083018c611d87565b611f1b60a083018b611c31565b611f2860c083018a611c6d565b611f3560e0830189611c5e565b611f43610100830188611dfe565b611f51610120830187611bda565b818103610140830152611f648186611bf8565b9050818103610160830152611f798185611c7c565b9050818103610180830152611f8e8184611c7c565b90509a9950505050505050505050565b6000602082019050611fb36000830184611dfe565b92915050565b600061012082019050611fcf600083018c611dfe565b611fdc602083018b611c4f565b8181036040830152611fee818a611bf8565b905081810360608301526120028189611c7c565b90506120116080830188611c31565b81810360a08301526120238187611c7c565b905061203260c0830186611c6d565b61203f60e0830185611c5e565b61204d610100830184611dfe565b9a9950505050505050505050565b60006040820190506120706000830185611dfe565b81810360208301526120828184611c7c565b90509392505050565b60006120956120a6565b90506120a182826122ca565b919050565b6000604051905090565b600067ffffffffffffffff8211156120cb576120ca6123d1565b5b6120d482612400565b9050602081019050919050565b600067ffffffffffffffff8211156120fc576120fb6123d1565b5b61210582612400565b9050602081019050919050565b600081519050919050565b600081519050919050565b600082825260208201905092915050565b600081905092915050565b600082825260208201905092915050565b6000612160826121d2565b9050919050565b60008115159050919050565b600081905061218182612507565b919050565b60008190506121948261251b565b919050565b60008190506121a78261252f565b919050565b60008190506121ba82612543565b919050565b60008190506121cd82612557565b919050565b600073ffffffffffffffffffffffffffffffffffffffff82169050919050565b6000819050919050565b600061220782612173565b9050919050565b600061221982612186565b9050919050565b600061222b82612199565b9050919050565b600061223d826121ac565b9050919050565b600061224f826121bf565b9050919050565b82818337600083830152505050565b60005b83811015612283578082015181840152602081019050612268565b83811115612292576000848401525b50505050565b600060028204905060018216806122b057607f821691505b602082108114156122c4576122c36123a2565b5b50919050565b6122d382612400565b810181811067ffffffffffffffff821117156122f2576122f16123d1565b5b80604052505050565b6000612306826121f2565b91507fffffffffffffffffffffffffffffffffffffffffffffffffffffffffffffffff82141561233957612338612344565b5b600182019050919050565b7f4e487b7100000000000000000000000000000000000000000000000000000000600052601160045260246000fd5b7f4e487b7100000000000000000000000000000000000000000000000000000000600052602160045260246000fd5b7f4e487b7100000000000000000000000000000000000000000000000000000000600052602260045260246000fd5b7f4e487b7100000000000000000000000000000000000000000000000000000000600052604160045260246000fd5b6000601f19601f8301169050919050565b7f4e6f74206120747275737465642047505520776f726b65720000000000000000600082015250565b7f4f6e6c79206f776e657200000000000000000000000000000000000000000000600082015250565b7f4f6e6c79206d6f64656c20636f6e747261637420616c6c6f77656420746f206360008201527f616c6c0000000000000000000000000000000000000000000000000000000000602082015250565b7f4f6e6c79206f776e657220616c6c6f7765640000000000000000000000000000600082015250565b50565b7f576974686472617720746f206f776e6572206661696c65640000000000000000600082015250565b6003811061251857612517612373565b5b50565b6003811061252c5761252b612373565b5b50565b600381106125405761253f612373565b5b50565b6002811061255457612553612373565b5b50565b6003811061256857612567612373565b5b50565b61257481612155565b811461257f57600080fd5b50565b6003811061258f57600080fd5b50565b6003811061259f57600080fd5b50565b600381106125af57600080fd5b50565b600281106125bf57600080fd5b50565b600381106125cf57600080fd5b50565b6125db816121f2565b81146125e657600080fd5b5056fea264697066735822122028f275e82c0988c5f75552a4770cd0d57fbaeca0399a9c9bb4eb90b42cea098364736f6c63430008040033",
  "linkReferences": {},
  "deployedLinkReferences": {}
}