{
  "_format": "hh-sol-artifact-1",
  "contractName": "ChainAIV2",
  "sourceName": "contracts/ChainAIV2.sol",
  "abi": [
    {
      "inputs": [
        {
          "internalType": "uint256",
          "name": "inferencePrice_",
          "type": "uint256"
        }
      ],
      "stateMutability": "nonpayable",
      "type": "constructor"
    },
    {
      "anonymous": false,
      "inputs": [
        {
          "indexed": false,
          "internalType": "uint256",
          "name": "jobId",
          "type": "uint256"
        },
        {
          "indexed": false,
          "internalType": "enum ChainAIV2.ModelCategory",
          "name": "modelCategory",
          "type": "uint8"
        },
        {
          "indexed": false,
          "internalType": "bytes",
          "name": "seed",
          "type": "bytes"
        },
        {
          "indexed": false,
          "internalType": "string",
          "name": "modelConfigLocation",
          "type": "string"
        },
        {
          "indexed": false,
          "internalType": "enum ChainAIV2.InputDataLocationType",
          "name": "inputDataLocationType",
          "type": "uint8"
        },
        {
          "indexed": false,
          "internalType": "string",
          "name": "input",
          "type": "string"
        },
        {
          "indexed": false,
          "internalType": "enum ChainAIV2.OutputDataLocationType",
          "name": "outputDataLocationType",
          "type": "uint8"
        },
        {
          "indexed": false,
          "internalType": "enum ChainAIV2.OutputDataFormat",
          "name": "outputDataFormat",
          "type": "uint8"
        },
        {
          "indexed": false,
          "internalType": "uint256",
          "name": "createdTimestamp",
          "type": "uint256"
        }
      ],
      "name": "JobCreated",
      "type": "event"
    },
    {
      "anonymous": false,
      "inputs": [
        {
          "indexed": false,
          "internalType": "uint256",
          "name": "jobId",
          "type": "uint256"
        }
      ],
      "name": "JobFailed",
      "type": "event"
    },
    {
      "anonymous": false,
      "inputs": [
        {
          "indexed": false,
          "internalType": "uint256",
          "name": "jobId",
          "type": "uint256"
        }
      ],
      "name": "JobSucceeded",
      "type": "event"
    },
    {
      "inputs": [
        {
          "internalType": "address",
          "name": "sequencer",
          "type": "address"
        }
      ],
      "name": "addSequencer",
      "outputs": [],
      "stateMutability": "nonpayable",
      "type": "function"
    },
    {
      "inputs": [],
      "name": "inferencePrice",
      "outputs": [
        {
          "internalType": "uint256",
          "name": "",
          "type": "uint256"
        }
      ],
      "stateMutability": "view",
      "type": "function"
    },
    {
      "inputs": [
        {
          "internalType": "uint256",
          "name": "",
          "type": "uint256"
        }
      ],
      "name": "jobs",
      "outputs": [
        {
          "components": [
            {
              "internalType": "enum ChainAIV2.JobStatus",
              "name": "status",
              "type": "uint8"
            },
            {
              "internalType": "uint256",
              "name": "id",
              "type": "uint256"
            },
            {
              "internalType": "uint256",
              "name": "createdTimestamp",
              "type": "uint256"
            },
            {
              "internalType": "uint256",
              "name": "callbackId",
              "type": "uint256"
            },
            {
              "internalType": "address",
              "name": "callbackAddress",
              "type": "address"
            }
          ],
          "internalType": "struct ChainAIV2.JobParams",
          "name": "jobParams",
          "type": "tuple"
        },
        {
          "internalType": "enum ChainAIV2.ModelCategory",
          "name": "modelCategory",
          "type": "uint8"
        },
        {
          "internalType": "enum ChainAIV2.InputDataLocationType",
          "name": "inputDataLocationType",
          "type": "uint8"
        },
        {
          "internalType": "enum ChainAIV2.OutputDataLocationType",
          "name": "outputDataLocationType",
          "type": "uint8"
        },
        {
          "internalType": "enum ChainAIV2.OutputDataFormat",
          "name": "outputDataFormat",
          "type": "uint8"
        },
        {
          "internalType": "bytes",
          "name": "seed",
          "type": "bytes"
        },
        {
          "internalType": "string",
          "name": "modelConfigLocation",
          "type": "string"
        },
        {
          "internalType": "string",
          "name": "input",
          "type": "string"
        },
        {
          "internalType": "string",
          "name": "output",
          "type": "string"
        }
      ],
      "stateMutability": "view",
      "type": "function"
    },
    {
      "inputs": [
        {
          "internalType": "string",
          "name": "modelConfigLocation",
          "type": "string"
        },
        {
          "internalType": "string",
          "name": "prompt",
          "type": "string"
        },
        {
          "internalType": "uint256",
          "name": "callbackId",
          "type": "uint256"
        },
        {
          "internalType": "bytes",
          "name": "seed",
          "type": "bytes"
        }
      ],
      "name": "promptConditionedTextGeneration",
      "outputs": [],
      "stateMutability": "payable",
      "type": "function"
    },
    {
      "inputs": [
        {
          "internalType": "address",
          "name": "sequencer",
          "type": "address"
        }
      ],
      "name": "removeSequencer",
      "outputs": [],
      "stateMutability": "nonpayable",
      "type": "function"
    },
    {
      "inputs": [
        {
          "internalType": "address",
          "name": "",
          "type": "address"
        }
      ],
      "name": "sequencers",
      "outputs": [
        {
          "internalType": "bool",
          "name": "",
          "type": "bool"
        }
      ],
      "stateMutability": "view",
      "type": "function"
    },
    {
      "inputs": [
        {
          "internalType": "string",
          "name": "modelConfigLocation",
          "type": "string"
        },
        {
          "internalType": "string",
          "name": "prompt",
          "type": "string"
        },
        {
          "internalType": "uint256",
          "name": "callbackId",
          "type": "uint256"
        },
        {
          "internalType": "bytes",
          "name": "seed",
          "type": "bytes"
        },
        {
          "internalType": "enum ChainAIV2.OutputDataFormat",
          "name": "outputDataFormat",
          "type": "uint8"
        }
      ],
      "name": "textConditionalImageGeneration",
      "outputs": [],
      "stateMutability": "payable",
      "type": "function"
    },
    {
      "inputs": [
        {
          "internalType": "string",
          "name": "modelConfigLocation",
          "type": "string"
        },
        {
          "internalType": "uint256",
          "name": "callbackId",
          "type": "uint256"
        },
        {
          "internalType": "bytes",
          "name": "seed",
          "type": "bytes"
        },
        {
          "internalType": "enum ChainAIV2.OutputDataFormat",
          "name": "outputDataFormat",
          "type": "uint8"
        }
      ],
      "name": "unconditionalImageGeneration",
      "outputs": [],
      "stateMutability": "payable",
      "type": "function"
    },
    {
      "inputs": [
        {
          "internalType": "uint256",
          "name": "price",
          "type": "uint256"
        }
      ],
      "name": "updateInferencePrice",
      "outputs": [],
      "stateMutability": "nonpayable",
      "type": "function"
    },
    {
      "inputs": [
        {
          "internalType": "uint256",
          "name": "jobId",
          "type": "uint256"
        },
        {
          "internalType": "enum ChainAIV2.JobStatus",
          "name": "jobStatus",
          "type": "uint8"
        },
        {
          "internalType": "string",
          "name": "resultsLocation",
          "type": "string"
        }
      ],
      "name": "updateJobStatus",
      "outputs": [],
      "stateMutability": "nonpayable",
      "type": "function"
    },
    {
      "inputs": [],
      "name": "withdraw",
      "outputs": [],
      "stateMutability": "nonpayable",
      "type": "function"
    }
  ],
  "bytecode": "0x60806040523480156200001157600080fd5b506040516200221c3803806200221c83398181016040528101906200003791906200009d565b33600260006101000a81548173ffffffffffffffffffffffffffffffffffffffff021916908373ffffffffffffffffffffffffffffffffffffffff1602179055508060008190555050620000ed565b6000815190506200009781620000d3565b92915050565b600060208284031215620000b057600080fd5b6000620000c08482850162000086565b91505092915050565b6000819050919050565b620000de81620000c9565b8114620000ea57600080fd5b50565b61211f80620000fd6000396000f3fe60806040526004361061009c5760003560e01c8063229af28a11610064578063229af28a146101845780633ccfd60b146101a05780634f36a184146101b75780636989ca7c146101e25780638a3362311461020b578063eb177b8e146102345761009c565b806301f81fa4146100a15780630517c919146100bd5780630dd07f79146100d9578063180aedf3146101025780631c7a07ee14610147575b600080fd5b6100bb60048036038101906100b691906115a8565b61025d565b005b6100d760048036038101906100d29190611667565b610277565b005b3480156100e557600080fd5b5061010060048036038101906100fb91906116fa565b61029f565b005b34801561010e57600080fd5b50610129600480360381019061012491906116fa565b610339565b60405161013e99989796959493929190611a4a565b60405180910390f35b34801561015357600080fd5b5061016e600480360381019061016991906114d4565b6106e0565b60405161017b91906119af565b60405180910390f35b61019e600480360381019061019991906114fd565b610700565b005b3480156101ac57600080fd5b506101b561071a565b005b3480156101c357600080fd5b506101cc61087b565b6040516101d99190611af7565b60405180910390f35b3480156101ee57600080fd5b50610209600480360381019061020491906114d4565b610881565b005b34801561021757600080fd5b50610232600480360381019061022d91906114d4565b61096c565b005b34801561024057600080fd5b5061025b60048036038101906102569190611723565b610a57565b005b6102706000838588600289600088610d74565b5050505050565b6102996001838587600260405180602001604052806000815250600088610d74565b50505050565b600260009054906101000a900473ffffffffffffffffffffffffffffffffffffffff1673ffffffffffffffffffffffffffffffffffffffff163373ffffffffffffffffffffffffffffffffffffffff161461032f576040517f08c379a000000000000000000000000000000000000000000000000000000000815260040161032690611a2a565b60405180910390fd5b8060008190555050565b6004602052806000526040600020600091509050806000016040518060a00160405290816000820160009054906101000a900460ff1660028111156103a7577f4e487b7100000000000000000000000000000000000000000000000000000000600052602160045260246000fd5b60028111156103df577f4e487b7100000000000000000000000000000000000000000000000000000000600052602160045260246000fd5b81526020016001820154815260200160028201548152602001600382015481526020016004820160009054906101000a900473ffffffffffffffffffffffffffffffffffffffff1673ffffffffffffffffffffffffffffffffffffffff1673ffffffffffffffffffffffffffffffffffffffff1681525050908060050160009054906101000a900460ff16908060050160019054906101000a900460ff16908060050160029054906101000a900460ff16908060050160039054906101000a900460ff16908060060180546104b390611df1565b80601f01602080910402602001604051908101604052809291908181526020018280546104df90611df1565b801561052c5780601f106105015761010080835404028352916020019161052c565b820191906000526020600020905b81548152906001019060200180831161050f57829003601f168201915b50505050509080600701805461054190611df1565b80601f016020809104026020016040519081016040528092919081815260200182805461056d90611df1565b80156105ba5780601f1061058f576101008083540402835291602001916105ba565b820191906000526020600020905b81548152906001019060200180831161059d57829003601f168201915b5050505050908060080180546105cf90611df1565b80601f01602080910402602001604051908101604052809291908181526020018280546105fb90611df1565b80156106485780601f1061061d57610100808354040283529160200191610648565b820191906000526020600020905b81548152906001019060200180831161062b57829003601f168201915b50505050509080600901805461065d90611df1565b80601f016020809104026020016040519081016040528092919081815260200182805461068990611df1565b80156106d65780601f106106ab576101008083540402835291602001916106d6565b820191906000526020600020905b8154815290600101906020018083116106b957829003601f168201915b5050505050905089565b60036020528060005260406000206000915054906101000a900460ff1681565b610714600282848760028860026000610d74565b50505050565b600260009054906101000a900473ffffffffffffffffffffffffffffffffffffffff1673ffffffffffffffffffffffffffffffffffffffff163373ffffffffffffffffffffffffffffffffffffffff16146107aa576040517f08c379a00000000000000000000000000000000000000000000000000000000081526004016107a190611a2a565b60405180910390fd5b6000600260009054906101000a900473ffffffffffffffffffffffffffffffffffffffff1673ffffffffffffffffffffffffffffffffffffffff16476040516107f29061199a565b60006040518083038185875af1925050503d806000811461082f576040519150601f19603f3d011682016040523d82523d6000602084013e610834565b606091505b5050905080610878576040517f08c379a000000000000000000000000000000000000000000000000000000000815260040161086f90611a0a565b60405180910390fd5b50565b60005481565b600260009054906101000a900473ffffffffffffffffffffffffffffffffffffffff1673ffffffffffffffffffffffffffffffffffffffff163373ffffffffffffffffffffffffffffffffffffffff1614610911576040517f08c379a000000000000000000000000000000000000000000000000000000000815260040161090890611a2a565b60405180910390fd5b6000600360008373ffffffffffffffffffffffffffffffffffffffff1673ffffffffffffffffffffffffffffffffffffffff16815260200190815260200160002060006101000a81548160ff02191690831515021790555050565b600260009054906101000a900473ffffffffffffffffffffffffffffffffffffffff1673ffffffffffffffffffffffffffffffffffffffff163373ffffffffffffffffffffffffffffffffffffffff16146109fc576040517f08c379a00000000000000000000000000000000000000000000000000000000081526004016109f390611a2a565b60405180910390fd5b6001600360008373ffffffffffffffffffffffffffffffffffffffff1673ffffffffffffffffffffffffffffffffffffffff16815260200190815260200160002060006101000a81548160ff02191690831515021790555050565b600360003373ffffffffffffffffffffffffffffffffffffffff1673ffffffffffffffffffffffffffffffffffffffff16815260200190815260200160002060009054906101000a900460ff16610ae3576040517f08c379a0000000000000000000000000000000000000000000000000000000008152600401610ada906119ea565b60405180910390fd5b60008060046000868152602001908152602001600020905080600001915082816009019080519060200190610b19929190611287565b50838260000160006101000a81548160ff02191690836002811115610b67577f4e487b7100000000000000000000000000000000000000000000000000000000600052602160045260246000fd5b021790555060016002811115610ba6577f4e487b7100000000000000000000000000000000000000000000000000000000600052602160045260246000fd5b846002811115610bdf577f4e487b7100000000000000000000000000000000000000000000000000000000600052602160045260246000fd5b1415610c21577fb75cf56c3b87307029f0059a671fedc39db6212ba4ef07f39d4f053185dc900685604051610c149190611af7565b60405180910390a1610d6d565b600280811115610c5a577f4e487b7100000000000000000000000000000000000000000000000000000000600052602160045260246000fd5b846002811115610c93577f4e487b7100000000000000000000000000000000000000000000000000000000600052602160045260246000fd5b1415610d6c5760008260040160009054906101000a900473ffffffffffffffffffffffffffffffffffffffff1690508073ffffffffffffffffffffffffffffffffffffffff1663400021078460030154866040518363ffffffff1660e01b8152600401610d01929190611bb4565b600060405180830381600087803b158015610d1b57600080fd5b505af1158015610d2f573d6000803e3d6000fd5b505050507fc5ff1ec8ea45d0671a3ea8676bd4bcb43a0b3550d0e6b392e4e1c42bcd22082786604051610d629190611af7565b60405180910390a1505b5b5050505050565b600054341015610db9576040517f08c379a0000000000000000000000000000000000000000000000000000000008152600401610db0906119ca565b60405180910390fd5b60016000815480929190610dcc90611e54565b9190505550600042905060006040518060a0016040528060006002811115610e1d577f4e487b7100000000000000000000000000000000000000000000000000000000600052602160045260246000fd5b815260200160015481526020018381526020018981526020013373ffffffffffffffffffffffffffffffffffffffff16815250905060006040518061012001604052808381526020018c6002811115610e9f577f4e487b7100000000000000000000000000000000000000000000000000000000600052602160045260246000fd5b8152602001886002811115610edd577f4e487b7100000000000000000000000000000000000000000000000000000000600052602160045260246000fd5b8152602001866002811115610f1b577f4e487b7100000000000000000000000000000000000000000000000000000000600052602160045260246000fd5b8152602001856001811115610f59577f4e487b7100000000000000000000000000000000000000000000000000000000600052602160045260246000fd5b81526020018b81526020018981526020018781526020016040518060200160405280600081525081525090508060046000600154815260200190815260200160002060008201518160000160008201518160000160006101000a81548160ff02191690836002811115610ff5577f4e487b7100000000000000000000000000000000000000000000000000000000600052602160045260246000fd5b021790555060208201518160010155604082015181600201556060820151816003015560808201518160040160006101000a81548173ffffffffffffffffffffffffffffffffffffffff021916908373ffffffffffffffffffffffffffffffffffffffff160217905550505060208201518160050160006101000a81548160ff021916908360028111156110b2577f4e487b7100000000000000000000000000000000000000000000000000000000600052602160045260246000fd5b021790555060408201518160050160016101000a81548160ff02191690836002811115611108577f4e487b7100000000000000000000000000000000000000000000000000000000600052602160045260246000fd5b021790555060608201518160050160026101000a81548160ff0219169083600281111561115e577f4e487b7100000000000000000000000000000000000000000000000000000000600052602160045260246000fd5b021790555060808201518160050160036101000a81548160ff021916908360018111156111b4577f4e487b7100000000000000000000000000000000000000000000000000000000600052602160045260246000fd5b021790555060a08201518160060190805190602001906111d592919061130d565b5060c08201518160070190805190602001906111f2929190611287565b5060e082015181600801908051906020019061120f929190611287565b5061010082015181600901908051906020019061122d929190611287565b509050507f1529f354cf8b170521e59ba0012587aaa9f0f8f237034a968395248656545c796001548c8c8b8b8b8b8b8b60405161127299989796959493929190611b12565b60405180910390a15050505050505050505050565b82805461129390611df1565b90600052602060002090601f0160209004810192826112b557600085556112fc565b82601f106112ce57805160ff19168380011785556112fc565b828001600101855582156112fc579182015b828111156112fb5782518255916020019190600101906112e0565b5b5090506113099190611393565b5090565b82805461131990611df1565b90600052602060002090601f01602090048101928261133b5760008555611382565b82601f1061135457805160ff1916838001178555611382565b82800160010185558215611382579182015b82811115611381578251825591602001919060010190611366565b5b50905061138f9190611393565b5090565b5b808211156113ac576000816000905550600101611394565b5090565b60006113c36113be84611c09565b611be4565b9050828152602081018484840111156113db57600080fd5b6113e6848285611daf565b509392505050565b60006114016113fc84611c3a565b611be4565b90508281526020810184848401111561141957600080fd5b611424848285611daf565b509392505050565b60008135905061143b8161209b565b92915050565b600082601f83011261145257600080fd5b81356114628482602086016113b0565b91505092915050565b60008135905061147a816120b2565b92915050565b60008135905061148f816120c2565b92915050565b600082601f8301126114a657600080fd5b81356114b68482602086016113ee565b91505092915050565b6000813590506114ce816120d2565b92915050565b6000602082840312156114e657600080fd5b60006114f48482850161142c565b91505092915050565b6000806000806080858703121561151357600080fd5b600085013567ffffffffffffffff81111561152d57600080fd5b61153987828801611495565b945050602085013567ffffffffffffffff81111561155657600080fd5b61156287828801611495565b9350506040611573878288016114bf565b925050606085013567ffffffffffffffff81111561159057600080fd5b61159c87828801611441565b91505092959194509250565b600080600080600060a086880312156115c057600080fd5b600086013567ffffffffffffffff8111156115da57600080fd5b6115e688828901611495565b955050602086013567ffffffffffffffff81111561160357600080fd5b61160f88828901611495565b9450506040611620888289016114bf565b935050606086013567ffffffffffffffff81111561163d57600080fd5b61164988828901611441565b925050608061165a88828901611480565b9150509295509295909350565b6000806000806080858703121561167d57600080fd5b600085013567ffffffffffffffff81111561169757600080fd5b6116a387828801611495565b94505060206116b4878288016114bf565b935050604085013567ffffffffffffffff8111156116d157600080fd5b6116dd87828801611441565b92505060606116ee87828801611480565b91505092959194509250565b60006020828403121561170c57600080fd5b600061171a848285016114bf565b91505092915050565b60008060006060848603121561173857600080fd5b6000611746868287016114bf565b93505060206117578682870161146b565b925050604084013567ffffffffffffffff81111561177457600080fd5b61178086828701611495565b9150509250925092565b61179381611cae565b82525050565b6117a281611cc0565b82525050565b60006117b382611c6b565b6117bd8185611c81565b93506117cd818560208601611dbe565b6117d681611f59565b840191505092915050565b6117ea81611d55565b82525050565b6117f981611d67565b82525050565b61180881611d79565b82525050565b61181781611d8b565b82525050565b61182681611d9d565b82525050565b600061183782611c76565b6118418185611c9d565b9350611851818560208601611dbe565b61185a81611f59565b840191505092915050565b6000611872602283611c9d565b915061187d82611f6a565b604082019050919050565b6000611895601883611c9d565b91506118a082611fb9565b602082019050919050565b60006118b8600f83611c9d565b91506118c382611fe2565b602082019050919050565b60006118db601283611c9d565b91506118e68261200b565b602082019050919050565b60006118fe600083611c92565b915061190982612034565b600082019050919050565b60a08201600082015161192a60008501826117f0565b50602082015161193d602085018261197c565b506040820151611950604085018261197c565b506060820151611963606085018261197c565b506080820151611976608085018261178a565b50505050565b61198581611d4b565b82525050565b61199481611d4b565b82525050565b60006119a5826118f1565b9150819050919050565b60006020820190506119c46000830184611799565b92915050565b600060208201905081810360008301526119e381611865565b9050919050565b60006020820190508181036000830152611a0381611888565b9050919050565b60006020820190508181036000830152611a23816118ab565b9050919050565b60006020820190508181036000830152611a43816118ce565b9050919050565b60006101a082019050611a60600083018c611914565b611a6d60a083018b6117ff565b611a7a60c083018a6117e1565b611a8760e083018961181d565b611a9561010083018861180e565b818103610120830152611aa881876117a8565b9050818103610140830152611abd818661182c565b9050818103610160830152611ad2818561182c565b9050818103610180830152611ae7818461182c565b90509a9950505050505050505050565b6000602082019050611b0c600083018461198b565b92915050565b600061012082019050611b28600083018c61198b565b611b35602083018b6117ff565b8181036040830152611b47818a6117a8565b90508181036060830152611b5b818961182c565b9050611b6a60808301886117e1565b81810360a0830152611b7c818761182c565b9050611b8b60c083018661181d565b611b9860e083018561180e565b611ba661010083018461198b565b9a9950505050505050505050565b6000604082019050611bc9600083018561198b565b8181036020830152611bdb818461182c565b90509392505050565b6000611bee611bff565b9050611bfa8282611e23565b919050565b6000604051905090565b600067ffffffffffffffff821115611c2457611c23611f2a565b5b611c2d82611f59565b9050602081019050919050565b600067ffffffffffffffff821115611c5557611c54611f2a565b5b611c5e82611f59565b9050602081019050919050565b600081519050919050565b600081519050919050565b600082825260208201905092915050565b600081905092915050565b600082825260208201905092915050565b6000611cb982611d2b565b9050919050565b60008115159050919050565b6000819050611cda82612037565b919050565b6000819050611ced8261204b565b919050565b6000819050611d008261205f565b919050565b6000819050611d1382612073565b919050565b6000819050611d2682612087565b919050565b600073ffffffffffffffffffffffffffffffffffffffff82169050919050565b6000819050919050565b6000611d6082611ccc565b9050919050565b6000611d7282611cdf565b9050919050565b6000611d8482611cf2565b9050919050565b6000611d9682611d05565b9050919050565b6000611da882611d18565b9050919050565b82818337600083830152505050565b60005b83811015611ddc578082015181840152602081019050611dc1565b83811115611deb576000848401525b50505050565b60006002820490506001821680611e0957607f821691505b60208210811415611e1d57611e1c611efb565b5b50919050565b611e2c82611f59565b810181811067ffffffffffffffff82111715611e4b57611e4a611f2a565b5b80604052505050565b6000611e5f82611d4b565b91507fffffffffffffffffffffffffffffffffffffffffffffffffffffffffffffffff821415611e9257611e91611e9d565b5b600182019050919050565b7f4e487b7100000000000000000000000000000000000000000000000000000000600052601160045260246000fd5b7f4e487b7100000000000000000000000000000000000000000000000000000000600052602160045260246000fd5b7f4e487b7100000000000000000000000000000000000000000000000000000000600052602260045260246000fd5b7f4e487b7100000000000000000000000000000000000000000000000000000000600052604160045260246000fd5b6000601f19601f8301169050919050565b7f496e73756666696369656e74207061796d656e7420666f7220696e666572656e60008201527f6365000000000000000000000000000000000000000000000000000000000000602082015250565b7f4e6f74206120747275737465642047505520776f726b65720000000000000000600082015250565b7f5769746864726177206661696c65640000000000000000000000000000000000600082015250565b7f4f6e6c79206f776e657220616c6c6f7765640000000000000000000000000000600082015250565b50565b6003811061204857612047611ecc565b5b50565b6003811061205c5761205b611ecc565b5b50565b600381106120705761206f611ecc565b5b50565b6002811061208457612083611ecc565b5b50565b6003811061209857612097611ecc565b5b50565b6120a481611cae565b81146120af57600080fd5b50565b600381106120bf57600080fd5b50565b600281106120cf57600080fd5b50565b6120db81611d4b565b81146120e657600080fd5b5056fea2646970667358221220a7bdc189f529cdb0b410ea01b4f4e7f6516ce7edc2133886da4d04aaef03561864736f6c63430008040033",
  "linkReferences": {},
  "deployedLinkReferences": {}
}