{
  "_format": "hh-sol-artifact-1",
  "contractName": "EvolvingNFT",
  "sourceName": "contracts/EvolvingNFT.sol",
  "abi": [
    {
      "inputs": [
        {
          "internalType": "address",
          "name": "owner_",
          "type": "address"
        },
        {
          "internalType": "address",
          "name": "model_",
          "type": "address"
        },
        {
          "internalType": "uint256",
          "name": "price_",
          "type": "uint256"
        },
        {
          "internalType": "string",
          "name": "loadingImg_",
          "type": "string"
        }
      ],
      "stateMutability": "nonpayable",
      "type": "constructor"
    },
    {
      "anonymous": false,
      "inputs": [
        {
          "indexed": true,
          "internalType": "address",
          "name": "owner",
          "type": "address"
        },
        {
          "indexed": true,
          "internalType": "address",
          "name": "approved",
          "type": "address"
        },
        {
          "indexed": true,
          "internalType": "uint256",
          "name": "tokenId",
          "type": "uint256"
        }
      ],
      "name": "Approval",
      "type": "event"
    },
    {
      "anonymous": false,
      "inputs": [
        {
          "indexed": true,
          "internalType": "address",
          "name": "owner",
          "type": "address"
        },
        {
          "indexed": true,
          "internalType": "address",
          "name": "operator",
          "type": "address"
        },
        {
          "indexed": false,
          "internalType": "bool",
          "name": "approved",
          "type": "bool"
        }
      ],
      "name": "ApprovalForAll",
      "type": "event"
    },
    {
      "anonymous": false,
      "inputs": [
        {
          "indexed": false,
          "internalType": "uint256",
          "name": "tokenId",
          "type": "uint256"
        },
        {
          "indexed": false,
          "internalType": "string",
          "name": "tokenURI",
          "type": "string"
        }
      ],
      "name": "TokenUriSet",
      "type": "event"
    },
    {
      "anonymous": false,
      "inputs": [
        {
          "indexed": true,
          "internalType": "address",
          "name": "from",
          "type": "address"
        },
        {
          "indexed": true,
          "internalType": "address",
          "name": "to",
          "type": "address"
        },
        {
          "indexed": true,
          "internalType": "uint256",
          "name": "tokenId",
          "type": "uint256"
        }
      ],
      "name": "Transfer",
      "type": "event"
    },
    {
      "inputs": [
        {
          "internalType": "address",
          "name": "to",
          "type": "address"
        },
        {
          "internalType": "uint256",
          "name": "tokenId",
          "type": "uint256"
        }
      ],
      "name": "approve",
      "outputs": [],
      "stateMutability": "nonpayable",
      "type": "function"
    },
    {
      "inputs": [
        {
          "internalType": "address",
          "name": "owner",
          "type": "address"
        }
      ],
      "name": "balanceOf",
      "outputs": [
        {
          "internalType": "uint256",
          "name": "",
          "type": "uint256"
        }
      ],
      "stateMutability": "view",
      "type": "function"
    },
    {
      "inputs": [],
      "name": "currentTokenId",
      "outputs": [
        {
          "internalType": "uint256",
          "name": "",
          "type": "uint256"
        }
      ],
      "stateMutability": "view",
      "type": "function"
    },
    {
      "inputs": [
        {
          "internalType": "uint256",
          "name": "tokenId",
          "type": "uint256"
        }
      ],
      "name": "getApproved",
      "outputs": [
        {
          "internalType": "address",
          "name": "",
          "type": "address"
        }
      ],
      "stateMutability": "view",
      "type": "function"
    },
    {
      "inputs": [
        {
          "internalType": "address",
          "name": "owner",
          "type": "address"
        },
        {
          "internalType": "address",
          "name": "operator",
          "type": "address"
        }
      ],
      "name": "isApprovedForAll",
      "outputs": [
        {
          "internalType": "bool",
          "name": "",
          "type": "bool"
        }
      ],
      "stateMutability": "view",
      "type": "function"
    },
    {
      "inputs": [],
      "name": "loadingImg",
      "outputs": [
        {
          "internalType": "string",
          "name": "",
          "type": "string"
        }
      ],
      "stateMutability": "view",
      "type": "function"
    },
    {
      "inputs": [
        {
          "internalType": "address",
          "name": "to",
          "type": "address"
        },
        {
          "internalType": "string",
          "name": "prompt",
          "type": "string"
        }
      ],
      "name": "mint",
      "outputs": [
        {
          "internalType": "uint256",
          "name": "",
          "type": "uint256"
        }
      ],
      "stateMutability": "payable",
      "type": "function"
    },
    {
      "inputs": [],
      "name": "model",
      "outputs": [
        {
          "internalType": "address",
          "name": "",
          "type": "address"
        }
      ],
      "stateMutability": "view",
      "type": "function"
    },
    {
      "inputs": [],
      "name": "name",
      "outputs": [
        {
          "internalType": "string",
          "name": "",
          "type": "string"
        }
      ],
      "stateMutability": "view",
      "type": "function"
    },
    {
      "inputs": [
        {
          "internalType": "uint256",
          "name": "tokenId",
          "type": "uint256"
        }
      ],
      "name": "ownerOf",
      "outputs": [
        {
          "internalType": "address",
          "name": "",
          "type": "address"
        }
      ],
      "stateMutability": "view",
      "type": "function"
    },
    {
      "inputs": [],
      "name": "price",
      "outputs": [
        {
          "internalType": "uint256",
          "name": "",
          "type": "uint256"
        }
      ],
      "stateMutability": "view",
      "type": "function"
    },
    {
      "inputs": [
        {
          "internalType": "address",
          "name": "from",
          "type": "address"
        },
        {
          "internalType": "address",
          "name": "to",
          "type": "address"
        },
        {
          "internalType": "uint256",
          "name": "tokenId",
          "type": "uint256"
        }
      ],
      "name": "safeTransferFrom",
      "outputs": [],
      "stateMutability": "nonpayable",
      "type": "function"
    },
    {
      "inputs": [
        {
          "internalType": "address",
          "name": "from",
          "type": "address"
        },
        {
          "internalType": "address",
          "name": "to",
          "type": "address"
        },
        {
          "internalType": "uint256",
          "name": "tokenId",
          "type": "uint256"
        },
        {
          "internalType": "bytes",
          "name": "_data",
          "type": "bytes"
        }
      ],
      "name": "safeTransferFrom",
      "outputs": [],
      "stateMutability": "nonpayable",
      "type": "function"
    },
    {
      "inputs": [
        {
          "internalType": "address",
          "name": "operator",
          "type": "address"
        },
        {
          "internalType": "bool",
          "name": "approved",
          "type": "bool"
        }
      ],
      "name": "setApprovalForAll",
      "outputs": [],
      "stateMutability": "nonpayable",
      "type": "function"
    },
    {
      "inputs": [
        {
          "internalType": "string",
          "name": "newLoadingImg",
          "type": "string"
        }
      ],
      "name": "setLoadingImage",
      "outputs": [],
      "stateMutability": "nonpayable",
      "type": "function"
    },
    {
      "inputs": [
        {
          "internalType": "uint256",
          "name": "price_",
          "type": "uint256"
        }
      ],
      "name": "setMintPriceToThisContract",
      "outputs": [],
      "stateMutability": "nonpayable",
      "type": "function"
    },
    {
      "inputs": [
        {
          "internalType": "uint256",
          "name": "id",
          "type": "uint256"
        },
        {
          "internalType": "string",
          "name": "location",
          "type": "string"
        }
      ],
      "name": "setOutput",
      "outputs": [],
      "stateMutability": "nonpayable",
      "type": "function"
    },
    {
      "inputs": [
        {
          "internalType": "bytes4",
          "name": "interfaceId",
          "type": "bytes4"
        }
      ],
      "name": "supportsInterface",
      "outputs": [
        {
          "internalType": "bool",
          "name": "",
          "type": "bool"
        }
      ],
      "stateMutability": "view",
      "type": "function"
    },
    {
      "inputs": [],
      "name": "symbol",
      "outputs": [
        {
          "internalType": "string",
          "name": "",
          "type": "string"
        }
      ],
      "stateMutability": "view",
      "type": "function"
    },
    {
      "inputs": [
        {
          "internalType": "uint256",
          "name": "index",
          "type": "uint256"
        }
      ],
      "name": "tokenByIndex",
      "outputs": [
        {
          "internalType": "uint256",
          "name": "",
          "type": "uint256"
        }
      ],
      "stateMutability": "view",
      "type": "function"
    },
    {
      "inputs": [
        {
          "internalType": "uint256",
          "name": "",
          "type": "uint256"
        }
      ],
      "name": "tokenIdToDataInput",
      "outputs": [
        {
          "internalType": "string",
          "name": "",
          "type": "string"
        }
      ],
      "stateMutability": "view",
      "type": "function"
    },
    {
      "inputs": [
        {
          "internalType": "address",
          "name": "owner",
          "type": "address"
        },
        {
          "internalType": "uint256",
          "name": "index",
          "type": "uint256"
        }
      ],
      "name": "tokenOfOwnerByIndex",
      "outputs": [
        {
          "internalType": "uint256",
          "name": "",
          "type": "uint256"
        }
      ],
      "stateMutability": "view",
      "type": "function"
    },
    {
      "inputs": [
        {
          "internalType": "uint256",
          "name": "tokenId",
          "type": "uint256"
        }
      ],
      "name": "tokenURI",
      "outputs": [
        {
          "internalType": "string",
          "name": "",
          "type": "string"
        }
      ],
      "stateMutability": "view",
      "type": "function"
    },
    {
      "inputs": [],
      "name": "totalSupply",
      "outputs": [
        {
          "internalType": "uint256",
          "name": "",
          "type": "uint256"
        }
      ],
      "stateMutability": "view",
      "type": "function"
    },
    {
      "inputs": [
        {
          "internalType": "address",
          "name": "from",
          "type": "address"
        },
        {
          "internalType": "address",
          "name": "to",
          "type": "address"
        },
        {
          "internalType": "uint256",
          "name": "tokenId",
          "type": "uint256"
        }
      ],
      "name": "transferFrom",
      "outputs": [],
      "stateMutability": "nonpayable",
      "type": "function"
    },
    {
      "inputs": [],
      "name": "withdraw",
      "outputs": [],
      "stateMutability": "nonpayable",
      "type": "function"
    }
  ],
  "bytecode": "0x60806040523480156200001157600080fd5b5060405162004743380380620047438339818101604052810190620000379190620002d3565b6040518060400160405280600b81526020017f45766f6c76696e674e46540000000000000000000000000000000000000000008152506040518060400160405280600381526020017f45564f00000000000000000000000000000000000000000000000000000000008152508160009080519060200190620000bb92919062000183565b508060019080519060200190620000d492919062000183565b50505083600b60006101000a81548173ffffffffffffffffffffffffffffffffffffffff021916908373ffffffffffffffffffffffffffffffffffffffff16021790555082600c60006101000a81548173ffffffffffffffffffffffffffffffffffffffff021916908373ffffffffffffffffffffffffffffffffffffffff16021790555081600e8190555080600f90805190602001906200017892919062000183565b50505050506200053a565b82805462000191906200042b565b90600052602060002090601f016020900481019282620001b5576000855562000201565b82601f10620001d057805160ff191683800117855562000201565b8280016001018555821562000201579182015b8281111562000200578251825591602001919060010190620001e3565b5b50905062000210919062000214565b5090565b5b808211156200022f57600081600090555060010162000215565b5090565b60006200024a620002448462000381565b62000358565b9050828152602081018484840111156200026357600080fd5b62000270848285620003f5565b509392505050565b600081519050620002898162000506565b92915050565b600082601f830112620002a157600080fd5b8151620002b384826020860162000233565b91505092915050565b600081519050620002cd8162000520565b92915050565b60008060008060808587031215620002ea57600080fd5b6000620002fa8782880162000278565b94505060206200030d8782880162000278565b93505060406200032087828801620002bc565b925050606085015167ffffffffffffffff8111156200033e57600080fd5b6200034c878288016200028f565b91505092959194509250565b60006200036462000377565b905062000372828262000461565b919050565b6000604051905090565b600067ffffffffffffffff8211156200039f576200039e620004c6565b5b620003aa82620004f5565b9050602081019050919050565b6000620003c482620003cb565b9050919050565b600073ffffffffffffffffffffffffffffffffffffffff82169050919050565b6000819050919050565b60005b8381101562000415578082015181840152602081019050620003f8565b8381111562000425576000848401525b50505050565b600060028204905060018216806200044457607f821691505b602082108114156200045b576200045a62000497565b5b50919050565b6200046c82620004f5565b810181811067ffffffffffffffff821117156200048e576200048d620004c6565b5b80604052505050565b7f4e487b7100000000000000000000000000000000000000000000000000000000600052602260045260246000fd5b7f4e487b7100000000000000000000000000000000000000000000000000000000600052604160045260246000fd5b6000601f19601f8301169050919050565b6200051181620003b7565b81146200051d57600080fd5b50565b6200052b81620003eb565b81146200053757600080fd5b50565b6141f9806200054a6000396000f3fe6080604052600436106101805760003560e01c80634f6ccce7116100d1578063a035b1fe1161008a578063b88d4fde11610064578063b88d4fde14610593578063c87b56dd146105bc578063d0def521146105f9578063e985e9c51461062957610180565b8063a035b1fe14610516578063a22cb46514610541578063b698904a1461056a57610180565b80634f6ccce7146103e057806352620c351461041d5780636352211e1461044657806370a082311461048357806395d89b41146104c05780639c6b1bda146104eb57610180565b8063112b91b91161013e5780632f745c59116101185780632f745c591461033a5780633ccfd60b14610377578063400021071461038e57806342842e0e146103b757610180565b8063112b91b9146102a957806318160ddd146102e657806323b872dd1461031157610180565b80629a9b7b1461018557806301ffc9a7146101b057806306fdde03146101ed578063081812fc14610218578063095ea7b3146102555780630ad9d0521461027e575b600080fd5b34801561019157600080fd5b5061019a610666565b6040516101a791906136bb565b60405180910390f35b3480156101bc57600080fd5b506101d760048036038101906101d29190612c89565b61066c565b6040516101e49190613318565b60405180910390f35b3480156101f957600080fd5b5061020261068e565b60405161020f9190613333565b60405180910390f35b34801561022457600080fd5b5061023f600480360381019061023a9190612d1c565b610720565b60405161024c91906132b1565b60405180910390f35b34801561026157600080fd5b5061027c60048036038101906102779190612c4d565b6107a5565b005b34801561028a57600080fd5b506102936108bd565b6040516102a091906132b1565b60405180910390f35b3480156102b557600080fd5b506102d060048036038101906102cb9190612d1c565b6108e3565b6040516102dd9190613333565b60405180910390f35b3480156102f257600080fd5b506102fb610983565b60405161030891906136bb565b60405180910390f35b34801561031d57600080fd5b5061033860048036038101906103339190612af3565b610990565b005b34801561034657600080fd5b50610361600480360381019061035c9190612c4d565b6109f0565b60405161036e91906136bb565b60405180910390f35b34801561038357600080fd5b5061038c610a95565b005b34801561039a57600080fd5b506103b560048036038101906103b09190612d6e565b610bf6565b005b3480156103c357600080fd5b506103de60048036038101906103d99190612af3565b610d56565b005b3480156103ec57600080fd5b5061040760048036038101906104029190612d1c565b610d76565b60405161041491906136bb565b60405180910390f35b34801561042957600080fd5b50610444600480360381019061043f9190612d1c565b610e0d565b005b34801561045257600080fd5b5061046d60048036038101906104689190612d1c565b610ea7565b60405161047a91906132b1565b60405180910390f35b34801561048f57600080fd5b506104aa60048036038101906104a59190612a65565b610f59565b6040516104b791906136bb565b60405180910390f35b3480156104cc57600080fd5b506104d5611011565b6040516104e29190613333565b60405180910390f35b3480156104f757600080fd5b506105006110a3565b60405161050d9190613333565b60405180910390f35b34801561052257600080fd5b5061052b611131565b60405161053891906136bb565b60405180910390f35b34801561054d57600080fd5b5061056860048036038101906105639190612bbd565b6111f6565b005b34801561057657600080fd5b50610591600480360381019061058c9190612cdb565b61120c565b005b34801561059f57600080fd5b506105ba60048036038101906105b59190612b42565b6112b6565b005b3480156105c857600080fd5b506105e360048036038101906105de9190612d1c565b611318565b6040516105f09190613333565b60405180910390f35b610613600480360381019061060e9190612bf9565b61132a565b60405161062091906136bb565b60405180910390f35b34801561063557600080fd5b50610650600480360381019061064b9190612ab7565b6115a4565b60405161065d9190613318565b60405180910390f35b600d5481565b600061067782611638565b806106875750610686826116b2565b5b9050919050565b60606000805461069d90613986565b80601f01602080910402602001604051908101604052809291908181526020018280546106c990613986565b80156107165780601f106106eb57610100808354040283529160200191610716565b820191906000526020600020905b8154815290600101906020018083116106f957829003601f168201915b5050505050905090565b600061072b82611794565b61076a576040517f08c379a0000000000000000000000000000000000000000000000000000000008152600401610761906135db565b60405180910390fd5b6004600083815260200190815260200160002060009054906101000a900473ffffffffffffffffffffffffffffffffffffffff169050919050565b60006107b082610ea7565b90508073ffffffffffffffffffffffffffffffffffffffff168373ffffffffffffffffffffffffffffffffffffffff161415610821576040517f08c379a00000000000000000000000000000000000000000000000000000000081526004016108189061361b565b60405180910390fd5b8073ffffffffffffffffffffffffffffffffffffffff16610840611800565b73ffffffffffffffffffffffffffffffffffffffff16148061086f575061086e81610869611800565b6115a4565b5b6108ae576040517f08c379a00000000000000000000000000000000000000000000000000000000081526004016108a5906134fb565b60405180910390fd5b6108b88383611808565b505050565b600c60009054906101000a900473ffffffffffffffffffffffffffffffffffffffff1681565b6010602052806000526040600020600091509050805461090290613986565b80601f016020809104026020016040519081016040528092919081815260200182805461092e90613986565b801561097b5780601f106109505761010080835404028352916020019161097b565b820191906000526020600020905b81548152906001019060200180831161095e57829003601f168201915b505050505081565b6000600880549050905090565b6109a161099b611800565b826118c1565b6109e0576040517f08c379a00000000000000000000000000000000000000000000000000000000081526004016109d79061363b565b60405180910390fd5b6109eb83838361199f565b505050565b60006109fb83610f59565b8210610a3c576040517f08c379a0000000000000000000000000000000000000000000000000000000008152600401610a33906133fb565b60405180910390fd5b600660008473ffffffffffffffffffffffffffffffffffffffff1673ffffffffffffffffffffffffffffffffffffffff168152602001908152602001600020600083815260200190815260200160002054905092915050565b600b60009054906101000a900473ffffffffffffffffffffffffffffffffffffffff1673ffffffffffffffffffffffffffffffffffffffff163373ffffffffffffffffffffffffffffffffffffffff1614610b25576040517f08c379a0000000000000000000000000000000000000000000000000000000008152600401610b1c9061351b565b60405180910390fd5b6000600b60009054906101000a900473ffffffffffffffffffffffffffffffffffffffff1673ffffffffffffffffffffffffffffffffffffffff1647604051610b6d9061329c565b60006040518083038185875af1925050503d8060008114610baa576040519150601f19603f3d011682016040523d82523d6000602084013e610baf565b606091505b5050905080610bf3576040517f08c379a0000000000000000000000000000000000000000000000000000000008152600401610bea9061347b565b60405180910390fd5b50565b6000600c60009054906101000a900473ffffffffffffffffffffffffffffffffffffffff16905060008173ffffffffffffffffffffffffffffffffffffffff16637dc0d1d06040518163ffffffff1660e01b815260040160206040518083038186803b158015610c6557600080fd5b505afa158015610c79573d6000803e3d6000fd5b505050506040513d601f19601f82011682018060405250810190610c9d9190612a8e565b90508073ffffffffffffffffffffffffffffffffffffffff163373ffffffffffffffffffffffffffffffffffffffff1614610d0d576040517f08c379a0000000000000000000000000000000000000000000000000000000008152600401610d049061369b565b60405180910390fd5b610d178484611c06565b7f6cf6b9ad03c115e67bcbd8096692d400e58bd03076049f0f767f759c06e577648484604051610d489291906136d6565b60405180910390a150505050565b610d71838383604051806020016040528060008152506112b6565b505050565b6000610d80610983565b8210610dc1576040517f08c379a0000000000000000000000000000000000000000000000000000000008152600401610db89061367b565b60405180910390fd5b60088281548110610dfb577f4e487b7100000000000000000000000000000000000000000000000000000000600052603260045260246000fd5b90600052602060002001549050919050565b600b60009054906101000a900473ffffffffffffffffffffffffffffffffffffffff1673ffffffffffffffffffffffffffffffffffffffff163373ffffffffffffffffffffffffffffffffffffffff1614610e9d576040517f08c379a0000000000000000000000000000000000000000000000000000000008152600401610e949061351b565b60405180910390fd5b80600e8190555050565b6000806002600084815260200190815260200160002060009054906101000a900473ffffffffffffffffffffffffffffffffffffffff169050600073ffffffffffffffffffffffffffffffffffffffff168173ffffffffffffffffffffffffffffffffffffffff161415610f50576040517f08c379a0000000000000000000000000000000000000000000000000000000008152600401610f479061355b565b60405180910390fd5b80915050919050565b60008073ffffffffffffffffffffffffffffffffffffffff168273ffffffffffffffffffffffffffffffffffffffff161415610fca576040517f08c379a0000000000000000000000000000000000000000000000000000000008152600401610fc19061353b565b60405180910390fd5b600360008373ffffffffffffffffffffffffffffffffffffffff1673ffffffffffffffffffffffffffffffffffffffff168152602001908152602001600020549050919050565b60606001805461102090613986565b80601f016020809104026020016040519081016040528092919081815260200182805461104c90613986565b80156110995780601f1061106e57610100808354040283529160200191611099565b820191906000526020600020905b81548152906001019060200180831161107c57829003601f168201915b5050505050905090565b600f80546110b090613986565b80601f01602080910402602001604051908101604052809291908181526020018280546110dc90613986565b80156111295780601f106110fe57610100808354040283529160200191611129565b820191906000526020600020905b81548152906001019060200180831161110c57829003601f168201915b505050505081565b600080600c60009054906101000a900473ffffffffffffffffffffffffffffffffffffffff16905060008173ffffffffffffffffffffffffffffffffffffffff1663a035b1fe6040518163ffffffff1660e01b815260040160206040518083038186803b1580156111a157600080fd5b505afa1580156111b5573d6000803e3d6000fd5b505050506040513d601f19601f820116820180604052508101906111d99190612d45565b9050600081600e546111eb91906137f0565b905080935050505090565b611208611201611800565b8383611c7a565b5050565b600b60009054906101000a900473ffffffffffffffffffffffffffffffffffffffff1673ffffffffffffffffffffffffffffffffffffffff163373ffffffffffffffffffffffffffffffffffffffff161461129c576040517f08c379a00000000000000000000000000000000000000000000000000000000081526004016112939061351b565b60405180910390fd5b80600f90805190602001906112b292919061285f565b5050565b6112c76112c1611800565b836118c1565b611306576040517f08c379a00000000000000000000000000000000000000000000000000000000081526004016112fd9061363b565b60405180910390fd5b61131284848484611de7565b50505050565b606061132382611e43565b9050919050565b6000611334611131565b341015611376576040517f08c379a000000000000000000000000000000000000000000000000000000000815260040161136d9061365b565b60405180910390fd5b600d6000815480929190611389906139e9565b919050555061139a83600d54611f95565b6000600c60009054906101000a900473ffffffffffffffffffffffffffffffffffffffff16905060008173ffffffffffffffffffffffffffffffffffffffff1663a035b1fe6040518163ffffffff1660e01b815260040160206040518083038186803b15801561140957600080fd5b505afa15801561141d573d6000803e3d6000fd5b505050506040513d601f19601f820116820180604052508101906114419190612d45565b90508173ffffffffffffffffffffffffffffffffffffffff166363639bee8286600d5489604051602001611475919061325d565b60405160208183030381529060405260016040518663ffffffff1660e01b81526004016114a59493929190613355565b6000604051808303818588803b1580156114be57600080fd5b505af11580156114d2573d6000803e3d6000fd5b50505050508360106000600d548152602001908152602001600020908051906020019061150092919061285f565b50611597600d54600f805461151490613986565b80601f016020809104026020016040519081016040528092919081815260200182805461154090613986565b801561158d5780601f106115625761010080835404028352916020019161158d565b820191906000526020600020905b81548152906001019060200180831161157057829003601f168201915b5050505050611c06565b600d549250505092915050565b6000600560008473ffffffffffffffffffffffffffffffffffffffff1673ffffffffffffffffffffffffffffffffffffffff16815260200190815260200160002060008373ffffffffffffffffffffffffffffffffffffffff1673ffffffffffffffffffffffffffffffffffffffff16815260200190815260200160002060009054906101000a900460ff16905092915050565b60007f780e9d63000000000000000000000000000000000000000000000000000000007bffffffffffffffffffffffffffffffffffffffffffffffffffffffff1916827bffffffffffffffffffffffffffffffffffffffffffffffffffffffff191614806116ab57506116aa826116b2565b5b9050919050565b60007f80ac58cd000000000000000000000000000000000000000000000000000000007bffffffffffffffffffffffffffffffffffffffffffffffffffffffff1916827bffffffffffffffffffffffffffffffffffffffffffffffffffffffff1916148061177d57507f5b5e139f000000000000000000000000000000000000000000000000000000007bffffffffffffffffffffffffffffffffffffffffffffffffffffffff1916827bffffffffffffffffffffffffffffffffffffffffffffffffffffffff1916145b8061178d575061178c8261216f565b5b9050919050565b60008073ffffffffffffffffffffffffffffffffffffffff166002600084815260200190815260200160002060009054906101000a900473ffffffffffffffffffffffffffffffffffffffff1673ffffffffffffffffffffffffffffffffffffffff1614159050919050565b600033905090565b816004600083815260200190815260200160002060006101000a81548173ffffffffffffffffffffffffffffffffffffffff021916908373ffffffffffffffffffffffffffffffffffffffff160217905550808273ffffffffffffffffffffffffffffffffffffffff1661187b83610ea7565b73ffffffffffffffffffffffffffffffffffffffff167f8c5be1e5ebec7d5bd14f71427d1e84f3dd0314c0f7b2291e5b200ac8c7c3b92560405160405180910390a45050565b60006118cc82611794565b61190b576040517f08c379a0000000000000000000000000000000000000000000000000000000008152600401611902906134db565b60405180910390fd5b600061191683610ea7565b90508073ffffffffffffffffffffffffffffffffffffffff168473ffffffffffffffffffffffffffffffffffffffff16148061198557508373ffffffffffffffffffffffffffffffffffffffff1661196d84610720565b73ffffffffffffffffffffffffffffffffffffffff16145b80611996575061199581856115a4565b5b91505092915050565b8273ffffffffffffffffffffffffffffffffffffffff166119bf82610ea7565b73ffffffffffffffffffffffffffffffffffffffff1614611a15576040517f08c379a0000000000000000000000000000000000000000000000000000000008152600401611a0c9061343b565b60405180910390fd5b600073ffffffffffffffffffffffffffffffffffffffff168273ffffffffffffffffffffffffffffffffffffffff161415611a85576040517f08c379a0000000000000000000000000000000000000000000000000000000008152600401611a7c9061349b565b60405180910390fd5b611a908383836121d9565b611a9b600082611808565b6001600360008573ffffffffffffffffffffffffffffffffffffffff1673ffffffffffffffffffffffffffffffffffffffff1681526020019081526020016000206000828254611aeb9190613877565b925050819055506001600360008473ffffffffffffffffffffffffffffffffffffffff1673ffffffffffffffffffffffffffffffffffffffff1681526020019081526020016000206000828254611b4291906137f0565b92505081905550816002600083815260200190815260200160002060006101000a81548173ffffffffffffffffffffffffffffffffffffffff021916908373ffffffffffffffffffffffffffffffffffffffff160217905550808273ffffffffffffffffffffffffffffffffffffffff168473ffffffffffffffffffffffffffffffffffffffff167fddf252ad1be2c89b69c2b068fc378daa952ba7f163c4a11628f55a4df523b3ef60405160405180910390a4611c01838383612435565b505050565b611c0f82611794565b611c4e576040517f08c379a0000000000000000000000000000000000000000000000000000000008152600401611c459061357b565b60405180910390fd5b80600a60008481526020019081526020016000209080519060200190611c7592919061285f565b505050565b8173ffffffffffffffffffffffffffffffffffffffff168373ffffffffffffffffffffffffffffffffffffffff161415611ce9576040517f08c379a0000000000000000000000000000000000000000000000000000000008152600401611ce0906134bb565b60405180910390fd5b80600560008573ffffffffffffffffffffffffffffffffffffffff1673ffffffffffffffffffffffffffffffffffffffff16815260200190815260200160002060008473ffffffffffffffffffffffffffffffffffffffff1673ffffffffffffffffffffffffffffffffffffffff16815260200190815260200160002060006101000a81548160ff0219169083151502179055508173ffffffffffffffffffffffffffffffffffffffff168373ffffffffffffffffffffffffffffffffffffffff167f17307eab39ab6107e8899845ad3d59bd9653f200f220920489ca2b5937696c3183604051611dda9190613318565b60405180910390a3505050565b611df284848461199f565b611dfe8484848461243a565b611e3d576040517f08c379a0000000000000000000000000000000000000000000000000000000008152600401611e349061341b565b60405180910390fd5b50505050565b6060611e4e82611794565b611e8d576040517f08c379a0000000000000000000000000000000000000000000000000000000008152600401611e84906135bb565b60405180910390fd5b6000600a60008481526020019081526020016000208054611ead90613986565b80601f0160208091040260200160405190810160405280929190818152602001828054611ed990613986565b8015611f265780601f10611efb57610100808354040283529160200191611f26565b820191906000526020600020905b815481529060010190602001808311611f0957829003601f168201915b505050505090506000611f376125d1565b9050600081511415611f4d578192505050611f90565b600082511115611f82578082604051602001611f6a929190613278565b60405160208183030381529060405292505050611f90565b611f8b846125e8565b925050505b919050565b600073ffffffffffffffffffffffffffffffffffffffff168273ffffffffffffffffffffffffffffffffffffffff161415612005576040517f08c379a0000000000000000000000000000000000000000000000000000000008152600401611ffc9061359b565b60405180910390fd5b61200e81611794565b1561204e576040517f08c379a00000000000000000000000000000000000000000000000000000000081526004016120459061345b565b60405180910390fd5b61205a600083836121d9565b6001600360008473ffffffffffffffffffffffffffffffffffffffff1673ffffffffffffffffffffffffffffffffffffffff16815260200190815260200160002060008282546120aa91906137f0565b92505081905550816002600083815260200190815260200160002060006101000a81548173ffffffffffffffffffffffffffffffffffffffff021916908373ffffffffffffffffffffffffffffffffffffffff160217905550808273ffffffffffffffffffffffffffffffffffffffff16600073ffffffffffffffffffffffffffffffffffffffff167fddf252ad1be2c89b69c2b068fc378daa952ba7f163c4a11628f55a4df523b3ef60405160405180910390a461216b60008383612435565b5050565b60007f01ffc9a7000000000000000000000000000000000000000000000000000000007bffffffffffffffffffffffffffffffffffffffffffffffffffffffff1916827bffffffffffffffffffffffffffffffffffffffffffffffffffffffff1916149050919050565b600073ffffffffffffffffffffffffffffffffffffffff168373ffffffffffffffffffffffffffffffffffffffff16141580156122435750600073ffffffffffffffffffffffffffffffffffffffff168273ffffffffffffffffffffffffffffffffffffffff1614155b15612430576000600c60009054906101000a900473ffffffffffffffffffffffffffffffffffffffff16905060008173ffffffffffffffffffffffffffffffffffffffff1663a035b1fe6040518163ffffffff1660e01b815260040160206040518083038186803b1580156122b757600080fd5b505afa1580156122cb573d6000803e3d6000fd5b505050506040513d601f19601f820116820180604052508101906122ef9190612d45565b90508173ffffffffffffffffffffffffffffffffffffffff166363639bee8260106000600d5481526020019081526020016000208688604051602001612335919061325d565b60405160208183030381529060405260016040518663ffffffff1660e01b815260040161236594939291906133a8565b6000604051808303818588803b15801561237e57600080fd5b505af1158015612392573d6000803e3d6000fd5b505050505061242d600d54600f80546123aa90613986565b80601f01602080910402602001604051908101604052809291908181526020018280546123d690613986565b80156124235780601f106123f857610100808354040283529160200191612423565b820191906000526020600020905b81548152906001019060200180831161240657829003601f168201915b5050505050611c06565b50505b505050565b505050565b600061245b8473ffffffffffffffffffffffffffffffffffffffff1661268f565b156125c4578373ffffffffffffffffffffffffffffffffffffffff1663150b7a02612484611800565b8786866040518563ffffffff1660e01b81526004016124a694939291906132cc565b602060405180830381600087803b1580156124c057600080fd5b505af19250505080156124f157506040513d601f19601f820116820180604052508101906124ee9190612cb2565b60015b612574573d8060008114612521576040519150601f19603f3d011682016040523d82523d6000602084013e612526565b606091505b5060008151141561256c576040517f08c379a00000000000000000000000000000000000000000000000000000000081526004016125639061341b565b60405180910390fd5b805181602001fd5b63150b7a0260e01b7bffffffffffffffffffffffffffffffffffffffffffffffffffffffff1916817bffffffffffffffffffffffffffffffffffffffffffffffffffffffff1916149150506125c9565b600190505b949350505050565b606060405180602001604052806000815250905090565b60606125f382611794565b612632576040517f08c379a0000000000000000000000000000000000000000000000000000000008152600401612629906135fb565b60405180910390fd5b600061263c6125d1565b9050600081511161265c5760405180602001604052806000815250612687565b80612666846126b2565b604051602001612677929190613278565b6040516020818303038152906040525b915050919050565b6000808273ffffffffffffffffffffffffffffffffffffffff163b119050919050565b606060008214156126fa576040518060400160405280600181526020017f3000000000000000000000000000000000000000000000000000000000000000815250905061285a565b600082905060005b6000821461272c578080612715906139e9565b915050600a826127259190613846565b9150612702565b60008167ffffffffffffffff81111561276e577f4e487b7100000000000000000000000000000000000000000000000000000000600052604160045260246000fd5b6040519080825280601f01601f1916602001820160405280156127a05781602001600182028036833780820191505090505b5090505b60008514612853576001826127b99190613877565b9150600a856127c89190613a56565b60306127d491906137f0565b60f81b818381518110612810577f4e487b7100000000000000000000000000000000000000000000000000000000600052603260045260246000fd5b60200101907effffffffffffffffffffffffffffffffffffffffffffffffffffffffffffff1916908160001a905350600a8561284c9190613846565b94506127a4565b8093505050505b919050565b82805461286b90613986565b90600052602060002090601f01602090048101928261288d57600085556128d4565b82601f106128a657805160ff19168380011785556128d4565b828001600101855582156128d4579182015b828111156128d35782518255916020019190600101906128b8565b5b5090506128e191906128e5565b5090565b5b808211156128fe5760008160009055506001016128e6565b5090565b60006129156129108461372b565b613706565b90508281526020810184848401111561292d57600080fd5b612938848285613944565b509392505050565b600061295361294e8461375c565b613706565b90508281526020810184848401111561296b57600080fd5b612976848285613944565b509392505050565b60008135905061298d81614167565b92915050565b6000815190506129a281614167565b92915050565b6000813590506129b78161417e565b92915050565b6000813590506129cc81614195565b92915050565b6000815190506129e181614195565b92915050565b600082601f8301126129f857600080fd5b8135612a08848260208601612902565b91505092915050565b600082601f830112612a2257600080fd5b8135612a32848260208601612940565b91505092915050565b600081359050612a4a816141ac565b92915050565b600081519050612a5f816141ac565b92915050565b600060208284031215612a7757600080fd5b6000612a858482850161297e565b91505092915050565b600060208284031215612aa057600080fd5b6000612aae84828501612993565b91505092915050565b60008060408385031215612aca57600080fd5b6000612ad88582860161297e565b9250506020612ae98582860161297e565b9150509250929050565b600080600060608486031215612b0857600080fd5b6000612b168682870161297e565b9350506020612b278682870161297e565b9250506040612b3886828701612a3b565b9150509250925092565b60008060008060808587031215612b5857600080fd5b6000612b668782880161297e565b9450506020612b778782880161297e565b9350506040612b8887828801612a3b565b925050606085013567ffffffffffffffff811115612ba557600080fd5b612bb1878288016129e7565b91505092959194509250565b60008060408385031215612bd057600080fd5b6000612bde8582860161297e565b9250506020612bef858286016129a8565b9150509250929050565b60008060408385031215612c0c57600080fd5b6000612c1a8582860161297e565b925050602083013567ffffffffffffffff811115612c3757600080fd5b612c4385828601612a11565b9150509250929050565b60008060408385031215612c6057600080fd5b6000612c6e8582860161297e565b9250506020612c7f85828601612a3b565b9150509250929050565b600060208284031215612c9b57600080fd5b6000612ca9848285016129bd565b91505092915050565b600060208284031215612cc457600080fd5b6000612cd2848285016129d2565b91505092915050565b600060208284031215612ced57600080fd5b600082013567ffffffffffffffff811115612d0757600080fd5b612d1384828501612a11565b91505092915050565b600060208284031215612d2e57600080fd5b6000612d3c84828501612a3b565b91505092915050565b600060208284031215612d5757600080fd5b6000612d6584828501612a50565b91505092915050565b60008060408385031215612d8157600080fd5b6000612d8f85828601612a3b565b925050602083013567ffffffffffffffff811115612dac57600080fd5b612db885828601612a11565b9150509250929050565b612dcb816138ab565b82525050565b612de2612ddd826138ab565b613a32565b82525050565b612df1816138bd565b82525050565b6000612e02826137a2565b612e0c81856137b8565b9350612e1c818560208601613953565b612e2581613b72565b840191505092915050565b612e3981613932565b82525050565b6000612e4a826137ad565b612e5481856137d4565b9350612e64818560208601613953565b612e6d81613b72565b840191505092915050565b6000612e83826137ad565b612e8d81856137e5565b9350612e9d818560208601613953565b80840191505092915050565b60008154612eb681613986565b612ec081866137d4565b94506001821660008114612edb5760018114612eed57612f20565b60ff1983168652602086019350612f20565b612ef68561378d565b60005b83811015612f1857815481890152600182019150602081019050612ef9565b808801955050505b50505092915050565b6000612f36602b836137d4565b9150612f4182613b90565b604082019050919050565b6000612f596032836137d4565b9150612f6482613bdf565b604082019050919050565b6000612f7c6025836137d4565b9150612f8782613c2e565b604082019050919050565b6000612f9f601c836137d4565b9150612faa82613c7d565b602082019050919050565b6000612fc2600f836137d4565b9150612fcd82613ca6565b602082019050919050565b6000612fe56024836137d4565b9150612ff082613ccf565b604082019050919050565b60006130086019836137d4565b915061301382613d1e565b602082019050919050565b600061302b602c836137d4565b915061303682613d47565b604082019050919050565b600061304e6038836137d4565b915061305982613d96565b604082019050919050565b6000613071600d836137d4565b915061307c82613de5565b602082019050919050565b6000613094602a836137d4565b915061309f82613e0e565b604082019050919050565b60006130b76029836137d4565b91506130c282613e5d565b604082019050919050565b60006130da602e836137d4565b91506130e582613eac565b604082019050919050565b60006130fd6020836137d4565b915061310882613efb565b602082019050919050565b60006131206031836137d4565b915061312b82613f24565b604082019050919050565b6000613143602c836137d4565b915061314e82613f73565b604082019050919050565b6000613166602f836137d4565b915061317182613fc2565b604082019050919050565b60006131896021836137d4565b915061319482614011565b604082019050919050565b60006131ac6000836137c9565b91506131b782614060565b600082019050919050565b60006131cf6031836137d4565b91506131da82614063565b604082019050919050565b60006131f26020836137d4565b91506131fd826140b2565b602082019050919050565b6000613215602c836137d4565b9150613220826140db565b604082019050919050565b6000613238600a836137d4565b91506132438261412a565b602082019050919050565b61325781613928565b82525050565b60006132698284612dd1565b60148201915081905092915050565b60006132848285612e78565b91506132908284612e78565b91508190509392505050565b60006132a78261319f565b9150819050919050565b60006020820190506132c66000830184612dc2565b92915050565b60006080820190506132e16000830187612dc2565b6132ee6020830186612dc2565b6132fb604083018561324e565b818103606083015261330d8184612df7565b905095945050505050565b600060208201905061332d6000830184612de8565b92915050565b6000602082019050818103600083015261334d8184612e3f565b905092915050565b6000608082019050818103600083015261336f8187612e3f565b905061337e602083018661324e565b81810360408301526133908185612df7565b905061339f6060830184612e30565b95945050505050565b600060808201905081810360008301526133c28187612ea9565b90506133d1602083018661324e565b81810360408301526133e38185612df7565b90506133f26060830184612e30565b95945050505050565b6000602082019050818103600083015261341481612f29565b9050919050565b6000602082019050818103600083015261343481612f4c565b9050919050565b6000602082019050818103600083015261345481612f6f565b9050919050565b6000602082019050818103600083015261347481612f92565b9050919050565b6000602082019050818103600083015261349481612fb5565b9050919050565b600060208201905081810360008301526134b481612fd8565b9050919050565b600060208201905081810360008301526134d481612ffb565b9050919050565b600060208201905081810360008301526134f48161301e565b9050919050565b6000602082019050818103600083015261351481613041565b9050919050565b6000602082019050818103600083015261353481613064565b9050919050565b6000602082019050818103600083015261355481613087565b9050919050565b60006020820190508181036000830152613574816130aa565b9050919050565b60006020820190508181036000830152613594816130cd565b9050919050565b600060208201905081810360008301526135b4816130f0565b9050919050565b600060208201905081810360008301526135d481613113565b9050919050565b600060208201905081810360008301526135f481613136565b9050919050565b6000602082019050818103600083015261361481613159565b9050919050565b600060208201905081810360008301526136348161317c565b9050919050565b60006020820190508181036000830152613654816131c2565b9050919050565b60006020820190508181036000830152613674816131e5565b9050919050565b6000602082019050818103600083015261369481613208565b9050919050565b600060208201905081810360008301526136b48161322b565b9050919050565b60006020820190506136d0600083018461324e565b92915050565b60006040820190506136eb600083018561324e565b81810360208301526136fd8184612e3f565b90509392505050565b6000613710613721565b905061371c82826139b8565b919050565b6000604051905090565b600067ffffffffffffffff82111561374657613745613b43565b5b61374f82613b72565b9050602081019050919050565b600067ffffffffffffffff82111561377757613776613b43565b5b61378082613b72565b9050602081019050919050565b60008190508160005260206000209050919050565b600081519050919050565b600081519050919050565b600082825260208201905092915050565b600081905092915050565b600082825260208201905092915050565b600081905092915050565b60006137fb82613928565b915061380683613928565b9250827fffffffffffffffffffffffffffffffffffffffffffffffffffffffffffffffff0382111561383b5761383a613a87565b5b828201905092915050565b600061385182613928565b915061385c83613928565b92508261386c5761386b613ab6565b5b828204905092915050565b600061388282613928565b915061388d83613928565b9250828210156138a05761389f613a87565b5b828203905092915050565b60006138b682613908565b9050919050565b60008115159050919050565b60007fffffffff0000000000000000000000000000000000000000000000000000000082169050919050565b600081905061390382614153565b919050565b600073ffffffffffffffffffffffffffffffffffffffff82169050919050565b6000819050919050565b600061393d826138f5565b9050919050565b82818337600083830152505050565b60005b83811015613971578082015181840152602081019050613956565b83811115613980576000848401525b50505050565b6000600282049050600182168061399e57607f821691505b602082108114156139b2576139b1613b14565b5b50919050565b6139c182613b72565b810181811067ffffffffffffffff821117156139e0576139df613b43565b5b80604052505050565b60006139f482613928565b91507fffffffffffffffffffffffffffffffffffffffffffffffffffffffffffffffff821415613a2757613a26613a87565b5b600182019050919050565b6000613a3d82613a44565b9050919050565b6000613a4f82613b83565b9050919050565b6000613a6182613928565b9150613a6c83613928565b925082613a7c57613a7b613ab6565b5b828206905092915050565b7f4e487b7100000000000000000000000000000000000000000000000000000000600052601160045260246000fd5b7f4e487b7100000000000000000000000000000000000000000000000000000000600052601260045260246000fd5b7f4e487b7100000000000000000000000000000000000000000000000000000000600052602160045260246000fd5b7f4e487b7100000000000000000000000000000000000000000000000000000000600052602260045260246000fd5b7f4e487b7100000000000000000000000000000000000000000000000000000000600052604160045260246000fd5b6000601f19601f8301169050919050565b60008160601b9050919050565b7f455243373231456e756d657261626c653a206f776e657220696e646578206f7560008201527f74206f6620626f756e6473000000000000000000000000000000000000000000602082015250565b7f4552433732313a207472616e7366657220746f206e6f6e20455243373231526560008201527f63656976657220696d706c656d656e7465720000000000000000000000000000602082015250565b7f4552433732313a207472616e736665722066726f6d20696e636f72726563742060008201527f6f776e6572000000000000000000000000000000000000000000000000000000602082015250565b7f4552433732313a20746f6b656e20616c7265616479206d696e74656400000000600082015250565b7f5769746864726177206661696c65640000000000000000000000000000000000600082015250565b7f4552433732313a207472616e7366657220746f20746865207a65726f2061646460008201527f7265737300000000000000000000000000000000000000000000000000000000602082015250565b7f4552433732313a20617070726f766520746f2063616c6c657200000000000000600082015250565b7f4552433732313a206f70657261746f7220717565727920666f72206e6f6e657860008201527f697374656e7420746f6b656e0000000000000000000000000000000000000000602082015250565b7f4552433732313a20617070726f76652063616c6c6572206973206e6f74206f7760008201527f6e6572206e6f7220617070726f76656420666f7220616c6c0000000000000000602082015250565b7f4e6f7420746865206f776e657200000000000000000000000000000000000000600082015250565b7f4552433732313a2062616c616e636520717565727920666f7220746865207a6560008201527f726f206164647265737300000000000000000000000000000000000000000000602082015250565b7f4552433732313a206f776e657220717565727920666f72206e6f6e657869737460008201527f656e7420746f6b656e0000000000000000000000000000000000000000000000602082015250565b7f45524337323155524953746f726167653a2055524920736574206f66206e6f6e60008201527f6578697374656e7420746f6b656e000000000000000000000000000000000000602082015250565b7f4552433732313a206d696e7420746f20746865207a65726f2061646472657373600082015250565b7f45524337323155524953746f726167653a2055524920717565727920666f722060008201527f6e6f6e6578697374656e7420746f6b656e000000000000000000000000000000602082015250565b7f4552433732313a20617070726f76656420717565727920666f72206e6f6e657860008201527f697374656e7420746f6b656e0000000000000000000000000000000000000000602082015250565b7f4552433732314d657461646174613a2055524920717565727920666f72206e6f60008201527f6e6578697374656e7420746f6b656e0000000000000000000000000000000000602082015250565b7f4552433732313a20617070726f76616c20746f2063757272656e74206f776e6560008201527f7200000000000000000000000000000000000000000000000000000000000000602082015250565b50565b7f4552433732313a207472616e736665722063616c6c6572206973206e6f74206f60008201527f776e6572206e6f7220617070726f766564000000000000000000000000000000602082015250565b7f496e73756666696369656e74207061796d656e7420666f72206d696e74696e67600082015250565b7f455243373231456e756d657261626c653a20676c6f62616c20696e646578206f60008201527f7574206f6620626f756e64730000000000000000000000000000000000000000602082015250565b7f4e6f74206f7261636c6500000000000000000000000000000000000000000000600082015250565b6002811061416457614163613ae5565b5b50565b614170816138ab565b811461417b57600080fd5b50565b614187816138bd565b811461419257600080fd5b50565b61419e816138c9565b81146141a957600080fd5b50565b6141b581613928565b81146141c057600080fd5b5056fea2646970667358221220a65712e91e1d6dbae4532b8b55a93d4c8f930e90463b4e02798ee0f38477e99464736f6c63430008040033",
  "linkReferences": {},
  "deployedLinkReferences": {}
}