{
  "_format": "hh-sol-artifact-1",
  "contractName": "EvolvingNFT",
  "sourceName": "contracts/EvolvingNFT.sol",
  "abi": [
    {
      "inputs": [
        {
          "internalType": "address",
          "name": "owner_",
          "type": "address"
        },
        {
          "internalType": "address",
          "name": "mlCoordinator_",
          "type": "address"
        },
        {
          "internalType": "uint256",
          "name": "price_",
          "type": "uint256"
        },
        {
          "internalType": "enum ChainAIV2.ModelCategory",
          "name": "modelCategory_",
          "type": "uint8"
        },
        {
          "internalType": "string",
          "name": "model_",
          "type": "string"
        },
        {
          "internalType": "string",
          "name": "loadingImg_",
          "type": "string"
        }
      ],
      "stateMutability": "nonpayable",
      "type": "constructor"
    },
    {
      "anonymous": false,
      "inputs": [
        {
          "indexed": true,
          "internalType": "address",
          "name": "owner",
          "type": "address"
        },
        {
          "indexed": true,
          "internalType": "address",
          "name": "approved",
          "type": "address"
        },
        {
          "indexed": true,
          "internalType": "uint256",
          "name": "tokenId",
          "type": "uint256"
        }
      ],
      "name": "Approval",
      "type": "event"
    },
    {
      "anonymous": false,
      "inputs": [
        {
          "indexed": true,
          "internalType": "address",
          "name": "owner",
          "type": "address"
        },
        {
          "indexed": true,
          "internalType": "address",
          "name": "operator",
          "type": "address"
        },
        {
          "indexed": false,
          "internalType": "bool",
          "name": "approved",
          "type": "bool"
        }
      ],
      "name": "ApprovalForAll",
      "type": "event"
    },
    {
      "anonymous": false,
      "inputs": [
        {
          "indexed": false,
          "internalType": "uint256",
          "name": "tokenId",
          "type": "uint256"
        },
        {
          "indexed": false,
          "internalType": "string",
          "name": "tokenURI",
          "type": "string"
        }
      ],
      "name": "TokenUriSet",
      "type": "event"
    },
    {
      "anonymous": false,
      "inputs": [
        {
          "indexed": true,
          "internalType": "address",
          "name": "from",
          "type": "address"
        },
        {
          "indexed": true,
          "internalType": "address",
          "name": "to",
          "type": "address"
        },
        {
          "indexed": true,
          "internalType": "uint256",
          "name": "tokenId",
          "type": "uint256"
        }
      ],
      "name": "Transfer",
      "type": "event"
    },
    {
      "inputs": [
        {
          "internalType": "address",
          "name": "to",
          "type": "address"
        },
        {
          "internalType": "uint256",
          "name": "tokenId",
          "type": "uint256"
        }
      ],
      "name": "approve",
      "outputs": [],
      "stateMutability": "nonpayable",
      "type": "function"
    },
    {
      "inputs": [
        {
          "internalType": "address",
          "name": "owner",
          "type": "address"
        }
      ],
      "name": "balanceOf",
      "outputs": [
        {
          "internalType": "uint256",
          "name": "",
          "type": "uint256"
        }
      ],
      "stateMutability": "view",
      "type": "function"
    },
    {
      "inputs": [],
      "name": "currentTokenId",
      "outputs": [
        {
          "internalType": "uint256",
          "name": "",
          "type": "uint256"
        }
      ],
      "stateMutability": "view",
      "type": "function"
    },
    {
      "inputs": [
        {
          "internalType": "uint256",
          "name": "tokenId",
          "type": "uint256"
        }
      ],
      "name": "getApproved",
      "outputs": [
        {
          "internalType": "address",
          "name": "",
          "type": "address"
        }
      ],
      "stateMutability": "view",
      "type": "function"
    },
    {
      "inputs": [
        {
          "internalType": "address",
          "name": "owner",
          "type": "address"
        },
        {
          "internalType": "address",
          "name": "operator",
          "type": "address"
        }
      ],
      "name": "isApprovedForAll",
      "outputs": [
        {
          "internalType": "bool",
          "name": "",
          "type": "bool"
        }
      ],
      "stateMutability": "view",
      "type": "function"
    },
    {
      "inputs": [],
      "name": "loadingImg",
      "outputs": [
        {
          "internalType": "string",
          "name": "",
          "type": "string"
        }
      ],
      "stateMutability": "view",
      "type": "function"
    },
    {
      "inputs": [
        {
          "internalType": "address",
          "name": "to",
          "type": "address"
        },
        {
          "internalType": "string",
          "name": "prompt",
          "type": "string"
        }
      ],
      "name": "mint",
      "outputs": [
        {
          "internalType": "uint256",
          "name": "",
          "type": "uint256"
        }
      ],
      "stateMutability": "payable",
      "type": "function"
    },
    {
      "inputs": [],
      "name": "mlCoordinator",
      "outputs": [
        {
          "internalType": "address",
          "name": "",
          "type": "address"
        }
      ],
      "stateMutability": "view",
      "type": "function"
    },
    {
      "inputs": [],
      "name": "model",
      "outputs": [
        {
          "internalType": "string",
          "name": "",
          "type": "string"
        }
      ],
      "stateMutability": "view",
      "type": "function"
    },
    {
      "inputs": [],
      "name": "name",
      "outputs": [
        {
          "internalType": "string",
          "name": "",
          "type": "string"
        }
      ],
      "stateMutability": "view",
      "type": "function"
    },
    {
      "inputs": [
        {
          "internalType": "uint256",
          "name": "tokenId",
          "type": "uint256"
        }
      ],
      "name": "ownerOf",
      "outputs": [
        {
          "internalType": "address",
          "name": "",
          "type": "address"
        }
      ],
      "stateMutability": "view",
      "type": "function"
    },
    {
      "inputs": [],
      "name": "price",
      "outputs": [
        {
          "internalType": "uint256",
          "name": "",
          "type": "uint256"
        }
      ],
      "stateMutability": "view",
      "type": "function"
    },
    {
      "inputs": [
        {
          "internalType": "address",
          "name": "from",
          "type": "address"
        },
        {
          "internalType": "address",
          "name": "to",
          "type": "address"
        },
        {
          "internalType": "uint256",
          "name": "tokenId",
          "type": "uint256"
        }
      ],
      "name": "safeTransferFrom",
      "outputs": [],
      "stateMutability": "nonpayable",
      "type": "function"
    },
    {
      "inputs": [
        {
          "internalType": "address",
          "name": "from",
          "type": "address"
        },
        {
          "internalType": "address",
          "name": "to",
          "type": "address"
        },
        {
          "internalType": "uint256",
          "name": "tokenId",
          "type": "uint256"
        },
        {
          "internalType": "bytes",
          "name": "_data",
          "type": "bytes"
        }
      ],
      "name": "safeTransferFrom",
      "outputs": [],
      "stateMutability": "nonpayable",
      "type": "function"
    },
    {
      "inputs": [
        {
          "internalType": "address",
          "name": "operator",
          "type": "address"
        },
        {
          "internalType": "bool",
          "name": "approved",
          "type": "bool"
        }
      ],
      "name": "setApprovalForAll",
      "outputs": [],
      "stateMutability": "nonpayable",
      "type": "function"
    },
    {
      "inputs": [
        {
          "internalType": "string",
          "name": "newLoadingImg",
          "type": "string"
        }
      ],
      "name": "setLoadingImage",
      "outputs": [],
      "stateMutability": "nonpayable",
      "type": "function"
    },
    {
      "inputs": [
        {
          "internalType": "uint256",
          "name": "price_",
          "type": "uint256"
        }
      ],
      "name": "setMintPriceToThisContract",
      "outputs": [],
      "stateMutability": "nonpayable",
      "type": "function"
    },
    {
      "inputs": [
        {
          "internalType": "uint256",
          "name": "id",
          "type": "uint256"
        },
        {
          "internalType": "string",
          "name": "location",
          "type": "string"
        }
      ],
      "name": "setOutput",
      "outputs": [],
      "stateMutability": "nonpayable",
      "type": "function"
    },
    {
      "inputs": [
        {
          "internalType": "bytes4",
          "name": "interfaceId",
          "type": "bytes4"
        }
      ],
      "name": "supportsInterface",
      "outputs": [
        {
          "internalType": "bool",
          "name": "",
          "type": "bool"
        }
      ],
      "stateMutability": "view",
      "type": "function"
    },
    {
      "inputs": [],
      "name": "symbol",
      "outputs": [
        {
          "internalType": "string",
          "name": "",
          "type": "string"
        }
      ],
      "stateMutability": "view",
      "type": "function"
    },
    {
      "inputs": [
        {
          "internalType": "uint256",
          "name": "tokenId",
          "type": "uint256"
        }
      ],
      "name": "tokenURI",
      "outputs": [
        {
          "internalType": "string",
          "name": "",
          "type": "string"
        }
      ],
      "stateMutability": "view",
      "type": "function"
    },
    {
      "inputs": [
        {
          "internalType": "address",
          "name": "from",
          "type": "address"
        },
        {
          "internalType": "address",
          "name": "to",
          "type": "address"
        },
        {
          "internalType": "uint256",
          "name": "tokenId",
          "type": "uint256"
        }
      ],
      "name": "transferFrom",
      "outputs": [],
      "stateMutability": "nonpayable",
      "type": "function"
    },
    {
      "inputs": [
        {
          "internalType": "string",
          "name": "newModel",
          "type": "string"
        }
      ],
      "name": "updateModel",
      "outputs": [],
      "stateMutability": "nonpayable",
      "type": "function"
    },
    {
      "inputs": [],
      "name": "withdraw",
      "outputs": [],
      "stateMutability": "nonpayable",
      "type": "function"
    }
  ],
  "bytecode": "0x60806040523480156200001157600080fd5b506040516200443a3803806200443a833981810160405281019062000037919062000356565b6040518060400160405280600b81526020017f45766f6c76696e674e46540000000000000000000000000000000000000000008152506040518060400160405280600381526020017f45564f00000000000000000000000000000000000000000000000000000000008152508160009080519060200190620000bb929190620001ef565b508060019080519060200190620000d4929190620001ef565b50505085600760006101000a81548173ffffffffffffffffffffffffffffffffffffffff021916908373ffffffffffffffffffffffffffffffffffffffff16021790555084600860006101000a81548173ffffffffffffffffffffffffffffffffffffffff021916908373ffffffffffffffffffffffffffffffffffffffff16021790555083600a8190555082600b60006101000a81548160ff02191690836002811115620001ac577f4e487b7100000000000000000000000000000000000000000000000000000000600052602160045260246000fd5b021790555081600c9080519060200190620001c9929190620001ef565b5080600d9080519060200190620001e2929190620001ef565b5050505050505062000611565b828054620001fd90620004f1565b90600052602060002090601f0160209004810192826200022157600085556200026d565b82601f106200023c57805160ff19168380011785556200026d565b828001600101855582156200026d579182015b828111156200026c5782518255916020019190600101906200024f565b5b5090506200027c919062000280565b5090565b5b808211156200029b57600081600090555060010162000281565b5090565b6000620002b6620002b08462000447565b6200041e565b905082815260208101848484011115620002cf57600080fd5b620002dc848285620004bb565b509392505050565b600081519050620002f581620005cc565b92915050565b6000815190506200030c81620005e6565b92915050565b600082601f8301126200032457600080fd5b8151620003368482602086016200029f565b91505092915050565b6000815190506200035081620005f7565b92915050565b60008060008060008060c087890312156200037057600080fd5b60006200038089828a01620002e4565b96505060206200039389828a01620002e4565b9550506040620003a689828a016200033f565b9450506060620003b989828a01620002fb565b935050608087015167ffffffffffffffff811115620003d757600080fd5b620003e589828a0162000312565b92505060a087015167ffffffffffffffff8111156200040357600080fd5b6200041189828a0162000312565b9150509295509295509295565b60006200042a6200043d565b905062000438828262000527565b919050565b6000604051905090565b600067ffffffffffffffff8211156200046557620004646200058c565b5b6200047082620005bb565b9050602081019050919050565b60006200048a8262000491565b9050919050565b600073ffffffffffffffffffffffffffffffffffffffff82169050919050565b6000819050919050565b60005b83811015620004db578082015181840152602081019050620004be565b83811115620004eb576000848401525b50505050565b600060028204905060018216806200050a57607f821691505b602082108114156200052157620005206200055d565b5b50919050565b6200053282620005bb565b810181811067ffffffffffffffff821117156200055457620005536200058c565b5b80604052505050565b7f4e487b7100000000000000000000000000000000000000000000000000000000600052602260045260246000fd5b7f4e487b7100000000000000000000000000000000000000000000000000000000600052604160045260246000fd5b6000601f19601f8301169050919050565b620005d7816200047d565b8114620005e357600080fd5b50565b60038110620005f457600080fd5b50565b6200060281620004b1565b81146200060e57600080fd5b50565b613e1980620006216000396000f3fe60806040526004361061014a5760003560e01c806370a08231116100b6578063b698904a1161006f578063b698904a1461047b578063b88d4fde146104a4578063c87b56dd146104cd578063d0def5211461050a578063e985e9c51461053a578063ffac322b146105775761014a565b806370a082311461036b5780638d8025d8146103a857806395d89b41146103d15780639c6b1bda146103fc578063a035b1fe14610427578063a22cb465146104525761014a565b806323b872dd1161010857806323b872dd146102735780633ccfd60b1461029c57806340002107146102b357806342842e0e146102dc57806352620c35146103055780636352211e1461032e5761014a565b80629a9b7b1461014f57806301ffc9a71461017a57806306fdde03146101b7578063081812fc146101e2578063095ea7b31461021f5780630ad9d05214610248575b600080fd5b34801561015b57600080fd5b506101646105a2565b6040516101719190613379565b60405180910390f35b34801561018657600080fd5b506101a1600480360381019061019c91906129a3565b6105a8565b6040516101ae9190612fec565b60405180910390f35b3480156101c357600080fd5b506101cc61068a565b6040516101d99190613007565b60405180910390f35b3480156101ee57600080fd5b5061020960048036038101906102049190612a36565b61071c565b6040516102169190612f85565b60405180910390f35b34801561022b57600080fd5b5061024660048036038101906102419190612967565b6107a1565b005b34801561025457600080fd5b5061025d6108b9565b60405161026a9190613007565b60405180910390f35b34801561027f57600080fd5b5061029a6004803603810190610295919061280d565b610947565b005b3480156102a857600080fd5b506102b16109a7565b005b3480156102bf57600080fd5b506102da60048036038101906102d59190612a88565b610b08565b005b3480156102e857600080fd5b5061030360048036038101906102fe919061280d565b610bdf565b005b34801561031157600080fd5b5061032c60048036038101906103279190612a36565b610bff565b005b34801561033a57600080fd5b5061035560048036038101906103509190612a36565b610c99565b6040516103629190612f85565b60405180910390f35b34801561037757600080fd5b50610392600480360381019061038d91906127a8565b610d4b565b60405161039f9190613379565b60405180910390f35b3480156103b457600080fd5b506103cf60048036038101906103ca91906129f5565b610e03565b005b3480156103dd57600080fd5b506103e6610ead565b6040516103f39190613007565b60405180910390f35b34801561040857600080fd5b50610411610f3f565b60405161041e9190613007565b60405180910390f35b34801561043357600080fd5b5061043c610fcd565b6040516104499190613379565b60405180910390f35b34801561045e57600080fd5b50610479600480360381019061047491906128d7565b611092565b005b34801561048757600080fd5b506104a2600480360381019061049d91906129f5565b6110a8565b005b3480156104b057600080fd5b506104cb60048036038101906104c6919061285c565b611152565b005b3480156104d957600080fd5b506104f460048036038101906104ef9190612a36565b6111b4565b6040516105019190613007565b60405180910390f35b610524600480360381019061051f9190612913565b611306565b6040516105319190613379565b60405180910390f35b34801561054657600080fd5b50610561600480360381019061055c91906127d1565b611583565b60405161056e9190612fec565b60405180910390f35b34801561058357600080fd5b5061058c611617565b6040516105999190612f85565b60405180910390f35b60095481565b60007f80ac58cd000000000000000000000000000000000000000000000000000000007bffffffffffffffffffffffffffffffffffffffffffffffffffffffff1916827bffffffffffffffffffffffffffffffffffffffffffffffffffffffff1916148061067357507f5b5e139f000000000000000000000000000000000000000000000000000000007bffffffffffffffffffffffffffffffffffffffffffffffffffffffff1916827bffffffffffffffffffffffffffffffffffffffffffffffffffffffff1916145b8061068357506106828261163d565b5b9050919050565b60606000805461069990613644565b80601f01602080910402602001604051908101604052809291908181526020018280546106c590613644565b80156107125780601f106106e757610100808354040283529160200191610712565b820191906000526020600020905b8154815290600101906020018083116106f557829003601f168201915b5050505050905090565b6000610727826116a7565b610766576040517f08c379a000000000000000000000000000000000000000000000000000000000815260040161075d906132d9565b60405180910390fd5b6004600083815260200190815260200160002060009054906101000a900473ffffffffffffffffffffffffffffffffffffffff169050919050565b60006107ac82610c99565b90508073ffffffffffffffffffffffffffffffffffffffff168373ffffffffffffffffffffffffffffffffffffffff16141561081d576040517f08c379a000000000000000000000000000000000000000000000000000000000815260040161081490613319565b60405180910390fd5b8073ffffffffffffffffffffffffffffffffffffffff1661083c611713565b73ffffffffffffffffffffffffffffffffffffffff16148061086b575061086a81610865611713565b611583565b5b6108aa576040517f08c379a00000000000000000000000000000000000000000000000000000000081526004016108a1906131f9565b60405180910390fd5b6108b4838361171b565b505050565b600c80546108c690613644565b80601f01602080910402602001604051908101604052809291908181526020018280546108f290613644565b801561093f5780601f106109145761010080835404028352916020019161093f565b820191906000526020600020905b81548152906001019060200180831161092257829003601f168201915b505050505081565b610958610952611713565b826117d4565b610997576040517f08c379a000000000000000000000000000000000000000000000000000000000815260040161098e90613339565b60405180910390fd5b6109a28383836118b2565b505050565b600760009054906101000a900473ffffffffffffffffffffffffffffffffffffffff1673ffffffffffffffffffffffffffffffffffffffff163373ffffffffffffffffffffffffffffffffffffffff1614610a37576040517f08c379a0000000000000000000000000000000000000000000000000000000008152600401610a2e90613219565b60405180910390fd5b6000600760009054906101000a900473ffffffffffffffffffffffffffffffffffffffff1673ffffffffffffffffffffffffffffffffffffffff1647604051610a7f90612f70565b60006040518083038185875af1925050503d8060008114610abc576040519150601f19603f3d011682016040523d82523d6000602084013e610ac1565b606091505b5050905080610b05576040517f08c379a0000000000000000000000000000000000000000000000000000000008152600401610afc90613159565b60405180910390fd5b50565b600860009054906101000a900473ffffffffffffffffffffffffffffffffffffffff1673ffffffffffffffffffffffffffffffffffffffff163373ffffffffffffffffffffffffffffffffffffffff1614610b98576040517f08c379a0000000000000000000000000000000000000000000000000000000008152600401610b8f906131d9565b60405180910390fd5b610ba28282611b19565b7f6cf6b9ad03c115e67bcbd8096692d400e58bd03076049f0f767f759c06e577648282604051610bd3929190613394565b60405180910390a15050565b610bfa83838360405180602001604052806000815250611152565b505050565b600760009054906101000a900473ffffffffffffffffffffffffffffffffffffffff1673ffffffffffffffffffffffffffffffffffffffff163373ffffffffffffffffffffffffffffffffffffffff1614610c8f576040517f08c379a0000000000000000000000000000000000000000000000000000000008152600401610c8690613219565b60405180910390fd5b80600a8190555050565b6000806002600084815260200190815260200160002060009054906101000a900473ffffffffffffffffffffffffffffffffffffffff169050600073ffffffffffffffffffffffffffffffffffffffff168173ffffffffffffffffffffffffffffffffffffffff161415610d42576040517f08c379a0000000000000000000000000000000000000000000000000000000008152600401610d3990613259565b60405180910390fd5b80915050919050565b60008073ffffffffffffffffffffffffffffffffffffffff168273ffffffffffffffffffffffffffffffffffffffff161415610dbc576040517f08c379a0000000000000000000000000000000000000000000000000000000008152600401610db390613239565b60405180910390fd5b600360008373ffffffffffffffffffffffffffffffffffffffff1673ffffffffffffffffffffffffffffffffffffffff168152602001908152602001600020549050919050565b600760009054906101000a900473ffffffffffffffffffffffffffffffffffffffff1673ffffffffffffffffffffffffffffffffffffffff163373ffffffffffffffffffffffffffffffffffffffff1614610e93576040517f08c379a0000000000000000000000000000000000000000000000000000000008152600401610e8a90613219565b60405180910390fd5b80600c9080519060200190610ea99291906125b7565b5050565b606060018054610ebc90613644565b80601f0160208091040260200160405190810160405280929190818152602001828054610ee890613644565b8015610f355780601f10610f0a57610100808354040283529160200191610f35565b820191906000526020600020905b815481529060010190602001808311610f1857829003601f168201915b5050505050905090565b600d8054610f4c90613644565b80601f0160208091040260200160405190810160405280929190818152602001828054610f7890613644565b8015610fc55780601f10610f9a57610100808354040283529160200191610fc5565b820191906000526020600020905b815481529060010190602001808311610fa857829003601f168201915b505050505081565b600080600860009054906101000a900473ffffffffffffffffffffffffffffffffffffffff16905060008173ffffffffffffffffffffffffffffffffffffffff16634f36a1846040518163ffffffff1660e01b815260040160206040518083038186803b15801561103d57600080fd5b505afa158015611051573d6000803e3d6000fd5b505050506040513d601f19601f820116820180604052508101906110759190612a5f565b9050600081600a5461108791906134ae565b905080935050505090565b6110a461109d611713565b8383611b8d565b5050565b600760009054906101000a900473ffffffffffffffffffffffffffffffffffffffff1673ffffffffffffffffffffffffffffffffffffffff163373ffffffffffffffffffffffffffffffffffffffff1614611138576040517f08c379a000000000000000000000000000000000000000000000000000000000815260040161112f90613219565b60405180910390fd5b80600d908051906020019061114e9291906125b7565b5050565b61116361115d611713565b836117d4565b6111a2576040517f08c379a000000000000000000000000000000000000000000000000000000000815260040161119990613339565b60405180910390fd5b6111ae84848484611cfa565b50505050565b60606111bf826116a7565b6111fe576040517f08c379a00000000000000000000000000000000000000000000000000000000081526004016111f5906132b9565b60405180910390fd5b600060066000848152602001908152602001600020805461121e90613644565b80601f016020809104026020016040519081016040528092919081815260200182805461124a90613644565b80156112975780601f1061126c57610100808354040283529160200191611297565b820191906000526020600020905b81548152906001019060200180831161127a57829003601f168201915b5050505050905060006112a8611d56565b90506000815114156112be578192505050611301565b6000825111156112f35780826040516020016112db929190612f4c565b60405160208183030381529060405292505050611301565b6112fc84611d6d565b925050505b919050565b6000611310610fcd565b341015611352576040517f08c379a000000000000000000000000000000000000000000000000000000000815260040161134990613359565b60405180910390fd5b60096000815480929190611365906136a7565b919050555061137683600954611e14565b6000600860009054906101000a900473ffffffffffffffffffffffffffffffffffffffff16905060008173ffffffffffffffffffffffffffffffffffffffff16634f36a1846040518163ffffffff1660e01b815260040160206040518083038186803b1580156113e557600080fd5b505afa1580156113f9573d6000803e3d6000fd5b505050506040513d601f19601f8201168201806040525081019061141d9190612a5f565b90508173ffffffffffffffffffffffffffffffffffffffff166301f81fa482600c876009548a6040516020016114539190612f31565b60405160208183030381529060405260016040518763ffffffff1660e01b8152600401611484959493929190613029565b6000604051808303818588803b15801561149d57600080fd5b505af11580156114b1573d6000803e3d6000fd5b505050505083600e6000600954815260200190815260200160002090805190602001906114df9291906125b7565b50611576600954600d80546114f390613644565b80601f016020809104026020016040519081016040528092919081815260200182805461151f90613644565b801561156c5780601f106115415761010080835404028352916020019161156c565b820191906000526020600020905b81548152906001019060200180831161154f57829003601f168201915b5050505050611b19565b6009549250505092915050565b6000600560008473ffffffffffffffffffffffffffffffffffffffff1673ffffffffffffffffffffffffffffffffffffffff16815260200190815260200160002060008373ffffffffffffffffffffffffffffffffffffffff1673ffffffffffffffffffffffffffffffffffffffff16815260200190815260200160002060009054906101000a900460ff16905092915050565b600860009054906101000a900473ffffffffffffffffffffffffffffffffffffffff1681565b60007f01ffc9a7000000000000000000000000000000000000000000000000000000007bffffffffffffffffffffffffffffffffffffffffffffffffffffffff1916827bffffffffffffffffffffffffffffffffffffffffffffffffffffffff1916149050919050565b60008073ffffffffffffffffffffffffffffffffffffffff166002600084815260200190815260200160002060009054906101000a900473ffffffffffffffffffffffffffffffffffffffff1673ffffffffffffffffffffffffffffffffffffffff1614159050919050565b600033905090565b816004600083815260200190815260200160002060006101000a81548173ffffffffffffffffffffffffffffffffffffffff021916908373ffffffffffffffffffffffffffffffffffffffff160217905550808273ffffffffffffffffffffffffffffffffffffffff1661178e83610c99565b73ffffffffffffffffffffffffffffffffffffffff167f8c5be1e5ebec7d5bd14f71427d1e84f3dd0314c0f7b2291e5b200ac8c7c3b92560405160405180910390a45050565b60006117df826116a7565b61181e576040517f08c379a0000000000000000000000000000000000000000000000000000000008152600401611815906131b9565b60405180910390fd5b600061182983610c99565b90508073ffffffffffffffffffffffffffffffffffffffff168473ffffffffffffffffffffffffffffffffffffffff16148061189857508373ffffffffffffffffffffffffffffffffffffffff166118808461071c565b73ffffffffffffffffffffffffffffffffffffffff16145b806118a957506118a88185611583565b5b91505092915050565b8273ffffffffffffffffffffffffffffffffffffffff166118d282610c99565b73ffffffffffffffffffffffffffffffffffffffff1614611928576040517f08c379a000000000000000000000000000000000000000000000000000000000815260040161191f90613119565b60405180910390fd5b600073ffffffffffffffffffffffffffffffffffffffff168273ffffffffffffffffffffffffffffffffffffffff161415611998576040517f08c379a000000000000000000000000000000000000000000000000000000000815260040161198f90613179565b60405180910390fd5b6119a3838383611fee565b6119ae60008261171b565b6001600360008573ffffffffffffffffffffffffffffffffffffffff1673ffffffffffffffffffffffffffffffffffffffff16815260200190815260200160002060008282546119fe9190613535565b925050819055506001600360008473ffffffffffffffffffffffffffffffffffffffff1673ffffffffffffffffffffffffffffffffffffffff1681526020019081526020016000206000828254611a5591906134ae565b92505081905550816002600083815260200190815260200160002060006101000a81548173ffffffffffffffffffffffffffffffffffffffff021916908373ffffffffffffffffffffffffffffffffffffffff160217905550808273ffffffffffffffffffffffffffffffffffffffff168473ffffffffffffffffffffffffffffffffffffffff167fddf252ad1be2c89b69c2b068fc378daa952ba7f163c4a11628f55a4df523b3ef60405160405180910390a4611b1483838361224b565b505050565b611b22826116a7565b611b61576040517f08c379a0000000000000000000000000000000000000000000000000000000008152600401611b5890613279565b60405180910390fd5b80600660008481526020019081526020016000209080519060200190611b889291906125b7565b505050565b8173ffffffffffffffffffffffffffffffffffffffff168373ffffffffffffffffffffffffffffffffffffffff161415611bfc576040517f08c379a0000000000000000000000000000000000000000000000000000000008152600401611bf390613199565b60405180910390fd5b80600560008573ffffffffffffffffffffffffffffffffffffffff1673ffffffffffffffffffffffffffffffffffffffff16815260200190815260200160002060008473ffffffffffffffffffffffffffffffffffffffff1673ffffffffffffffffffffffffffffffffffffffff16815260200190815260200160002060006101000a81548160ff0219169083151502179055508173ffffffffffffffffffffffffffffffffffffffff168373ffffffffffffffffffffffffffffffffffffffff167f17307eab39ab6107e8899845ad3d59bd9653f200f220920489ca2b5937696c3183604051611ced9190612fec565b60405180910390a3505050565b611d058484846118b2565b611d1184848484612250565b611d50576040517f08c379a0000000000000000000000000000000000000000000000000000000008152600401611d47906130f9565b60405180910390fd5b50505050565b606060405180602001604052806000815250905090565b6060611d78826116a7565b611db7576040517f08c379a0000000000000000000000000000000000000000000000000000000008152600401611dae906132f9565b60405180910390fd5b6000611dc1611d56565b90506000815111611de15760405180602001604052806000815250611e0c565b80611deb846123e7565b604051602001611dfc929190612f4c565b6040516020818303038152906040525b915050919050565b600073ffffffffffffffffffffffffffffffffffffffff168273ffffffffffffffffffffffffffffffffffffffff161415611e84576040517f08c379a0000000000000000000000000000000000000000000000000000000008152600401611e7b90613299565b60405180910390fd5b611e8d816116a7565b15611ecd576040517f08c379a0000000000000000000000000000000000000000000000000000000008152600401611ec490613139565b60405180910390fd5b611ed960008383611fee565b6001600360008473ffffffffffffffffffffffffffffffffffffffff1673ffffffffffffffffffffffffffffffffffffffff1681526020019081526020016000206000828254611f2991906134ae565b92505081905550816002600083815260200190815260200160002060006101000a81548173ffffffffffffffffffffffffffffffffffffffff021916908373ffffffffffffffffffffffffffffffffffffffff160217905550808273ffffffffffffffffffffffffffffffffffffffff16600073ffffffffffffffffffffffffffffffffffffffff167fddf252ad1be2c89b69c2b068fc378daa952ba7f163c4a11628f55a4df523b3ef60405160405180910390a4611fea6000838361224b565b5050565b600073ffffffffffffffffffffffffffffffffffffffff168373ffffffffffffffffffffffffffffffffffffffff16141580156120585750600073ffffffffffffffffffffffffffffffffffffffff168273ffffffffffffffffffffffffffffffffffffffff1614155b15612246576000600860009054906101000a900473ffffffffffffffffffffffffffffffffffffffff16905060008173ffffffffffffffffffffffffffffffffffffffff16634f36a1846040518163ffffffff1660e01b815260040160206040518083038186803b1580156120cc57600080fd5b505afa1580156120e0573d6000803e3d6000fd5b505050506040513d601f19601f820116820180604052508101906121049190612a5f565b90508173ffffffffffffffffffffffffffffffffffffffff166301f81fa482600c600e6000888152602001908152602001600020878960405160200161214a9190612f31565b60405160208183030381529060405260016040518763ffffffff1660e01b815260040161217b959493929190613091565b6000604051808303818588803b15801561219457600080fd5b505af11580156121a8573d6000803e3d6000fd5b5050505050612243600954600d80546121c090613644565b80601f01602080910402602001604051908101604052809291908181526020018280546121ec90613644565b80156122395780601f1061220e57610100808354040283529160200191612239565b820191906000526020600020905b81548152906001019060200180831161221c57829003601f168201915b5050505050611b19565b50505b505050565b505050565b60006122718473ffffffffffffffffffffffffffffffffffffffff16612594565b156123da578373ffffffffffffffffffffffffffffffffffffffff1663150b7a0261229a611713565b8786866040518563ffffffff1660e01b81526004016122bc9493929190612fa0565b602060405180830381600087803b1580156122d657600080fd5b505af192505050801561230757506040513d601f19601f8201168201806040525081019061230491906129cc565b60015b61238a573d8060008114612337576040519150601f19603f3d011682016040523d82523d6000602084013e61233c565b606091505b50600081511415612382576040517f08c379a0000000000000000000000000000000000000000000000000000000008152600401612379906130f9565b60405180910390fd5b805181602001fd5b63150b7a0260e01b7bffffffffffffffffffffffffffffffffffffffffffffffffffffffff1916817bffffffffffffffffffffffffffffffffffffffffffffffffffffffff1916149150506123df565b600190505b949350505050565b6060600082141561242f576040518060400160405280600181526020017f3000000000000000000000000000000000000000000000000000000000000000815250905061258f565b600082905060005b6000821461246157808061244a906136a7565b915050600a8261245a9190613504565b9150612437565b60008167ffffffffffffffff8111156124a3577f4e487b7100000000000000000000000000000000000000000000000000000000600052604160045260246000fd5b6040519080825280601f01601f1916602001820160405280156124d55781602001600182028036833780820191505090505b5090505b60008514612588576001826124ee9190613535565b9150600a856124fd9190613714565b603061250991906134ae565b60f81b818381518110612545577f4e487b7100000000000000000000000000000000000000000000000000000000600052603260045260246000fd5b60200101907effffffffffffffffffffffffffffffffffffffffffffffffffffffffffffff1916908160001a905350600a856125819190613504565b94506124d9565b8093505050505b919050565b6000808273ffffffffffffffffffffffffffffffffffffffff163b119050919050565b8280546125c390613644565b90600052602060002090601f0160209004810192826125e5576000855561262c565b82601f106125fe57805160ff191683800117855561262c565b8280016001018555821561262c579182015b8281111561262b578251825591602001919060010190612610565b5b509050612639919061263d565b5090565b5b8082111561265657600081600090555060010161263e565b5090565b600061266d612668846133e9565b6133c4565b90508281526020810184848401111561268557600080fd5b612690848285613602565b509392505050565b60006126ab6126a68461341a565b6133c4565b9050828152602081018484840111156126c357600080fd5b6126ce848285613602565b509392505050565b6000813590506126e581613d87565b92915050565b6000813590506126fa81613d9e565b92915050565b60008135905061270f81613db5565b92915050565b60008151905061272481613db5565b92915050565b600082601f83011261273b57600080fd5b813561274b84826020860161265a565b91505092915050565b600082601f83011261276557600080fd5b8135612775848260208601612698565b91505092915050565b60008135905061278d81613dcc565b92915050565b6000815190506127a281613dcc565b92915050565b6000602082840312156127ba57600080fd5b60006127c8848285016126d6565b91505092915050565b600080604083850312156127e457600080fd5b60006127f2858286016126d6565b9250506020612803858286016126d6565b9150509250929050565b60008060006060848603121561282257600080fd5b6000612830868287016126d6565b9350506020612841868287016126d6565b92505060406128528682870161277e565b9150509250925092565b6000806000806080858703121561287257600080fd5b6000612880878288016126d6565b9450506020612891878288016126d6565b93505060406128a28782880161277e565b925050606085013567ffffffffffffffff8111156128bf57600080fd5b6128cb8782880161272a565b91505092959194509250565b600080604083850312156128ea57600080fd5b60006128f8858286016126d6565b9250506020612909858286016126eb565b9150509250929050565b6000806040838503121561292657600080fd5b6000612934858286016126d6565b925050602083013567ffffffffffffffff81111561295157600080fd5b61295d85828601612754565b9150509250929050565b6000806040838503121561297a57600080fd5b6000612988858286016126d6565b92505060206129998582860161277e565b9150509250929050565b6000602082840312156129b557600080fd5b60006129c384828501612700565b91505092915050565b6000602082840312156129de57600080fd5b60006129ec84828501612715565b91505092915050565b600060208284031215612a0757600080fd5b600082013567ffffffffffffffff811115612a2157600080fd5b612a2d84828501612754565b91505092915050565b600060208284031215612a4857600080fd5b6000612a568482850161277e565b91505092915050565b600060208284031215612a7157600080fd5b6000612a7f84828501612793565b91505092915050565b60008060408385031215612a9b57600080fd5b6000612aa98582860161277e565b925050602083013567ffffffffffffffff811115612ac657600080fd5b612ad285828601612754565b9150509250929050565b612ae581613569565b82525050565b612afc612af782613569565b6136f0565b82525050565b612b0b8161357b565b82525050565b6000612b1c82613460565b612b268185613476565b9350612b36818560208601613611565b612b3f81613830565b840191505092915050565b612b53816135f0565b82525050565b6000612b648261346b565b612b6e8185613492565b9350612b7e818560208601613611565b612b8781613830565b840191505092915050565b6000612b9d8261346b565b612ba781856134a3565b9350612bb7818560208601613611565b80840191505092915050565b60008154612bd081613644565b612bda8186613492565b94506001821660008114612bf55760018114612c0757612c3a565b60ff1983168652602086019350612c3a565b612c108561344b565b60005b83811015612c3257815481890152600182019150602081019050612c13565b808801955050505b50505092915050565b6000612c50603283613492565b9150612c5b8261384e565b604082019050919050565b6000612c73602583613492565b9150612c7e8261389d565b604082019050919050565b6000612c96601c83613492565b9150612ca1826138ec565b602082019050919050565b6000612cb9600f83613492565b9150612cc482613915565b602082019050919050565b6000612cdc602483613492565b9150612ce78261393e565b604082019050919050565b6000612cff601983613492565b9150612d0a8261398d565b602082019050919050565b6000612d22602c83613492565b9150612d2d826139b6565b604082019050919050565b6000612d45601283613492565b9150612d5082613a05565b602082019050919050565b6000612d68603883613492565b9150612d7382613a2e565b604082019050919050565b6000612d8b600d83613492565b9150612d9682613a7d565b602082019050919050565b6000612dae602a83613492565b9150612db982613aa6565b604082019050919050565b6000612dd1602983613492565b9150612ddc82613af5565b604082019050919050565b6000612df4602e83613492565b9150612dff82613b44565b604082019050919050565b6000612e17602083613492565b9150612e2282613b93565b602082019050919050565b6000612e3a603183613492565b9150612e4582613bbc565b604082019050919050565b6000612e5d602c83613492565b9150612e6882613c0b565b604082019050919050565b6000612e80602f83613492565b9150612e8b82613c5a565b604082019050919050565b6000612ea3602183613492565b9150612eae82613ca9565b604082019050919050565b6000612ec6600083613487565b9150612ed182613cf8565b600082019050919050565b6000612ee9603183613492565b9150612ef482613cfb565b604082019050919050565b6000612f0c602083613492565b9150612f1782613d4a565b602082019050919050565b612f2b816135e6565b82525050565b6000612f3d8284612aeb565b60148201915081905092915050565b6000612f588285612b92565b9150612f648284612b92565b91508190509392505050565b6000612f7b82612eb9565b9150819050919050565b6000602082019050612f9a6000830184612adc565b92915050565b6000608082019050612fb56000830187612adc565b612fc26020830186612adc565b612fcf6040830185612f22565b8181036060830152612fe18184612b11565b905095945050505050565b60006020820190506130016000830184612b02565b92915050565b600060208201905081810360008301526130218184612b59565b905092915050565b600060a08201905081810360008301526130438188612bc3565b905081810360208301526130578187612b59565b90506130666040830186612f22565b81810360608301526130788185612b11565b90506130876080830184612b4a565b9695505050505050565b600060a08201905081810360008301526130ab8188612bc3565b905081810360208301526130bf8187612bc3565b90506130ce6040830186612f22565b81810360608301526130e08185612b11565b90506130ef6080830184612b4a565b9695505050505050565b6000602082019050818103600083015261311281612c43565b9050919050565b6000602082019050818103600083015261313281612c66565b9050919050565b6000602082019050818103600083015261315281612c89565b9050919050565b6000602082019050818103600083015261317281612cac565b9050919050565b6000602082019050818103600083015261319281612ccf565b9050919050565b600060208201905081810360008301526131b281612cf2565b9050919050565b600060208201905081810360008301526131d281612d15565b9050919050565b600060208201905081810360008301526131f281612d38565b9050919050565b6000602082019050818103600083015261321281612d5b565b9050919050565b6000602082019050818103600083015261323281612d7e565b9050919050565b6000602082019050818103600083015261325281612da1565b9050919050565b6000602082019050818103600083015261327281612dc4565b9050919050565b6000602082019050818103600083015261329281612de7565b9050919050565b600060208201905081810360008301526132b281612e0a565b9050919050565b600060208201905081810360008301526132d281612e2d565b9050919050565b600060208201905081810360008301526132f281612e50565b9050919050565b6000602082019050818103600083015261331281612e73565b9050919050565b6000602082019050818103600083015261333281612e96565b9050919050565b6000602082019050818103600083015261335281612edc565b9050919050565b6000602082019050818103600083015261337281612eff565b9050919050565b600060208201905061338e6000830184612f22565b92915050565b60006040820190506133a96000830185612f22565b81810360208301526133bb8184612b59565b90509392505050565b60006133ce6133df565b90506133da8282613676565b919050565b6000604051905090565b600067ffffffffffffffff82111561340457613403613801565b5b61340d82613830565b9050602081019050919050565b600067ffffffffffffffff82111561343557613434613801565b5b61343e82613830565b9050602081019050919050565b60008190508160005260206000209050919050565b600081519050919050565b600081519050919050565b600082825260208201905092915050565b600081905092915050565b600082825260208201905092915050565b600081905092915050565b60006134b9826135e6565b91506134c4836135e6565b9250827fffffffffffffffffffffffffffffffffffffffffffffffffffffffffffffffff038211156134f9576134f8613745565b5b828201905092915050565b600061350f826135e6565b915061351a836135e6565b92508261352a57613529613774565b5b828204905092915050565b6000613540826135e6565b915061354b836135e6565b92508282101561355e5761355d613745565b5b828203905092915050565b6000613574826135c6565b9050919050565b60008115159050919050565b60007fffffffff0000000000000000000000000000000000000000000000000000000082169050919050565b60008190506135c182613d73565b919050565b600073ffffffffffffffffffffffffffffffffffffffff82169050919050565b6000819050919050565b60006135fb826135b3565b9050919050565b82818337600083830152505050565b60005b8381101561362f578082015181840152602081019050613614565b8381111561363e576000848401525b50505050565b6000600282049050600182168061365c57607f821691505b602082108114156136705761366f6137d2565b5b50919050565b61367f82613830565b810181811067ffffffffffffffff8211171561369e5761369d613801565b5b80604052505050565b60006136b2826135e6565b91507fffffffffffffffffffffffffffffffffffffffffffffffffffffffffffffffff8214156136e5576136e4613745565b5b600182019050919050565b60006136fb82613702565b9050919050565b600061370d82613841565b9050919050565b600061371f826135e6565b915061372a836135e6565b92508261373a57613739613774565b5b828206905092915050565b7f4e487b7100000000000000000000000000000000000000000000000000000000600052601160045260246000fd5b7f4e487b7100000000000000000000000000000000000000000000000000000000600052601260045260246000fd5b7f4e487b7100000000000000000000000000000000000000000000000000000000600052602160045260246000fd5b7f4e487b7100000000000000000000000000000000000000000000000000000000600052602260045260246000fd5b7f4e487b7100000000000000000000000000000000000000000000000000000000600052604160045260246000fd5b6000601f19601f8301169050919050565b60008160601b9050919050565b7f4552433732313a207472616e7366657220746f206e6f6e20455243373231526560008201527f63656976657220696d706c656d656e7465720000000000000000000000000000602082015250565b7f4552433732313a207472616e736665722066726f6d20696e636f72726563742060008201527f6f776e6572000000000000000000000000000000000000000000000000000000602082015250565b7f4552433732313a20746f6b656e20616c7265616479206d696e74656400000000600082015250565b7f5769746864726177206661696c65640000000000000000000000000000000000600082015250565b7f4552433732313a207472616e7366657220746f20746865207a65726f2061646460008201527f7265737300000000000000000000000000000000000000000000000000000000602082015250565b7f4552433732313a20617070726f766520746f2063616c6c657200000000000000600082015250565b7f4552433732313a206f70657261746f7220717565727920666f72206e6f6e657860008201527f697374656e7420746f6b656e0000000000000000000000000000000000000000602082015250565b7f4e6f74204d4c20636f6f7264696e61746f720000000000000000000000000000600082015250565b7f4552433732313a20617070726f76652063616c6c6572206973206e6f74206f7760008201527f6e6572206e6f7220617070726f76656420666f7220616c6c0000000000000000602082015250565b7f4e6f7420746865206f776e657200000000000000000000000000000000000000600082015250565b7f4552433732313a2062616c616e636520717565727920666f7220746865207a6560008201527f726f206164647265737300000000000000000000000000000000000000000000602082015250565b7f4552433732313a206f776e657220717565727920666f72206e6f6e657869737460008201527f656e7420746f6b656e0000000000000000000000000000000000000000000000602082015250565b7f45524337323155524953746f726167653a2055524920736574206f66206e6f6e60008201527f6578697374656e7420746f6b656e000000000000000000000000000000000000602082015250565b7f4552433732313a206d696e7420746f20746865207a65726f2061646472657373600082015250565b7f45524337323155524953746f726167653a2055524920717565727920666f722060008201527f6e6f6e6578697374656e7420746f6b656e000000000000000000000000000000602082015250565b7f4552433732313a20617070726f76656420717565727920666f72206e6f6e657860008201527f697374656e7420746f6b656e0000000000000000000000000000000000000000602082015250565b7f4552433732314d657461646174613a2055524920717565727920666f72206e6f60008201527f6e6578697374656e7420746f6b656e0000000000000000000000000000000000602082015250565b7f4552433732313a20617070726f76616c20746f2063757272656e74206f776e6560008201527f7200000000000000000000000000000000000000000000000000000000000000602082015250565b50565b7f4552433732313a207472616e736665722063616c6c6572206973206e6f74206f60008201527f776e6572206e6f7220617070726f766564000000000000000000000000000000602082015250565b7f496e73756666696369656e74207061796d656e7420666f72206d696e74696e67600082015250565b60028110613d8457613d836137a3565b5b50565b613d9081613569565b8114613d9b57600080fd5b50565b613da78161357b565b8114613db257600080fd5b50565b613dbe81613587565b8114613dc957600080fd5b50565b613dd5816135e6565b8114613de057600080fd5b5056fea2646970667358221220695a57c54ef6a7e2957d28afafb2b1e84e1b7da8d49e5a3b499d6cc2342b3d0b64736f6c63430008040033",
  "linkReferences": {},
  "deployedLinkReferences": {}
}